{
  "transactions": [
    {
      "hash": "0x79e6733d896791b946c3ca6243fe34f407aca909fe3c98aa83362bf391400947",
      "transactionType": "CALL",
      "contractName": null,
      "contractAddress": "0xba1240b966e20e16ca32bbfc189528787794f2a9",
      "function": "createProxy(address,bool,bytes)",
      "arguments": [
        "0x0000000000000000000000000000000000000000",
        "true",
        "0x6b57475467cd854d36be7fb614cada52078389435b9d04d3c98035fc63fed58dbb03ca061da21ee66b57475467cd854d36be7fb614cada5207838943"
      ],
      "transaction": {
        "from": "0x492c0b9f298cc49fe2644a2ebc6ea8df848c72fb",
        "to": "0xba1240b966e20e16ca32bbfc189528787794f2a9",
        "gas": "0x176615",
        "value": "0x0",
        "input": "0x83e85b27000000000000000000000000000000000000000000000000000000000000000000000000000000000000000000000000000000000000000000000000000000010000000000000000000000000000000000000000000000000000000000000060000000000000000000000000000000000000000000000000000000000000003c6b57475467cd854d36be7fb614cada52078389435b9d04d3c98035fc63fed58dbb03ca061da21ee66b57475467cd854d36be7fb614cada520783894300000000",
        "nonce": "0x4a",
        "chainId": "0xba5ed"
      },
      "additionalContracts": [
        {
          "transactionType": "CREATE",
          "contractName": "BeaconProxy",
          "address": "0x014ba821525be6edd25f3ee7c6a37274382c8047",
          "initCode": "0x610140604052346100d3576103538038038061001a816100eb565b9283398101906020818303126100d3578051906001600160401b0382116100d357019080601f830112156100d35781516001600160401b0381116100d75761006b601f8201601f19166020016100eb565b91818352602082850101116100d3576020815f928261009296018386015e83010152610132565b60405161015c90816101f7823960805181602f015260a0518160f2015260c05181605b015260e05181607e0152610100518160a40152610120518160ca0152f35b5f80fd5b634e487b7160e01b5f52604160045260245ffd5b6040519190601f01601f191682016001600160401b038111838210176100d757604052565b91908260809103126100d3578151916020810151916060604083015192015190565b6040517f6bf6eaff5e9af8fbccb949f4c38cc016936f8775363ccf4224db160365785d525f80a160808251116101b457506101a49033608052337fa3f0ad74e5423aebfd80d3ef4346578335a9a72aeaee59ff6cb3582b35133d5055805160a05260808152602060a082019101610110565b610120526101005260e05260c052565b62461bcd60e51b815260206004820152601660248201527f747261696c696e67206461746120746f6f206c6f6e67000000000000000000006044820152606490fdfe60806040527f5c60da1b000000000000000000000000000000000000000000000000000000005f5260205f6004817f00000000000000000000000000000000000000000000000000000000000000005afa505f808051368280377f000000000000000000000000000000000000000000000000000000000000000036527f000000000000000000000000000000000000000000000000000000000000000036602001527f000000000000000000000000000000000000000000000000000000000000000036604001527f0000000000000000000000000000000000000000000000000000000000000000366060015281367f000000000000000000000000000000000000000000000000000000000000000001915af43d5f803e15610122573d5ff35b3d5ffdfea26469706673582212207841c236ae40576bf14600e3d236a8f1b16329a9290a226e60990fceed49781664736f6c634300081c003300000000000000000000000000000000000000000000000000000000000000200000000000000000000000000000000000000000000000000000000000000040000000006b57475467cd854d36be7fb614cada52078389435b9d04d3c98035fc63fed58dbb03ca061da21ee66b57475467cd854d36be7fb614cada5207838943"
        },
        {
          "transactionType": "CREATE",
          "contractName": "DToken",
          "address": "0xb6514776dc0c6b2c64f15581ebb92d31a35c5c88",
          "initCode": "0x60a080604052346100545733608052610b109081610059823960805181818161013e015281816101d2015281816103470152818161042501528181610536015281816105d60152818161071501526107bb0152f35b5f80fdfe6080806040526004361015610012575f80fd5b5f3560e01c90816306fdde031461074e57508063095ea7b3146100ef57806318160ddd146106a457806323b872dd1461066b57806323de6651146105b0578063313ce567146104c557806338d52e0f146103b457806370a08231146102b157806395d89b4114610162578063985426ec146100f4578063a9059cbb146100ef5763dd62ed3e146100a0575f80fd5b346100eb5760407ffffffffffffffffffffffffffffffffffffffffffffffffffffffffffffffffc3601126100eb576100d76108c3565b506100e06108e6565b5060206040515f8152f35b5f80fd5b610909565b346100eb575f7ffffffffffffffffffffffffffffffffffffffffffffffffffffffffffffffffc3601126100eb57602060405173ffffffffffffffffffffffffffffffffffffffff7f0000000000000000000000000000000000000000000000000000000000000000168152f35b346100eb575f7ffffffffffffffffffffffffffffffffffffffffffffffffffffffffffffffffc3601126100eb576040517f95d89b410000000000000000000000000000000000000000000000000000000081525f8160048173ffffffffffffffffffffffffffffffffffffffff7f0000000000000000000000000000000000000000000000000000000000000000165afa80156102a657610274600560208093610280955f91610284575b506040519481869251918291018484015e81017f2d444542540000000000000000000000000000000000000000000000000000008382015203017fffffffffffffffffffffffffffffffffffffffffffffffffffffffffffffffe58101845201826109db565b6040519182918261087b565b0390f35b6102a091503d805f833e61029881836109db565b810190610a49565b8661020e565b6040513d5f823e3d90fd5b346100eb5760207ffffffffffffffffffffffffffffffffffffffffffffffffffffffffffffffffc3601126100eb576102e86108c3565b73ffffffffffffffffffffffffffffffffffffffff604051917fd283e75f00000000000000000000000000000000000000000000000000000000835216600482015260208160248173ffffffffffffffffffffffffffffffffffffffff7f0000000000000000000000000000000000000000000000000000000000000000165afa80156102a6575f90610381575b602090604051908152f35b506020813d6020116103ac575b8161039b602093836109db565b810103126100eb5760209051610376565b3d915061038e565b346100eb575f7ffffffffffffffffffffffffffffffffffffffffffffffffffffffffffffffffc3601126100eb576040517f38d52e0f00000000000000000000000000000000000000000000000000000000815260208160048173ffffffffffffffffffffffffffffffffffffffff7f0000000000000000000000000000000000000000000000000000000000000000165afa80156102a6575f90610475575b60209073ffffffffffffffffffffffffffffffffffffffff60405191168152f35b506020813d6020116104bd575b8161048f602093836109db565b810103126100eb575173ffffffffffffffffffffffffffffffffffffffff811681036100eb57602090610454565b3d9150610482565b346100eb575f7ffffffffffffffffffffffffffffffffffffffffffffffffffffffffffffffffc3601126100eb576040517f313ce56700000000000000000000000000000000000000000000000000000000815260208160048173ffffffffffffffffffffffffffffffffffffffff7f0000000000000000000000000000000000000000000000000000000000000000165afa80156102a6575f90610573575b60209060ff60405191168152f35b506020813d6020116105a8575b8161058d602093836109db565b810103126100eb575160ff811681036100eb57602090610565565b3d9150610580565b346100eb576105be36610969565b9073ffffffffffffffffffffffffffffffffffffffff7f000000000000000000000000000000000000000000000000000000000000000016330361064357602073ffffffffffffffffffffffffffffffffffffffff807fddf252ad1be2c89b69c2b068fc378daa952ba7f163c4a11628f55a4df523b3ef9360405195865216941692a3005b7f08e2ce17000000000000000000000000000000000000000000000000000000005f5260045ffd5b346100eb5761067936610969565b5050507ffea48513000000000000000000000000000000000000000000000000000000005f5260045ffd5b346100eb575f7ffffffffffffffffffffffffffffffffffffffffffffffffffffffffffffffffc3601126100eb576040517f47bd371800000000000000000000000000000000000000000000000000000000815260208160048173ffffffffffffffffffffffffffffffffffffffff7f0000000000000000000000000000000000000000000000000000000000000000165afa80156102a6575f9061038157602090604051908152f35b346100eb575f7ffffffffffffffffffffffffffffffffffffffffffffffffffffffffffffffffc3601126100eb577f06fdde030000000000000000000000000000000000000000000000000000000081525f8160048173ffffffffffffffffffffffffffffffffffffffff7f0000000000000000000000000000000000000000000000000000000000000000165afa9081156102a657610274602e610280936020935f91610861575b506040519384917f4465627420746f6b656e206f6620000000000000000000000000000000000000828401528051918291018484015e81015f8382015203017fffffffffffffffffffffffffffffffffffffffffffffffffffffffffffffffe081018352826109db565b61087591503d805f833e61029881836109db565b856107f7565b7fffffffffffffffffffffffffffffffffffffffffffffffffffffffffffffffe0601f602060409481855280519182918282880152018686015e5f8582860101520116010190565b6004359073ffffffffffffffffffffffffffffffffffffffff821682036100eb57565b6024359073ffffffffffffffffffffffffffffffffffffffff821682036100eb57565b346100eb5760407ffffffffffffffffffffffffffffffffffffffffffffffffffffffffffffffffc3601126100eb576109406108c3565b507ffea48513000000000000000000000000000000000000000000000000000000005f5260045ffd5b7ffffffffffffffffffffffffffffffffffffffffffffffffffffffffffffffffc60609101126100eb5760043573ffffffffffffffffffffffffffffffffffffffff811681036100eb579060243573ffffffffffffffffffffffffffffffffffffffff811681036100eb579060443590565b90601f7fffffffffffffffffffffffffffffffffffffffffffffffffffffffffffffffe0910116810190811067ffffffffffffffff821117610a1c57604052565b7f4e487b71000000000000000000000000000000000000000000000000000000005f52604160045260245ffd5b6020818303126100eb5780519067ffffffffffffffff82116100eb570181601f820112156100eb5780519067ffffffffffffffff8211610a1c5760405192610ab960207fffffffffffffffffffffffffffffffffffffffffffffffffffffffffffffffe0601f86011601856109db565b828452602083830101116100eb57815f9260208093018386015e830101529056fea264697066735822122070010d0ee30fe6510b50cb4cee34832711c4a2993305ddc60821ac2eeb3f407064736f6c634300081c0033"
        }
      ],
      "isFixedGasLimit": false
    },
    {
      "hash": "0x5177cb7bb4e593abdd29f029318d04eafbd0ada69c71a852727e115a99095a36",
      "transactionType": "CALL",
      "contractName": null,
      "contractAddress": "0xba1240b966e20e16ca32bbfc189528787794f2a9",
      "function": "createProxy(address,bool,bytes)",
      "arguments": [
        "0x0000000000000000000000000000000000000000",
        "true",
        "0x9ef9f9b22d3ca9769e28e769e2aaa3c2b0072d0e5b9d04d3c98035fc63fed58dbb03ca061da21ee66b57475467cd854d36be7fb614cada5207838943"
      ],
      "transaction": {
        "from": "0x492c0b9f298cc49fe2644a2ebc6ea8df848c72fb",
        "to": "0xba1240b966e20e16ca32bbfc189528787794f2a9",
        "gas": "0x176615",
        "value": "0x0",
        "input": "0x83e85b27000000000000000000000000000000000000000000000000000000000000000000000000000000000000000000000000000000000000000000000000000000010000000000000000000000000000000000000000000000000000000000000060000000000000000000000000000000000000000000000000000000000000003c9ef9f9b22d3ca9769e28e769e2aaa3c2b0072d0e5b9d04d3c98035fc63fed58dbb03ca061da21ee66b57475467cd854d36be7fb614cada520783894300000000",
        "nonce": "0x4b",
        "chainId": "0xba5ed"
      },
      "additionalContracts": [
        {
          "transactionType": "CREATE",
          "contractName": "BeaconProxy",
          "address": "0xe39b100a33f7c861088a9c16642534dd29cdf83d",
          "initCode": "0x610140604052346100d3576103538038038061001a816100eb565b9283398101906020818303126100d3578051906001600160401b0382116100d357019080601f830112156100d35781516001600160401b0381116100d75761006b601f8201601f19166020016100eb565b91818352602082850101116100d3576020815f928261009296018386015e83010152610132565b60405161015c90816101f7823960805181602f015260a0518160f2015260c05181605b015260e05181607e0152610100518160a40152610120518160ca0152f35b5f80fd5b634e487b7160e01b5f52604160045260245ffd5b6040519190601f01601f191682016001600160401b038111838210176100d757604052565b91908260809103126100d3578151916020810151916060604083015192015190565b6040517f6bf6eaff5e9af8fbccb949f4c38cc016936f8775363ccf4224db160365785d525f80a160808251116101b457506101a49033608052337fa3f0ad74e5423aebfd80d3ef4346578335a9a72aeaee59ff6cb3582b35133d5055805160a05260808152602060a082019101610110565b610120526101005260e05260c052565b62461bcd60e51b815260206004820152601660248201527f747261696c696e67206461746120746f6f206c6f6e67000000000000000000006044820152606490fdfe60806040527f5c60da1b000000000000000000000000000000000000000000000000000000005f5260205f6004817f00000000000000000000000000000000000000000000000000000000000000005afa505f808051368280377f000000000000000000000000000000000000000000000000000000000000000036527f000000000000000000000000000000000000000000000000000000000000000036602001527f000000000000000000000000000000000000000000000000000000000000000036604001527f0000000000000000000000000000000000000000000000000000000000000000366060015281367f000000000000000000000000000000000000000000000000000000000000000001915af43d5f803e15610122573d5ff35b3d5ffdfea26469706673582212207841c236ae40576bf14600e3d236a8f1b16329a9290a226e60990fceed49781664736f6c634300081c003300000000000000000000000000000000000000000000000000000000000000200000000000000000000000000000000000000000000000000000000000000040000000009ef9f9b22d3ca9769e28e769e2aaa3c2b0072d0e5b9d04d3c98035fc63fed58dbb03ca061da21ee66b57475467cd854d36be7fb614cada5207838943"
        },
        {
          "transactionType": "CREATE",
          "contractName": "DToken",
          "address": "0x9dcf430238d51344d6bce31c48fd2335cb9cf7c9",
          "initCode": "0x60a080604052346100545733608052610b109081610059823960805181818161013e015281816101d2015281816103470152818161042501528181610536015281816105d60152818161071501526107bb0152f35b5f80fdfe6080806040526004361015610012575f80fd5b5f3560e01c90816306fdde031461074e57508063095ea7b3146100ef57806318160ddd146106a457806323b872dd1461066b57806323de6651146105b0578063313ce567146104c557806338d52e0f146103b457806370a08231146102b157806395d89b4114610162578063985426ec146100f4578063a9059cbb146100ef5763dd62ed3e146100a0575f80fd5b346100eb5760407ffffffffffffffffffffffffffffffffffffffffffffffffffffffffffffffffc3601126100eb576100d76108c3565b506100e06108e6565b5060206040515f8152f35b5f80fd5b610909565b346100eb575f7ffffffffffffffffffffffffffffffffffffffffffffffffffffffffffffffffc3601126100eb57602060405173ffffffffffffffffffffffffffffffffffffffff7f0000000000000000000000000000000000000000000000000000000000000000168152f35b346100eb575f7ffffffffffffffffffffffffffffffffffffffffffffffffffffffffffffffffc3601126100eb576040517f95d89b410000000000000000000000000000000000000000000000000000000081525f8160048173ffffffffffffffffffffffffffffffffffffffff7f0000000000000000000000000000000000000000000000000000000000000000165afa80156102a657610274600560208093610280955f91610284575b506040519481869251918291018484015e81017f2d444542540000000000000000000000000000000000000000000000000000008382015203017fffffffffffffffffffffffffffffffffffffffffffffffffffffffffffffffe58101845201826109db565b6040519182918261087b565b0390f35b6102a091503d805f833e61029881836109db565b810190610a49565b8661020e565b6040513d5f823e3d90fd5b346100eb5760207ffffffffffffffffffffffffffffffffffffffffffffffffffffffffffffffffc3601126100eb576102e86108c3565b73ffffffffffffffffffffffffffffffffffffffff604051917fd283e75f00000000000000000000000000000000000000000000000000000000835216600482015260208160248173ffffffffffffffffffffffffffffffffffffffff7f0000000000000000000000000000000000000000000000000000000000000000165afa80156102a6575f90610381575b602090604051908152f35b506020813d6020116103ac575b8161039b602093836109db565b810103126100eb5760209051610376565b3d915061038e565b346100eb575f7ffffffffffffffffffffffffffffffffffffffffffffffffffffffffffffffffc3601126100eb576040517f38d52e0f00000000000000000000000000000000000000000000000000000000815260208160048173ffffffffffffffffffffffffffffffffffffffff7f0000000000000000000000000000000000000000000000000000000000000000165afa80156102a6575f90610475575b60209073ffffffffffffffffffffffffffffffffffffffff60405191168152f35b506020813d6020116104bd575b8161048f602093836109db565b810103126100eb575173ffffffffffffffffffffffffffffffffffffffff811681036100eb57602090610454565b3d9150610482565b346100eb575f7ffffffffffffffffffffffffffffffffffffffffffffffffffffffffffffffffc3601126100eb576040517f313ce56700000000000000000000000000000000000000000000000000000000815260208160048173ffffffffffffffffffffffffffffffffffffffff7f0000000000000000000000000000000000000000000000000000000000000000165afa80156102a6575f90610573575b60209060ff60405191168152f35b506020813d6020116105a8575b8161058d602093836109db565b810103126100eb575160ff811681036100eb57602090610565565b3d9150610580565b346100eb576105be36610969565b9073ffffffffffffffffffffffffffffffffffffffff7f000000000000000000000000000000000000000000000000000000000000000016330361064357602073ffffffffffffffffffffffffffffffffffffffff807fddf252ad1be2c89b69c2b068fc378daa952ba7f163c4a11628f55a4df523b3ef9360405195865216941692a3005b7f08e2ce17000000000000000000000000000000000000000000000000000000005f5260045ffd5b346100eb5761067936610969565b5050507ffea48513000000000000000000000000000000000000000000000000000000005f5260045ffd5b346100eb575f7ffffffffffffffffffffffffffffffffffffffffffffffffffffffffffffffffc3601126100eb576040517f47bd371800000000000000000000000000000000000000000000000000000000815260208160048173ffffffffffffffffffffffffffffffffffffffff7f0000000000000000000000000000000000000000000000000000000000000000165afa80156102a6575f9061038157602090604051908152f35b346100eb575f7ffffffffffffffffffffffffffffffffffffffffffffffffffffffffffffffffc3601126100eb577f06fdde030000000000000000000000000000000000000000000000000000000081525f8160048173ffffffffffffffffffffffffffffffffffffffff7f0000000000000000000000000000000000000000000000000000000000000000165afa9081156102a657610274602e610280936020935f91610861575b506040519384917f4465627420746f6b656e206f6620000000000000000000000000000000000000828401528051918291018484015e81015f8382015203017fffffffffffffffffffffffffffffffffffffffffffffffffffffffffffffffe081018352826109db565b61087591503d805f833e61029881836109db565b856107f7565b7fffffffffffffffffffffffffffffffffffffffffffffffffffffffffffffffe0601f602060409481855280519182918282880152018686015e5f8582860101520116010190565b6004359073ffffffffffffffffffffffffffffffffffffffff821682036100eb57565b6024359073ffffffffffffffffffffffffffffffffffffffff821682036100eb57565b346100eb5760407ffffffffffffffffffffffffffffffffffffffffffffffffffffffffffffffffc3601126100eb576109406108c3565b507ffea48513000000000000000000000000000000000000000000000000000000005f5260045ffd5b7ffffffffffffffffffffffffffffffffffffffffffffffffffffffffffffffffc60609101126100eb5760043573ffffffffffffffffffffffffffffffffffffffff811681036100eb579060243573ffffffffffffffffffffffffffffffffffffffff811681036100eb579060443590565b90601f7fffffffffffffffffffffffffffffffffffffffffffffffffffffffffffffffe0910116810190811067ffffffffffffffff821117610a1c57604052565b7f4e487b71000000000000000000000000000000000000000000000000000000005f52604160045260245ffd5b6020818303126100eb5780519067ffffffffffffffff82116100eb570181601f820112156100eb5780519067ffffffffffffffff8211610a1c5760405192610ab960207fffffffffffffffffffffffffffffffffffffffffffffffffffffffffffffffe0601f86011601856109db565b828452602083830101116100eb57815f9260208093018386015e830101529056fea264697066735822122070010d0ee30fe6510b50cb4cee34832711c4a2993305ddc60821ac2eeb3f407064736f6c634300081c0033"
        }
      ],
      "isFixedGasLimit": false
    },
    {
      "hash": "0xc03a2298acc68c1449170dfe81f37792894454bb236aeed702eed1f2b96bb2dc",
      "transactionType": "CALL",
      "contractName": null,
      "contractAddress": "0xba1240b966e20e16ca32bbfc189528787794f2a9",
      "function": "createProxy(address,bool,bytes)",
      "arguments": [
        "0x0000000000000000000000000000000000000000",
        "true",
        "0x267ed9bc43b16d832cb9aaf0e3445f0cc9f536d95b9d04d3c98035fc63fed58dbb03ca061da21ee66b57475467cd854d36be7fb614cada5207838943"
      ],
      "transaction": {
        "from": "0x492c0b9f298cc49fe2644a2ebc6ea8df848c72fb",
        "to": "0xba1240b966e20e16ca32bbfc189528787794f2a9",
        "gas": "0x176615",
        "value": "0x0",
        "input": "0x83e85b27000000000000000000000000000000000000000000000000000000000000000000000000000000000000000000000000000000000000000000000000000000010000000000000000000000000000000000000000000000000000000000000060000000000000000000000000000000000000000000000000000000000000003c267ed9bc43b16d832cb9aaf0e3445f0cc9f536d95b9d04d3c98035fc63fed58dbb03ca061da21ee66b57475467cd854d36be7fb614cada520783894300000000",
        "nonce": "0x4c",
        "chainId": "0xba5ed"
      },
      "additionalContracts": [
        {
          "transactionType": "CREATE",
          "contractName": "BeaconProxy",
          "address": "0xfc78951dcffdd8bda662aa7d9c697be55d53712a",
          "initCode": "0x610140604052346100d3576103538038038061001a816100eb565b9283398101906020818303126100d3578051906001600160401b0382116100d357019080601f830112156100d35781516001600160401b0381116100d75761006b601f8201601f19166020016100eb565b91818352602082850101116100d3576020815f928261009296018386015e83010152610132565b60405161015c90816101f7823960805181602f015260a0518160f2015260c05181605b015260e05181607e0152610100518160a40152610120518160ca0152f35b5f80fd5b634e487b7160e01b5f52604160045260245ffd5b6040519190601f01601f191682016001600160401b038111838210176100d757604052565b91908260809103126100d3578151916020810151916060604083015192015190565b6040517f6bf6eaff5e9af8fbccb949f4c38cc016936f8775363ccf4224db160365785d525f80a160808251116101b457506101a49033608052337fa3f0ad74e5423aebfd80d3ef4346578335a9a72aeaee59ff6cb3582b35133d5055805160a05260808152602060a082019101610110565b610120526101005260e05260c052565b62461bcd60e51b815260206004820152601660248201527f747261696c696e67206461746120746f6f206c6f6e67000000000000000000006044820152606490fdfe60806040527f5c60da1b000000000000000000000000000000000000000000000000000000005f5260205f6004817f00000000000000000000000000000000000000000000000000000000000000005afa505f808051368280377f000000000000000000000000000000000000000000000000000000000000000036527f000000000000000000000000000000000000000000000000000000000000000036602001527f000000000000000000000000000000000000000000000000000000000000000036604001527f0000000000000000000000000000000000000000000000000000000000000000366060015281367f000000000000000000000000000000000000000000000000000000000000000001915af43d5f803e15610122573d5ff35b3d5ffdfea26469706673582212207841c236ae40576bf14600e3d236a8f1b16329a9290a226e60990fceed49781664736f6c634300081c00330000000000000000000000000000000000000000000000000000000000000020000000000000000000000000000000000000000000000000000000000000004000000000267ed9bc43b16d832cb9aaf0e3445f0cc9f536d95b9d04d3c98035fc63fed58dbb03ca061da21ee66b57475467cd854d36be7fb614cada5207838943"
        },
        {
          "transactionType": "CREATE",
          "contractName": "DToken",
          "address": "0x53b8168f6eecc40cd069ddec00fc08661d2f6a8b",
          "initCode": "0x60a080604052346100545733608052610b109081610059823960805181818161013e015281816101d2015281816103470152818161042501528181610536015281816105d60152818161071501526107bb0152f35b5f80fdfe6080806040526004361015610012575f80fd5b5f3560e01c90816306fdde031461074e57508063095ea7b3146100ef57806318160ddd146106a457806323b872dd1461066b57806323de6651146105b0578063313ce567146104c557806338d52e0f146103b457806370a08231146102b157806395d89b4114610162578063985426ec146100f4578063a9059cbb146100ef5763dd62ed3e146100a0575f80fd5b346100eb5760407ffffffffffffffffffffffffffffffffffffffffffffffffffffffffffffffffc3601126100eb576100d76108c3565b506100e06108e6565b5060206040515f8152f35b5f80fd5b610909565b346100eb575f7ffffffffffffffffffffffffffffffffffffffffffffffffffffffffffffffffc3601126100eb57602060405173ffffffffffffffffffffffffffffffffffffffff7f0000000000000000000000000000000000000000000000000000000000000000168152f35b346100eb575f7ffffffffffffffffffffffffffffffffffffffffffffffffffffffffffffffffc3601126100eb576040517f95d89b410000000000000000000000000000000000000000000000000000000081525f8160048173ffffffffffffffffffffffffffffffffffffffff7f0000000000000000000000000000000000000000000000000000000000000000165afa80156102a657610274600560208093610280955f91610284575b506040519481869251918291018484015e81017f2d444542540000000000000000000000000000000000000000000000000000008382015203017fffffffffffffffffffffffffffffffffffffffffffffffffffffffffffffffe58101845201826109db565b6040519182918261087b565b0390f35b6102a091503d805f833e61029881836109db565b810190610a49565b8661020e565b6040513d5f823e3d90fd5b346100eb5760207ffffffffffffffffffffffffffffffffffffffffffffffffffffffffffffffffc3601126100eb576102e86108c3565b73ffffffffffffffffffffffffffffffffffffffff604051917fd283e75f00000000000000000000000000000000000000000000000000000000835216600482015260208160248173ffffffffffffffffffffffffffffffffffffffff7f0000000000000000000000000000000000000000000000000000000000000000165afa80156102a6575f90610381575b602090604051908152f35b506020813d6020116103ac575b8161039b602093836109db565b810103126100eb5760209051610376565b3d915061038e565b346100eb575f7ffffffffffffffffffffffffffffffffffffffffffffffffffffffffffffffffc3601126100eb576040517f38d52e0f00000000000000000000000000000000000000000000000000000000815260208160048173ffffffffffffffffffffffffffffffffffffffff7f0000000000000000000000000000000000000000000000000000000000000000165afa80156102a6575f90610475575b60209073ffffffffffffffffffffffffffffffffffffffff60405191168152f35b506020813d6020116104bd575b8161048f602093836109db565b810103126100eb575173ffffffffffffffffffffffffffffffffffffffff811681036100eb57602090610454565b3d9150610482565b346100eb575f7ffffffffffffffffffffffffffffffffffffffffffffffffffffffffffffffffc3601126100eb576040517f313ce56700000000000000000000000000000000000000000000000000000000815260208160048173ffffffffffffffffffffffffffffffffffffffff7f0000000000000000000000000000000000000000000000000000000000000000165afa80156102a6575f90610573575b60209060ff60405191168152f35b506020813d6020116105a8575b8161058d602093836109db565b810103126100eb575160ff811681036100eb57602090610565565b3d9150610580565b346100eb576105be36610969565b9073ffffffffffffffffffffffffffffffffffffffff7f000000000000000000000000000000000000000000000000000000000000000016330361064357602073ffffffffffffffffffffffffffffffffffffffff807fddf252ad1be2c89b69c2b068fc378daa952ba7f163c4a11628f55a4df523b3ef9360405195865216941692a3005b7f08e2ce17000000000000000000000000000000000000000000000000000000005f5260045ffd5b346100eb5761067936610969565b5050507ffea48513000000000000000000000000000000000000000000000000000000005f5260045ffd5b346100eb575f7ffffffffffffffffffffffffffffffffffffffffffffffffffffffffffffffffc3601126100eb576040517f47bd371800000000000000000000000000000000000000000000000000000000815260208160048173ffffffffffffffffffffffffffffffffffffffff7f0000000000000000000000000000000000000000000000000000000000000000165afa80156102a6575f9061038157602090604051908152f35b346100eb575f7ffffffffffffffffffffffffffffffffffffffffffffffffffffffffffffffffc3601126100eb577f06fdde030000000000000000000000000000000000000000000000000000000081525f8160048173ffffffffffffffffffffffffffffffffffffffff7f0000000000000000000000000000000000000000000000000000000000000000165afa9081156102a657610274602e610280936020935f91610861575b506040519384917f4465627420746f6b656e206f6620000000000000000000000000000000000000828401528051918291018484015e81015f8382015203017fffffffffffffffffffffffffffffffffffffffffffffffffffffffffffffffe081018352826109db565b61087591503d805f833e61029881836109db565b856107f7565b7fffffffffffffffffffffffffffffffffffffffffffffffffffffffffffffffe0601f602060409481855280519182918282880152018686015e5f8582860101520116010190565b6004359073ffffffffffffffffffffffffffffffffffffffff821682036100eb57565b6024359073ffffffffffffffffffffffffffffffffffffffff821682036100eb57565b346100eb5760407ffffffffffffffffffffffffffffffffffffffffffffffffffffffffffffffffc3601126100eb576109406108c3565b507ffea48513000000000000000000000000000000000000000000000000000000005f5260045ffd5b7ffffffffffffffffffffffffffffffffffffffffffffffffffffffffffffffffc60609101126100eb5760043573ffffffffffffffffffffffffffffffffffffffff811681036100eb579060243573ffffffffffffffffffffffffffffffffffffffff811681036100eb579060443590565b90601f7fffffffffffffffffffffffffffffffffffffffffffffffffffffffffffffffe0910116810190811067ffffffffffffffff821117610a1c57604052565b7f4e487b71000000000000000000000000000000000000000000000000000000005f52604160045260245ffd5b6020818303126100eb5780519067ffffffffffffffff82116100eb570181601f820112156100eb5780519067ffffffffffffffff8211610a1c5760405192610ab960207fffffffffffffffffffffffffffffffffffffffffffffffffffffffffffffffe0601f86011601856109db565b828452602083830101116100eb57815f9260208093018386015e830101529056fea264697066735822122070010d0ee30fe6510b50cb4cee34832711c4a2993305ddc60821ac2eeb3f407064736f6c634300081c0033"
        }
      ],
      "isFixedGasLimit": false
    }
  ],
  "receipts": [
    {
      "status": "0x1",
      "cumulativeGasUsed": "0x11a4e1",
      "logs": [
        {
          "address": "0x014ba821525be6edd25f3ee7c6a37274382c8047",
          "topics": [
            "0x6bf6eaff5e9af8fbccb949f4c38cc016936f8775363ccf4224db160365785d52"
          ],
          "data": "0x",
          "blockHash": "0x847ed68dab75f3188a2fa8d82c54dd24a74c2a6c3baf8b0210a088b5e287222f",
          "blockNumber": "0x2bd8ba7",
          "blockTimestamp": "0x69cc0ac7",
          "transactionHash": "0x5177cb7bb4e593abdd29f029318d04eafbd0ada69c71a852727e115a99095a36",
          "transactionIndex": "0x1",
          "logIndex": "0x0",
          "removed": false
        },
        {
          "address": "0xb694120ecdc69fbbee3ae21831d7b76ab8a9169b",
          "topics": [
            "0x0d86caf31c60e8930bb317807498caf621639c94c6a4008b7447e34ee9bc8ada",
            "0x0000000000000000000000000000000000000000000000000000000000000002",
            "0x000000000000000000000000014ba821525be6edd25f3ee7c6a37274382c8047"
          ],
          "data": "0x000000000000000000000000000000000000000000000000000000000000002000000000000000000000000000000000000000000000000000000000000000045553444300000000000000000000000000000000000000000000000000000000",
          "blockHash": "0x847ed68dab75f3188a2fa8d82c54dd24a74c2a6c3baf8b0210a088b5e287222f",
          "blockNumber": "0x2bd8ba7",
          "blockTimestamp": "0x69cc0ac7",
          "transactionHash": "0x5177cb7bb4e593abdd29f029318d04eafbd0ada69c71a852727e115a99095a36",
          "transactionIndex": "0x1",
          "logIndex": "0x1",
          "removed": false
        },
        {
          "address": "0x014ba821525be6edd25f3ee7c6a37274382c8047",
          "topics": [
            "0x0cd345140b9008a43f99a999a328ece572a0193e8c8bf5f5755585e6f293b85e",
            "0x000000000000000000000000492c0b9f298cc49fe2644a2ebc6ea8df848c72fb",
            "0x0000000000000000000000006b57475467cd854d36be7fb614cada5207838943"
          ],
          "data": "0x000000000000000000000000b6514776dc0c6b2c64f15581ebb92d31a35c5c88",
          "blockHash": "0x847ed68dab75f3188a2fa8d82c54dd24a74c2a6c3baf8b0210a088b5e287222f",
          "blockNumber": "0x2bd8ba7",
          "blockTimestamp": "0x69cc0ac7",
          "transactionHash": "0x5177cb7bb4e593abdd29f029318d04eafbd0ada69c71a852727e115a99095a36",
          "transactionIndex": "0x1",
          "logIndex": "0x2",
          "removed": false
        },
        {
          "address": "0x014ba821525be6edd25f3ee7c6a37274382c8047",
          "topics": [
            "0x80b61abbfc5f73cfe5cf93cec97a69ed20643dc6c6f1833b05a1560aa164e24c"
          ],
          "data": "0x00000000000000000000000000000000000000000000000000000000000000000000000000000000000000000000000000000000000000000000000000000000000000000000000000000000000000000000000000000000000000000000000000000000000000000000000000000000000000000000000000000000000000000000000000000000000000000000000000000000033b2e3c9fd0803ce800000000000000000000000000000000000000000000000000000000000000000000000000000000000000000000000000000000000000000000000000000069cc0ac7",
          "blockHash": "0x847ed68dab75f3188a2fa8d82c54dd24a74c2a6c3baf8b0210a088b5e287222f",
          "blockNumber": "0x2bd8ba7",
          "blockTimestamp": "0x69cc0ac7",
          "transactionHash": "0x5177cb7bb4e593abdd29f029318d04eafbd0ada69c71a852727e115a99095a36",
          "transactionIndex": "0x1",
          "logIndex": "0x3",
          "removed": false
        },
        {
          "address": "0xba1240b966e20e16ca32bbfc189528787794f2a9",
          "topics": [
            "0x04e664079117e113faa9684bc14aecb41651cbf098b14eda271248c6d0cda57c",
            "0x000000000000000000000000014ba821525be6edd25f3ee7c6a37274382c8047"
          ],
          "data": "0x0000000000000000000000000000000000000000000000000000000000000001000000000000000000000000d821a7d919e007b6b39925f672f1219db4865fba0000000000000000000000000000000000000000000000000000000000000060000000000000000000000000000000000000000000000000000000000000003c6b57475467cd854d36be7fb614cada52078389435b9d04d3c98035fc63fed58dbb03ca061da21ee66b57475467cd854d36be7fb614cada520783894300000000",
          "blockHash": "0x847ed68dab75f3188a2fa8d82c54dd24a74c2a6c3baf8b0210a088b5e287222f",
          "blockNumber": "0x2bd8ba7",
          "blockTimestamp": "0x69cc0ac7",
          "transactionHash": "0x5177cb7bb4e593abdd29f029318d04eafbd0ada69c71a852727e115a99095a36",
          "transactionIndex": "0x1",
          "logIndex": "0x4",
          "removed": false
        }
      ],
      "logsBloom": "0x04000000000000000000000000000000000000000000000000010000000000000000000000000001000010000004000000000000000000100000000000800010000000000000000000000000000000000000000000010000004200000008000000000000000000000000000000000000800000020000020000000000000000000440010000000000020000000000000000800000000000000000000000040000000000000000000800000100000004000000000002020000000000080000800000000200000000100000000000000000280000000080000000000000000004000000080000000000000000000000000000000000008000000000000000000000",
      "type": "0x0",
      "transactionHash": "0x5177cb7bb4e593abdd29f029318d04eafbd0ada69c71a852727e115a99095a36",
      "transactionIndex": "0x1",
      "blockHash": "0x847ed68dab75f3188a2fa8d82c54dd24a74c2a6c3baf8b0210a088b5e287222f",
      "blockNumber": "0x2bd8ba7",
      "gasUsed": "0x10f0b7",
      "effectiveGasPrice": "0xf433c",
      "blobGasUsed": "0xa410",
      "from": "0x492c0b9f298cc49fe2644a2ebc6ea8df848c72fb",
      "to": "0xba1240b966e20e16ca32bbfc189528787794f2a9",
      "contractAddress": null,
      "daFootprintGasScalar": "0x190",
      "l1BaseFeeScalar": "0xc3c9d",
      "l1BlobBaseFee": "0xd",
      "l1BlobBaseFeeScalar": "0x0",
      "l1Fee": "0x44653",
      "l1GasPrice": "0xcf",
      "l1GasUsed": "0x697"
    },
    {
      "status": "0x1",
      "cumulativeGasUsed": "0x229598",
      "logs": [
        {
          "address": "0xe39b100a33f7c861088a9c16642534dd29cdf83d",
          "topics": [
            "0x6bf6eaff5e9af8fbccb949f4c38cc016936f8775363ccf4224db160365785d52"
          ],
          "data": "0x",
          "blockHash": "0x847ed68dab75f3188a2fa8d82c54dd24a74c2a6c3baf8b0210a088b5e287222f",
          "blockNumber": "0x2bd8ba7",
          "blockTimestamp": "0x69cc0ac7",
          "transactionHash": "0x79e6733d896791b946c3ca6243fe34f407aca909fe3c98aa83362bf391400947",
          "transactionIndex": "0x2",
          "logIndex": "0x5",
          "removed": false
        },
        {
          "address": "0xb694120ecdc69fbbee3ae21831d7b76ab8a9169b",
          "topics": [
            "0x0d86caf31c60e8930bb317807498caf621639c94c6a4008b7447e34ee9bc8ada",
            "0x0000000000000000000000000000000000000000000000000000000000000002",
            "0x000000000000000000000000e39b100a33f7c861088a9c16642534dd29cdf83d"
          ],
          "data": "0x000000000000000000000000000000000000000000000000000000000000002000000000000000000000000000000000000000000000000000000000000000057753505978000000000000000000000000000000000000000000000000000000",
          "blockHash": "0x847ed68dab75f3188a2fa8d82c54dd24a74c2a6c3baf8b0210a088b5e287222f",
          "blockNumber": "0x2bd8ba7",
          "blockTimestamp": "0x69cc0ac7",
          "transactionHash": "0x79e6733d896791b946c3ca6243fe34f407aca909fe3c98aa83362bf391400947",
          "transactionIndex": "0x2",
          "logIndex": "0x6",
          "removed": false
        },
        {
          "address": "0xe39b100a33f7c861088a9c16642534dd29cdf83d",
          "topics": [
            "0x0cd345140b9008a43f99a999a328ece572a0193e8c8bf5f5755585e6f293b85e",
            "0x000000000000000000000000492c0b9f298cc49fe2644a2ebc6ea8df848c72fb",
            "0x0000000000000000000000009ef9f9b22d3ca9769e28e769e2aaa3c2b0072d0e"
          ],
          "data": "0x0000000000000000000000009dcf430238d51344d6bce31c48fd2335cb9cf7c9",
          "blockHash": "0x847ed68dab75f3188a2fa8d82c54dd24a74c2a6c3baf8b0210a088b5e287222f",
          "blockNumber": "0x2bd8ba7",
          "blockTimestamp": "0x69cc0ac7",
          "transactionHash": "0x79e6733d896791b946c3ca6243fe34f407aca909fe3c98aa83362bf391400947",
          "transactionIndex": "0x2",
          "logIndex": "0x7",
          "removed": false
        },
        {
          "address": "0xe39b100a33f7c861088a9c16642534dd29cdf83d",
          "topics": [
            "0x80b61abbfc5f73cfe5cf93cec97a69ed20643dc6c6f1833b05a1560aa164e24c"
          ],
          "data": "0x00000000000000000000000000000000000000000000000000000000000000000000000000000000000000000000000000000000000000000000000000000000000000000000000000000000000000000000000000000000000000000000000000000000000000000000000000000000000000000000000000000000000000000000000000000000000000000000000000000000033b2e3c9fd0803ce800000000000000000000000000000000000000000000000000000000000000000000000000000000000000000000000000000000000000000000000000000069cc0ac7",
          "blockHash": "0x847ed68dab75f3188a2fa8d82c54dd24a74c2a6c3baf8b0210a088b5e287222f",
          "blockNumber": "0x2bd8ba7",
          "blockTimestamp": "0x69cc0ac7",
          "transactionHash": "0x79e6733d896791b946c3ca6243fe34f407aca909fe3c98aa83362bf391400947",
          "transactionIndex": "0x2",
          "logIndex": "0x8",
          "removed": false
        },
        {
          "address": "0xba1240b966e20e16ca32bbfc189528787794f2a9",
          "topics": [
            "0x04e664079117e113faa9684bc14aecb41651cbf098b14eda271248c6d0cda57c",
            "0x000000000000000000000000e39b100a33f7c861088a9c16642534dd29cdf83d"
          ],
          "data": "0x0000000000000000000000000000000000000000000000000000000000000001000000000000000000000000d821a7d919e007b6b39925f672f1219db4865fba0000000000000000000000000000000000000000000000000000000000000060000000000000000000000000000000000000000000000000000000000000003c9ef9f9b22d3ca9769e28e769e2aaa3c2b0072d0e5b9d04d3c98035fc63fed58dbb03ca061da21ee66b57475467cd854d36be7fb614cada520783894300000000",
          "blockHash": "0x847ed68dab75f3188a2fa8d82c54dd24a74c2a6c3baf8b0210a088b5e287222f",
          "blockNumber": "0x2bd8ba7",
          "blockTimestamp": "0x69cc0ac7",
          "transactionHash": "0x79e6733d896791b946c3ca6243fe34f407aca909fe3c98aa83362bf391400947",
          "transactionIndex": "0x2",
          "logIndex": "0x9",
          "removed": false
        }
      ],
      "logsBloom": "0x04000000000000000000000000000000000000000000001000000000000000000000000000000001000010000004000000000000000000100000000000000010000000000000000000000000000000000000000000010000004200000008000000000000040000020000000000000800000000020000020000000000000000000440000000000000020000000000001000800000000000000000000000000000000000000000000800000100000004000000000082020000000000080000800000000200400000000000000000000000000000000080000000000000000000000000080000000000000000000000000000100000008000000000000000000000",
      "type": "0x0",
      "transactionHash": "0x79e6733d896791b946c3ca6243fe34f407aca909fe3c98aa83362bf391400947",
      "transactionIndex": "0x2",
      "blockHash": "0x847ed68dab75f3188a2fa8d82c54dd24a74c2a6c3baf8b0210a088b5e287222f",
      "blockNumber": "0x2bd8ba7",
      "gasUsed": "0x10f0b7",
      "effectiveGasPrice": "0xf433c",
      "blobGasUsed": "0xb9f0",
      "from": "0x492c0b9f298cc49fe2644a2ebc6ea8df848c72fb",
      "to": "0xba1240b966e20e16ca32bbfc189528787794f2a9",
      "contractAddress": null,
      "daFootprintGasScalar": "0x190",
      "l1BaseFeeScalar": "0xc3c9d",
      "l1BlobBaseFee": "0xd",
      "l1BlobBaseFeeScalar": "0x0",
      "l1Fee": "0x4d9dd",
      "l1GasPrice": "0xcf",
      "l1GasUsed": "0x77b"
    },
    {
      "status": "0x1",
      "cumulativeGasUsed": "0x33864f",
      "logs": [
        {
          "address": "0xfc78951dcffdd8bda662aa7d9c697be55d53712a",
          "topics": [
            "0x6bf6eaff5e9af8fbccb949f4c38cc016936f8775363ccf4224db160365785d52"
          ],
          "data": "0x",
          "blockHash": "0x847ed68dab75f3188a2fa8d82c54dd24a74c2a6c3baf8b0210a088b5e287222f",
          "blockNumber": "0x2bd8ba7",
          "blockTimestamp": "0x69cc0ac7",
          "transactionHash": "0xc03a2298acc68c1449170dfe81f37792894454bb236aeed702eed1f2b96bb2dc",
          "transactionIndex": "0x3",
          "logIndex": "0xa",
          "removed": false
        },
        {
          "address": "0xb694120ecdc69fbbee3ae21831d7b76ab8a9169b",
          "topics": [
            "0x0d86caf31c60e8930bb317807498caf621639c94c6a4008b7447e34ee9bc8ada",
            "0x0000000000000000000000000000000000000000000000000000000000000002",
            "0x000000000000000000000000fc78951dcffdd8bda662aa7d9c697be55d53712a"
          ],
          "data": "0x000000000000000000000000000000000000000000000000000000000000002000000000000000000000000000000000000000000000000000000000000000057751515178000000000000000000000000000000000000000000000000000000",
          "blockHash": "0x847ed68dab75f3188a2fa8d82c54dd24a74c2a6c3baf8b0210a088b5e287222f",
          "blockNumber": "0x2bd8ba7",
          "blockTimestamp": "0x69cc0ac7",
          "transactionHash": "0xc03a2298acc68c1449170dfe81f37792894454bb236aeed702eed1f2b96bb2dc",
          "transactionIndex": "0x3",
          "logIndex": "0xb",
          "removed": false
        },
        {
          "address": "0xfc78951dcffdd8bda662aa7d9c697be55d53712a",
          "topics": [
            "0x0cd345140b9008a43f99a999a328ece572a0193e8c8bf5f5755585e6f293b85e",
            "0x000000000000000000000000492c0b9f298cc49fe2644a2ebc6ea8df848c72fb",
            "0x000000000000000000000000267ed9bc43b16d832cb9aaf0e3445f0cc9f536d9"
          ],
          "data": "0x00000000000000000000000053b8168f6eecc40cd069ddec00fc08661d2f6a8b",
          "blockHash": "0x847ed68dab75f3188a2fa8d82c54dd24a74c2a6c3baf8b0210a088b5e287222f",
          "blockNumber": "0x2bd8ba7",
          "blockTimestamp": "0x69cc0ac7",
          "transactionHash": "0xc03a2298acc68c1449170dfe81f37792894454bb236aeed702eed1f2b96bb2dc",
          "transactionIndex": "0x3",
          "logIndex": "0xc",
          "removed": false
        },
        {
          "address": "0xfc78951dcffdd8bda662aa7d9c697be55d53712a",
          "topics": [
            "0x80b61abbfc5f73cfe5cf93cec97a69ed20643dc6c6f1833b05a1560aa164e24c"
          ],
          "data": "0x00000000000000000000000000000000000000000000000000000000000000000000000000000000000000000000000000000000000000000000000000000000000000000000000000000000000000000000000000000000000000000000000000000000000000000000000000000000000000000000000000000000000000000000000000000000000000000000000000000000033b2e3c9fd0803ce800000000000000000000000000000000000000000000000000000000000000000000000000000000000000000000000000000000000000000000000000000069cc0ac7",
          "blockHash": "0x847ed68dab75f3188a2fa8d82c54dd24a74c2a6c3baf8b0210a088b5e287222f",
          "blockNumber": "0x2bd8ba7",
          "blockTimestamp": "0x69cc0ac7",
          "transactionHash": "0xc03a2298acc68c1449170dfe81f37792894454bb236aeed702eed1f2b96bb2dc",
          "transactionIndex": "0x3",
          "logIndex": "0xd",
          "removed": false
        },
        {
          "address": "0xba1240b966e20e16ca32bbfc189528787794f2a9",
          "topics": [
            "0x04e664079117e113faa9684bc14aecb41651cbf098b14eda271248c6d0cda57c",
            "0x000000000000000000000000fc78951dcffdd8bda662aa7d9c697be55d53712a"
          ],
          "data": "0x0000000000000000000000000000000000000000000000000000000000000001000000000000000000000000d821a7d919e007b6b39925f672f1219db4865fba0000000000000000000000000000000000000000000000000000000000000060000000000000000000000000000000000000000000000000000000000000003c267ed9bc43b16d832cb9aaf0e3445f0cc9f536d95b9d04d3c98035fc63fed58dbb03ca061da21ee66b57475467cd854d36be7fb614cada520783894300000000",
          "blockHash": "0x847ed68dab75f3188a2fa8d82c54dd24a74c2a6c3baf8b0210a088b5e287222f",
          "blockNumber": "0x2bd8ba7",
          "blockTimestamp": "0x69cc0ac7",
          "transactionHash": "0xc03a2298acc68c1449170dfe81f37792894454bb236aeed702eed1f2b96bb2dc",
          "transactionIndex": "0x3",
          "logIndex": "0xe",
          "removed": false
        }
      ],
      "logsBloom": "0x04000000000008000000000000000000000000000040000000000000000000000000000000000001000010000004000000000000000800100000000000000010000000008000000000000000000000100000000000010000004200000008000000000000000000000000000020000000000000020000020100002000000000000440000000000000020000000000000000800000000000000000000000000000000000000000000800000100000004000000000002020000000000080000800000000200000000000000000000000200000000000080000000000000000000000000080000000000000000000000000000000000008000000000000000000000",
      "type": "0x0",
      "transactionHash": "0xc03a2298acc68c1449170dfe81f37792894454bb236aeed702eed1f2b96bb2dc",
      "transactionIndex": "0x3",
      "blockHash": "0x847ed68dab75f3188a2fa8d82c54dd24a74c2a6c3baf8b0210a088b5e287222f",
      "blockNumber": "0x2bd8ba7",
      "gasUsed": "0x10f0b7",
      "effectiveGasPrice": "0xf433c",
      "blobGasUsed": "0xb9f0",
      "from": "0x492c0b9f298cc49fe2644a2ebc6ea8df848c72fb",
      "to": "0xba1240b966e20e16ca32bbfc189528787794f2a9",
      "contractAddress": null,
      "daFootprintGasScalar": "0x190",
      "l1BaseFeeScalar": "0xc3c9d",
      "l1BlobBaseFee": "0xd",
      "l1BlobBaseFeeScalar": "0x0",
      "l1Fee": "0x4d9dd",
      "l1GasPrice": "0xcf",
      "l1GasUsed": "0x77b"
    }
  ],
  "libraries": [],
  "pending": [],
  "returns": {},
  "timestamp": 1774979784276,
  "chain": 763373,
  "commit": "50bfc40"
}