{
  "transactions": [
    {
      "hash": "0x535d575c80fdb1f2d78e49099b75fd69b0442db94cb6e64889773c04c5d8e813",
      "transactionType": "CALL",
      "contractName": null,
      "contractAddress": "0x6b57475467cd854d36be7fb614cada5207838943",
      "function": "approve(address,uint256)",
      "arguments": [
        "0x014ba821525Be6eDd25F3eE7C6A37274382c8047",
        "35000000"
      ],
      "transaction": {
        "from": "0x492c0b9f298cc49fe2644a2ebc6ea8df848c72fb",
        "to": "0x6b57475467cd854d36be7fb614cada5207838943",
        "gas": "0xf901",
        "value": "0x0",
        "input": "0x095ea7b3000000000000000000000000014ba821525be6edd25f3ee7c6a37274382c80470000000000000000000000000000000000000000000000000000000002160ec0",
        "nonce": "0x60",
        "chainId": "0xba5ed"
      },
      "additionalContracts": [],
      "isFixedGasLimit": false
    },
    {
      "hash": "0xddd5523f9410399c001c4d214d0caf628c64aef75411760d323e0db512cf431d",
      "transactionType": "CALL",
      "contractName": null,
      "contractAddress": "0x014ba821525be6edd25f3ee7c6a37274382c8047",
      "function": "deposit(uint256,address)",
      "arguments": [
        "35000000",
        "0x492c0b9F298cC49FE2644a2EBc6eA8dF848c72FB"
      ],
      "transaction": {
        "from": "0x492c0b9f298cc49fe2644a2ebc6ea8df848c72fb",
        "to": "0x014ba821525be6edd25f3ee7c6a37274382c8047",
        "gas": "0x37d2b",
        "value": "0x0",
        "input": "0x6e553f650000000000000000000000000000000000000000000000000000000002160ec0000000000000000000000000492c0b9f298cc49fe2644a2ebc6ea8df848c72fb",
        "nonce": "0x61",
        "chainId": "0xba5ed"
      },
      "additionalContracts": [],
      "isFixedGasLimit": false
    }
  ],
  "receipts": [
    {
      "status": "0x1",
      "cumulativeGasUsed": "0x16871",
      "logs": [
        {
          "address": "0x6b57475467cd854d36be7fb614cada5207838943",
          "topics": [
            "0x8c5be1e5ebec7d5bd14f71427d1e84f3dd0314c0f7b2291e5b200ac8c7c3b925",
            "0x000000000000000000000000492c0b9f298cc49fe2644a2ebc6ea8df848c72fb",
            "0x000000000000000000000000014ba821525be6edd25f3ee7c6a37274382c8047"
          ],
          "data": "0x0000000000000000000000000000000000000000000000000000000002160ec0",
          "blockHash": "0xf29775beb679f774e456e65a7c252a23575c49bdc90bdeb087391c62f72eae9c",
          "blockNumber": "0x2bd8ce8",
          "blockTimestamp": "0x69cc0c08",
          "transactionHash": "0xddd5523f9410399c001c4d214d0caf628c64aef75411760d323e0db512cf431d",
          "transactionIndex": "0x1",
          "logIndex": "0x0",
          "removed": false
        }
      ],
      "logsBloom": "0x00000000000000000000000000000000000000000000000000010000000000000000000000000000000000000000000000000000000000000000000000a40000000000000000000000000000000000000000000000000000000200000000000000000000000000000000000000000000000000020000000000000000000000000000010000000000000000000000000000800000000000000000400000000000020000000000000000000000000000000000000000000000000000000000000000000000000000000000000000000000000000000080000000000000000000000010000000000000000000000000000000000000000000000000000000000000",
      "type": "0x0",
      "transactionHash": "0xddd5523f9410399c001c4d214d0caf628c64aef75411760d323e0db512cf431d",
      "transactionIndex": "0x1",
      "blockHash": "0xf29775beb679f774e456e65a7c252a23575c49bdc90bdeb087391c62f72eae9c",
      "blockNumber": "0x2bd8ce8",
      "gasUsed": "0xb447",
      "effectiveGasPrice": "0xf433c",
      "blobGasUsed": "0x9c40",
      "from": "0x492c0b9f298cc49fe2644a2ebc6ea8df848c72fb",
      "to": "0x6b57475467cd854d36be7fb614cada5207838943",
      "contractAddress": null,
      "daFootprintGasScalar": "0x190",
      "l1BaseFeeScalar": "0xc3c9d",
      "l1BlobBaseFee": "0x3",
      "l1BlobBaseFeeScalar": "0x0",
      "l1Fee": "0x113ab",
      "l1GasPrice": "0x37",
      "l1GasUsed": "0x640"
    },
    {
      "status": "0x1",
      "cumulativeGasUsed": "0x3ee9e",
      "logs": [
        {
          "address": "0x9b8d1851bcc06ac265c1c1acabd0f71e69dd312c",
          "topics": [
            "0x6e9738e5aa38fe1517adbb480351ec386ece82947737b18badbcad1e911133ec",
            "0x000000000000000000000000014ba821525be6edd25f3ee7c6a37274382c8047",
            "0x492c0b9f298cc49fe2644a2ebc6ea8df848c7200000000000000000000000000",
            "0x000000000000000000000000014ba821525be6edd25f3ee7c6a37274382c8047"
          ],
          "data": "0x000000000000000000000000492c0b9f298cc49fe2644a2ebc6ea8df848c72fb6e553f6500000000000000000000000000000000000000000000000000000000",
          "blockHash": "0xf29775beb679f774e456e65a7c252a23575c49bdc90bdeb087391c62f72eae9c",
          "blockNumber": "0x2bd8ce8",
          "blockTimestamp": "0x69cc0c08",
          "transactionHash": "0x535d575c80fdb1f2d78e49099b75fd69b0442db94cb6e64889773c04c5d8e813",
          "transactionIndex": "0x2",
          "logIndex": "0x1",
          "removed": false
        },
        {
          "address": "0x6b57475467cd854d36be7fb614cada5207838943",
          "topics": [
            "0x8c5be1e5ebec7d5bd14f71427d1e84f3dd0314c0f7b2291e5b200ac8c7c3b925",
            "0x000000000000000000000000492c0b9f298cc49fe2644a2ebc6ea8df848c72fb",
            "0x000000000000000000000000014ba821525be6edd25f3ee7c6a37274382c8047"
          ],
          "data": "0x0000000000000000000000000000000000000000000000000000000000000000",
          "blockHash": "0xf29775beb679f774e456e65a7c252a23575c49bdc90bdeb087391c62f72eae9c",
          "blockNumber": "0x2bd8ce8",
          "blockTimestamp": "0x69cc0c08",
          "transactionHash": "0x535d575c80fdb1f2d78e49099b75fd69b0442db94cb6e64889773c04c5d8e813",
          "transactionIndex": "0x2",
          "logIndex": "0x2",
          "removed": false
        },
        {
          "address": "0x6b57475467cd854d36be7fb614cada5207838943",
          "topics": [
            "0xddf252ad1be2c89b69c2b068fc378daa952ba7f163c4a11628f55a4df523b3ef",
            "0x000000000000000000000000492c0b9f298cc49fe2644a2ebc6ea8df848c72fb",
            "0x000000000000000000000000014ba821525be6edd25f3ee7c6a37274382c8047"
          ],
          "data": "0x0000000000000000000000000000000000000000000000000000000002160ec0",
          "blockHash": "0xf29775beb679f774e456e65a7c252a23575c49bdc90bdeb087391c62f72eae9c",
          "blockNumber": "0x2bd8ce8",
          "blockTimestamp": "0x69cc0c08",
          "transactionHash": "0x535d575c80fdb1f2d78e49099b75fd69b0442db94cb6e64889773c04c5d8e813",
          "transactionIndex": "0x2",
          "logIndex": "0x3",
          "removed": false
        },
        {
          "address": "0x014ba821525be6edd25f3ee7c6a37274382c8047",
          "topics": [
            "0xddf252ad1be2c89b69c2b068fc378daa952ba7f163c4a11628f55a4df523b3ef",
            "0x0000000000000000000000000000000000000000000000000000000000000000",
            "0x000000000000000000000000492c0b9f298cc49fe2644a2ebc6ea8df848c72fb"
          ],
          "data": "0x0000000000000000000000000000000000000000000000000000000002160ec0",
          "blockHash": "0xf29775beb679f774e456e65a7c252a23575c49bdc90bdeb087391c62f72eae9c",
          "blockNumber": "0x2bd8ce8",
          "blockTimestamp": "0x69cc0c08",
          "transactionHash": "0x535d575c80fdb1f2d78e49099b75fd69b0442db94cb6e64889773c04c5d8e813",
          "transactionIndex": "0x2",
          "logIndex": "0x4",
          "removed": false
        },
        {
          "address": "0x014ba821525be6edd25f3ee7c6a37274382c8047",
          "topics": [
            "0xdcbc1c05240f31ff3ad067ef1ee35ce4997762752e3a095284754544f4c709d7",
            "0x000000000000000000000000492c0b9f298cc49fe2644a2ebc6ea8df848c72fb",
            "0x000000000000000000000000492c0b9f298cc49fe2644a2ebc6ea8df848c72fb"
          ],
          "data": "0x0000000000000000000000000000000000000000000000000000000002160ec00000000000000000000000000000000000000000000000000000000002160ec0",
          "blockHash": "0xf29775beb679f774e456e65a7c252a23575c49bdc90bdeb087391c62f72eae9c",
          "blockNumber": "0x2bd8ce8",
          "blockTimestamp": "0x69cc0c08",
          "transactionHash": "0x535d575c80fdb1f2d78e49099b75fd69b0442db94cb6e64889773c04c5d8e813",
          "transactionIndex": "0x2",
          "logIndex": "0x5",
          "removed": false
        },
        {
          "address": "0x014ba821525be6edd25f3ee7c6a37274382c8047",
          "topics": [
            "0x80b61abbfc5f73cfe5cf93cec97a69ed20643dc6c6f1833b05a1560aa164e24c"
          ],
          "data": "0x0000000000000000000000000000000000000000000000000000000002160ec0000000000000000000000000000000000000000000000000000000000000000000000000000000000000000000000000000000000000000000000000000000000000000000000000000000000000000000000000000000000000000002160ec00000000000000000000000000000000000000000033b2e3c9fd0803ce800000000000000000000000000000000000000000000000000000000000000000000000000000000000000000000000000000000000000000000000000000069cc0c08",
          "blockHash": "0xf29775beb679f774e456e65a7c252a23575c49bdc90bdeb087391c62f72eae9c",
          "blockNumber": "0x2bd8ce8",
          "blockTimestamp": "0x69cc0c08",
          "transactionHash": "0x535d575c80fdb1f2d78e49099b75fd69b0442db94cb6e64889773c04c5d8e813",
          "transactionIndex": "0x2",
          "logIndex": "0x6",
          "removed": false
        },
        {
          "address": "0x9b8d1851bcc06ac265c1c1acabd0f71e69dd312c",
          "topics": [
            "0xaea973cfb51ea8ca328767d72f105b5b9d2360c65f5ac4110a2c4470434471c9",
            "0x000000000000000000000000014ba821525be6edd25f3ee7c6a37274382c8047"
          ],
          "data": "0x",
          "blockHash": "0xf29775beb679f774e456e65a7c252a23575c49bdc90bdeb087391c62f72eae9c",
          "blockNumber": "0x2bd8ce8",
          "blockTimestamp": "0x69cc0c08",
          "transactionHash": "0x535d575c80fdb1f2d78e49099b75fd69b0442db94cb6e64889773c04c5d8e813",
          "transactionIndex": "0x2",
          "logIndex": "0x7",
          "removed": false
        }
      ],
      "logsBloom": "0x00000000002000000000000000004000000000000000000000010000000020000000000000000000000000000000000000000000000000000000000000a40000000000400100000000000008000000000000000000000000004200080000000000000000020000000000000000000800080000020004000000000010000000000000010000000000000000000000000000800000000000000000400000040000020000000000000000000000000001000000000000020000400008000000800000040002000004100000000000000000080000000088000000000000000020000010000000000000000000000000000000000000000000000000000000020000",
      "type": "0x0",
      "transactionHash": "0x535d575c80fdb1f2d78e49099b75fd69b0442db94cb6e64889773c04c5d8e813",
      "transactionIndex": "0x2",
      "blockHash": "0xf29775beb679f774e456e65a7c252a23575c49bdc90bdeb087391c62f72eae9c",
      "blockNumber": "0x2bd8ce8",
      "gasUsed": "0x2862d",
      "effectiveGasPrice": "0xf433c",
      "blobGasUsed": "0x9c40",
      "from": "0x492c0b9f298cc49fe2644a2ebc6ea8df848c72fb",
      "to": "0x014ba821525be6edd25f3ee7c6a37274382c8047",
      "contractAddress": null,
      "daFootprintGasScalar": "0x190",
      "l1BaseFeeScalar": "0xc3c9d",
      "l1BlobBaseFee": "0x3",
      "l1BlobBaseFeeScalar": "0x0",
      "l1Fee": "0x113ab",
      "l1GasPrice": "0x37",
      "l1GasUsed": "0x640"
    }
  ],
  "libraries": [],
  "pending": [],
  "returns": {},
  "timestamp": 1774980105234,
  "chain": 763373,
  "commit": "50bfc40"
}