{
  "transactions": [
    {
      "hash": "0x03df09f1d6bc4166d31e386a30dd219a063f9e7103f08b30b3830f46272c1493",
      "transactionType": "CALL",
      "contractName": null,
      "contractAddress": "0x6b57475467cd854d36be7fb614cada5207838943",
      "function": "approve(address,uint256)",
      "arguments": [
        "0x95822416e61Ad6b45Fc45c7540947b6eF080D5a1",
        "5000000"
      ],
      "transaction": {
        "from": "0x492c0b9f298cc49fe2644a2ebc6ea8df848c72fb",
        "to": "0x6b57475467cd854d36be7fb614cada5207838943",
        "gas": "0x10795",
        "value": "0x0",
        "input": "0x095ea7b300000000000000000000000095822416e61ad6b45fc45c7540947b6ef080d5a100000000000000000000000000000000000000000000000000000000004c4b40",
        "nonce": "0x1a",
        "chainId": "0xba5ed"
      },
      "additionalContracts": [],
      "isFixedGasLimit": false
    },
    {
      "hash": "0x2e43db198a1a3e48fa084354be67201b3fcb340b30c02c3907236dc1d27067b3",
      "transactionType": "CALL",
      "contractName": null,
      "contractAddress": "0x95822416e61ad6b45fc45c7540947b6ef080d5a1",
      "function": "deposit(uint256,int32)",
      "arguments": [
        "5000000",
        "40000"
      ],
      "transaction": {
        "from": "0x492c0b9f298cc49fe2644a2ebc6ea8df848c72fb",
        "to": "0x95822416e61ad6b45fc45c7540947b6ef080d5a1",
        "gas": "0x13fd8",
        "value": "0x0",
        "input": "0x4d9fc5aa00000000000000000000000000000000000000000000000000000000004c4b400000000000000000000000000000000000000000000000000000000000009c40",
        "nonce": "0x1b",
        "chainId": "0xba5ed"
      },
      "additionalContracts": [],
      "isFixedGasLimit": false
    },
    {
      "hash": "0x45c8b2d7c9bee2429a1b84e6c735440fbb63e376bca5d318a65aca7adb257b51",
      "transactionType": "CALL",
      "contractName": null,
      "contractAddress": "0x6b57475467cd854d36be7fb614cada5207838943",
      "function": "approve(address,uint256)",
      "arguments": [
        "0x1034259f355566fcE4571F792d239a99BBa1b9b4",
        "7000000"
      ],
      "transaction": {
        "from": "0x492c0b9f298cc49fe2644a2ebc6ea8df848c72fb",
        "to": "0x6b57475467cd854d36be7fb614cada5207838943",
        "gas": "0x10795",
        "value": "0x0",
        "input": "0x095ea7b30000000000000000000000001034259f355566fce4571f792d239a99bba1b9b400000000000000000000000000000000000000000000000000000000006acfc0",
        "nonce": "0x1c",
        "chainId": "0xba5ed"
      },
      "additionalContracts": [],
      "isFixedGasLimit": false
    },
    {
      "hash": "0xb483b1d43e907a6cb99530e5d40cc81250926538a272ce34378b60493783b83f",
      "transactionType": "CALL",
      "contractName": null,
      "contractAddress": "0x1034259f355566fce4571f792d239a99bba1b9b4",
      "function": "deposit(uint256,int32)",
      "arguments": [
        "7000000",
        "-30000"
      ],
      "transaction": {
        "from": "0x492c0b9f298cc49fe2644a2ebc6ea8df848c72fb",
        "to": "0x1034259f355566fce4571f792d239a99bba1b9b4",
        "gas": "0x265ae",
        "value": "0x0",
        "input": "0x4d9fc5aa00000000000000000000000000000000000000000000000000000000006acfc0ffffffffffffffffffffffffffffffffffffffffffffffffffffffffffff8ad0",
        "nonce": "0x1d",
        "chainId": "0xba5ed"
      },
      "additionalContracts": [],
      "isFixedGasLimit": false
    },
    {
      "hash": "0x71c44d96e663b5f371b0e0c6ef12bcbff08dac84c01ee065e75cb906b5c1bfdb",
      "transactionType": "CALL",
      "contractName": null,
      "contractAddress": "0x95822416e61ad6b45fc45c7540947b6ef080d5a1",
      "function": "withdraw(uint256)",
      "arguments": [
        "5000000"
      ],
      "transaction": {
        "from": "0x492c0b9f298cc49fe2644a2ebc6ea8df848c72fb",
        "to": "0x95822416e61ad6b45fc45c7540947b6ef080d5a1",
        "gas": "0x10b4a",
        "value": "0x0",
        "input": "0x2e1a7d4d00000000000000000000000000000000000000000000000000000000004c4b40",
        "nonce": "0x1e",
        "chainId": "0xba5ed"
      },
      "additionalContracts": [],
      "isFixedGasLimit": false
    },
    {
      "hash": "0xdabdfc27b9e0fd8eeac213806c2fbe04cbfc1d2af38d57c00dce16b0d4109701",
      "transactionType": "CALL",
      "contractName": null,
      "contractAddress": "0x6b57475467cd854d36be7fb614cada5207838943",
      "function": "approve(address,uint256)",
      "arguments": [
        "0x95822416e61Ad6b45Fc45c7540947b6eF080D5a1",
        "5000000"
      ],
      "transaction": {
        "from": "0x492c0b9f298cc49fe2644a2ebc6ea8df848c72fb",
        "to": "0x6b57475467cd854d36be7fb614cada5207838943",
        "gas": "0x10795",
        "value": "0x0",
        "input": "0x095ea7b300000000000000000000000095822416e61ad6b45fc45c7540947b6ef080d5a100000000000000000000000000000000000000000000000000000000004c4b40",
        "nonce": "0x1f",
        "chainId": "0xba5ed"
      },
      "additionalContracts": [],
      "isFixedGasLimit": false
    },
    {
      "hash": "0x15d34a8b0e11e4b247809a69d471f06421363cb91502942fd4f59a27b47fe650",
      "transactionType": "CALL",
      "contractName": null,
      "contractAddress": "0x95822416e61ad6b45fc45c7540947b6ef080d5a1",
      "function": "deposit(uint256,int32)",
      "arguments": [
        "5000000",
        "15000"
      ],
      "transaction": {
        "from": "0x492c0b9f298cc49fe2644a2ebc6ea8df848c72fb",
        "to": "0x95822416e61ad6b45fc45c7540947b6ef080d5a1",
        "gas": "0x19c1a",
        "value": "0x0",
        "input": "0x4d9fc5aa00000000000000000000000000000000000000000000000000000000004c4b400000000000000000000000000000000000000000000000000000000000003a98",
        "nonce": "0x20",
        "chainId": "0xba5ed"
      },
      "additionalContracts": [],
      "isFixedGasLimit": false
    },
    {
      "hash": "0x7854bfb2885d578e3f72e20ac2e2f56a190c72504ab26823e9daa97ccb557af1",
      "transactionType": "CALL",
      "contractName": null,
      "contractAddress": "0x95822416e61ad6b45fc45c7540947b6ef080d5a1",
      "function": "withdraw(uint256)",
      "arguments": [
        "5000000"
      ],
      "transaction": {
        "from": "0x492c0b9f298cc49fe2644a2ebc6ea8df848c72fb",
        "to": "0x95822416e61ad6b45fc45c7540947b6ef080d5a1",
        "gas": "0x10b4a",
        "value": "0x0",
        "input": "0x2e1a7d4d00000000000000000000000000000000000000000000000000000000004c4b40",
        "nonce": "0x21",
        "chainId": "0xba5ed"
      },
      "additionalContracts": [],
      "isFixedGasLimit": false
    },
    {
      "hash": "0xba7e26ab6d7ee87714380d39911d61474ffda78a819907d4cde5071d0c2e7fa3",
      "transactionType": "CALL",
      "contractName": null,
      "contractAddress": "0x6b57475467cd854d36be7fb614cada5207838943",
      "function": "approve(address,uint256)",
      "arguments": [
        "0x95822416e61Ad6b45Fc45c7540947b6eF080D5a1",
        "5000000"
      ],
      "transaction": {
        "from": "0x492c0b9f298cc49fe2644a2ebc6ea8df848c72fb",
        "to": "0x6b57475467cd854d36be7fb614cada5207838943",
        "gas": "0x10795",
        "value": "0x0",
        "input": "0x095ea7b300000000000000000000000095822416e61ad6b45fc45c7540947b6ef080d5a100000000000000000000000000000000000000000000000000000000004c4b40",
        "nonce": "0x22",
        "chainId": "0xba5ed"
      },
      "additionalContracts": [],
      "isFixedGasLimit": false
    },
    {
      "hash": "0x36cf2e6200f9475a3a0885dbd3746be96b5ee84aa4ef0483149a48269cef9b2c",
      "transactionType": "CALL",
      "contractName": null,
      "contractAddress": "0x95822416e61ad6b45fc45c7540947b6ef080d5a1",
      "function": "deposit(uint256,int32)",
      "arguments": [
        "5000000",
        "-35000"
      ],
      "transaction": {
        "from": "0x492c0b9f298cc49fe2644a2ebc6ea8df848c72fb",
        "to": "0x95822416e61ad6b45fc45c7540947b6ef080d5a1",
        "gas": "0x19e0c",
        "value": "0x0",
        "input": "0x4d9fc5aa00000000000000000000000000000000000000000000000000000000004c4b40ffffffffffffffffffffffffffffffffffffffffffffffffffffffffffff7748",
        "nonce": "0x23",
        "chainId": "0xba5ed"
      },
      "additionalContracts": [],
      "isFixedGasLimit": false
    },
    {
      "hash": "0x8a365778f701c99c4c1cacaea47a76a660fc0d8c4592b0fc786f072ef50e9846",
      "transactionType": "CALL",
      "contractName": null,
      "contractAddress": "0x1034259f355566fce4571f792d239a99bba1b9b4",
      "function": "withdraw(uint256)",
      "arguments": [
        "3500000"
      ],
      "transaction": {
        "from": "0x492c0b9f298cc49fe2644a2ebc6ea8df848c72fb",
        "to": "0x1034259f355566fce4571f792d239a99bba1b9b4",
        "gas": "0x12525",
        "value": "0x0",
        "input": "0x2e1a7d4d00000000000000000000000000000000000000000000000000000000003567e0",
        "nonce": "0x24",
        "chainId": "0xba5ed"
      },
      "additionalContracts": [],
      "isFixedGasLimit": false
    },
    {
      "hash": "0x0ce241b5526070754ae6228e213a8d7dc8f2f7a7229d1d663f9306496690119e",
      "transactionType": "CALL",
      "contractName": null,
      "contractAddress": "0x95822416e61ad6b45fc45c7540947b6ef080d5a1",
      "function": "withdraw(uint256)",
      "arguments": [
        "5000000"
      ],
      "transaction": {
        "from": "0x492c0b9f298cc49fe2644a2ebc6ea8df848c72fb",
        "to": "0x95822416e61ad6b45fc45c7540947b6ef080d5a1",
        "gas": "0x10b4a",
        "value": "0x0",
        "input": "0x2e1a7d4d00000000000000000000000000000000000000000000000000000000004c4b40",
        "nonce": "0x25",
        "chainId": "0xba5ed"
      },
      "additionalContracts": [],
      "isFixedGasLimit": false
    },
    {
      "hash": "0x6727ea873b42ba8d2cb5233d6dba451c1b32d05ed68de443e044baef9b041517",
      "transactionType": "CALL",
      "contractName": null,
      "contractAddress": "0x1034259f355566fce4571f792d239a99bba1b9b4",
      "function": "withdraw(uint256)",
      "arguments": [
        "3500000"
      ],
      "transaction": {
        "from": "0x492c0b9f298cc49fe2644a2ebc6ea8df848c72fb",
        "to": "0x1034259f355566fce4571f792d239a99bba1b9b4",
        "gas": "0xea8d",
        "value": "0x0",
        "input": "0x2e1a7d4d00000000000000000000000000000000000000000000000000000000003567e0",
        "nonce": "0x26",
        "chainId": "0xba5ed"
      },
      "additionalContracts": [],
      "isFixedGasLimit": false
    }
  ],
  "receipts": [
    {
      "status": "0x1",
      "cumulativeGasUsed": "0x1687d",
      "logs": [
        {
          "address": "0x6b57475467cd854d36be7fb614cada5207838943",
          "topics": [
            "0x8c5be1e5ebec7d5bd14f71427d1e84f3dd0314c0f7b2291e5b200ac8c7c3b925",
            "0x000000000000000000000000492c0b9f298cc49fe2644a2ebc6ea8df848c72fb",
            "0x00000000000000000000000095822416e61ad6b45fc45c7540947b6ef080d5a1"
          ],
          "data": "0x00000000000000000000000000000000000000000000000000000000004c4b40",
          "blockHash": "0x0000000000000000000000000000000000000000000000000000000000000000",
          "blockNumber": "0x2bd8255",
          "blockTimestamp": "0x69cc0175",
          "transactionHash": "0xdabdfc27b9e0fd8eeac213806c2fbe04cbfc1d2af38d57c00dce16b0d4109701",
          "transactionIndex": "0x1",
          "logIndex": "0x0",
          "removed": false
        }
      ],
      "logsBloom": "0x00000000000000000400000000000000000000000000000000000000000000000000000000000000000000000000000000000000040000000000000000240000000000000000000000000000000000000000000000002000000200000000000000000000000000000000000000000000000000020000000000000000000000000000000000000000000000000000000000800000000000000000400000000000020000000000000000000000000000000000000000000000000000000000000000000000000000000000000000000000000000000080000000000000000000000010000000000000000000000000000000000000000000000000000000000000",
      "type": "0x0",
      "transactionHash": "0xdabdfc27b9e0fd8eeac213806c2fbe04cbfc1d2af38d57c00dce16b0d4109701",
      "transactionIndex": "0x1",
      "blockHash": "0x0000000000000000000000000000000000000000000000000000000000000000",
      "blockNumber": "0x2bd8255",
      "gasUsed": "0xb43b",
      "effectiveGasPrice": "0xf433c",
      "blobGasUsed": "0x9c40",
      "from": "0x492c0b9f298cc49fe2644a2ebc6ea8df848c72fb",
      "to": "0x6b57475467cd854d36be7fb614cada5207838943",
      "contractAddress": null,
      "daFootprintGasScalar": "0x190",
      "l1BaseFeeScalar": "0xc3c9d",
      "l1BlobBaseFee": "0x224",
      "l1BlobBaseFeeScalar": "0x0",
      "l1Fee": "0xecce55",
      "l1GasPrice": "0x2f3f",
      "l1GasUsed": "0x640"
    },
    {
      "status": "0x1",
      "cumulativeGasUsed": "0x2500d",
      "logs": [
        {
          "address": "0x6b57475467cd854d36be7fb614cada5207838943",
          "topics": [
            "0x8c5be1e5ebec7d5bd14f71427d1e84f3dd0314c0f7b2291e5b200ac8c7c3b925",
            "0x000000000000000000000000492c0b9f298cc49fe2644a2ebc6ea8df848c72fb",
            "0x00000000000000000000000095822416e61ad6b45fc45c7540947b6ef080d5a1"
          ],
          "data": "0x0000000000000000000000000000000000000000000000000000000000000000",
          "blockHash": "0x0000000000000000000000000000000000000000000000000000000000000000",
          "blockNumber": "0x2bd8255",
          "blockTimestamp": "0x69cc0175",
          "transactionHash": "0x71c44d96e663b5f371b0e0c6ef12bcbff08dac84c01ee065e75cb906b5c1bfdb",
          "transactionIndex": "0x2",
          "logIndex": "0x1",
          "removed": false
        },
        {
          "address": "0x6b57475467cd854d36be7fb614cada5207838943",
          "topics": [
            "0xddf252ad1be2c89b69c2b068fc378daa952ba7f163c4a11628f55a4df523b3ef",
            "0x000000000000000000000000492c0b9f298cc49fe2644a2ebc6ea8df848c72fb",
            "0x00000000000000000000000095822416e61ad6b45fc45c7540947b6ef080d5a1"
          ],
          "data": "0x00000000000000000000000000000000000000000000000000000000004c4b40",
          "blockHash": "0x0000000000000000000000000000000000000000000000000000000000000000",
          "blockNumber": "0x2bd8255",
          "blockTimestamp": "0x69cc0175",
          "transactionHash": "0x71c44d96e663b5f371b0e0c6ef12bcbff08dac84c01ee065e75cb906b5c1bfdb",
          "transactionIndex": "0x2",
          "logIndex": "0x2",
          "removed": false
        },
        {
          "address": "0x95822416e61ad6b45fc45c7540947b6ef080d5a1",
          "topics": [
            "0xbbef0a9c761d4d25dede45445e9943583147e06a4079f801bad987c49b35ef5f",
            "0x000000000000000000000000492c0b9f298cc49fe2644a2ebc6ea8df848c72fb"
          ],
          "data": "0x00000000000000000000000000000000000000000000000000000000004c4b400000000000000000000000000000000000000000000000000000000000009c40",
          "blockHash": "0x0000000000000000000000000000000000000000000000000000000000000000",
          "blockNumber": "0x2bd8255",
          "blockTimestamp": "0x69cc0175",
          "transactionHash": "0x71c44d96e663b5f371b0e0c6ef12bcbff08dac84c01ee065e75cb906b5c1bfdb",
          "transactionIndex": "0x2",
          "logIndex": "0x3",
          "removed": false
        }
      ],
      "logsBloom": "0x00000000000000000400000000000000000000000000000000000000000000000000000000000000000000000000000000000000040000000000000000240000000000000000000000000008000000000100000000002000000200000000000000000000000000000000000000000000000000020000000000000010000000000000000000000000000000000000000000800000000000000000400000000000020000000000000000000000000000000000000000000000000000000040000000000802000000000000000000000800000000000080000000000000000000000010000000000000000000000080001000000000000000000000000000000000",
      "type": "0x0",
      "transactionHash": "0x71c44d96e663b5f371b0e0c6ef12bcbff08dac84c01ee065e75cb906b5c1bfdb",
      "transactionIndex": "0x2",
      "blockHash": "0x0000000000000000000000000000000000000000000000000000000000000000",
      "blockNumber": "0x2bd8255",
      "gasUsed": "0xe790",
      "effectiveGasPrice": "0xf433c",
      "blobGasUsed": "0x9c40",
      "from": "0x492c0b9f298cc49fe2644a2ebc6ea8df848c72fb",
      "to": "0x95822416e61ad6b45fc45c7540947b6ef080d5a1",
      "contractAddress": null,
      "daFootprintGasScalar": "0x190",
      "l1BaseFeeScalar": "0xc3c9d",
      "l1BlobBaseFee": "0x224",
      "l1BlobBaseFeeScalar": "0x0",
      "l1Fee": "0xecce55",
      "l1GasPrice": "0x2f3f",
      "l1GasUsed": "0x640"
    },
    {
      "status": "0x1",
      "cumulativeGasUsed": "0x30448",
      "logs": [
        {
          "address": "0x6b57475467cd854d36be7fb614cada5207838943",
          "topics": [
            "0x8c5be1e5ebec7d5bd14f71427d1e84f3dd0314c0f7b2291e5b200ac8c7c3b925",
            "0x000000000000000000000000492c0b9f298cc49fe2644a2ebc6ea8df848c72fb",
            "0x0000000000000000000000001034259f355566fce4571f792d239a99bba1b9b4"
          ],
          "data": "0x00000000000000000000000000000000000000000000000000000000006acfc0",
          "blockHash": "0x0000000000000000000000000000000000000000000000000000000000000000",
          "blockNumber": "0x2bd8255",
          "blockTimestamp": "0x69cc0175",
          "transactionHash": "0x03df09f1d6bc4166d31e386a30dd219a063f9e7103f08b30b3830f46272c1493",
          "transactionIndex": "0x3",
          "logIndex": "0x4",
          "removed": false
        }
      ],
      "logsBloom": "0x00000000000000000000020000100000000000000000000000000000000000000000000000000000000000000000000000000000000000000000000000240000000000000000000000000000000000000000000000000000000200000000000000000000000000000000000000000000000000020000000000000000000000000000000000000000000000000000000000800000000000000000400000000000020002000000000000000000000000000000000000000000000000000000000000000000000000000000000000000000000000000080000000000000000000000010000000000000000000000000000000000000000000000000000000000000",
      "type": "0x0",
      "transactionHash": "0x03df09f1d6bc4166d31e386a30dd219a063f9e7103f08b30b3830f46272c1493",
      "transactionIndex": "0x3",
      "blockHash": "0x0000000000000000000000000000000000000000000000000000000000000000",
      "blockNumber": "0x2bd8255",
      "gasUsed": "0xb43b",
      "effectiveGasPrice": "0xf433c",
      "blobGasUsed": "0x9c40",
      "from": "0x492c0b9f298cc49fe2644a2ebc6ea8df848c72fb",
      "to": "0x6b57475467cd854d36be7fb614cada5207838943",
      "contractAddress": null,
      "daFootprintGasScalar": "0x190",
      "l1BaseFeeScalar": "0xc3c9d",
      "l1BlobBaseFee": "0x224",
      "l1BlobBaseFeeScalar": "0x0",
      "l1Fee": "0xecce55",
      "l1GasPrice": "0x2f3f",
      "l1GasUsed": "0x640"
    },
    {
      "status": "0x1",
      "cumulativeGasUsed": "0x4c094",
      "logs": [
        {
          "address": "0x6b57475467cd854d36be7fb614cada5207838943",
          "topics": [
            "0x8c5be1e5ebec7d5bd14f71427d1e84f3dd0314c0f7b2291e5b200ac8c7c3b925",
            "0x000000000000000000000000492c0b9f298cc49fe2644a2ebc6ea8df848c72fb",
            "0x0000000000000000000000001034259f355566fce4571f792d239a99bba1b9b4"
          ],
          "data": "0x0000000000000000000000000000000000000000000000000000000000000000",
          "blockHash": "0x0000000000000000000000000000000000000000000000000000000000000000",
          "blockNumber": "0x2bd8255",
          "blockTimestamp": "0x69cc0175",
          "transactionHash": "0xb483b1d43e907a6cb99530e5d40cc81250926538a272ce34378b60493783b83f",
          "transactionIndex": "0x4",
          "logIndex": "0x5",
          "removed": false
        },
        {
          "address": "0x6b57475467cd854d36be7fb614cada5207838943",
          "topics": [
            "0xddf252ad1be2c89b69c2b068fc378daa952ba7f163c4a11628f55a4df523b3ef",
            "0x000000000000000000000000492c0b9f298cc49fe2644a2ebc6ea8df848c72fb",
            "0x0000000000000000000000001034259f355566fce4571f792d239a99bba1b9b4"
          ],
          "data": "0x00000000000000000000000000000000000000000000000000000000006acfc0",
          "blockHash": "0x0000000000000000000000000000000000000000000000000000000000000000",
          "blockNumber": "0x2bd8255",
          "blockTimestamp": "0x69cc0175",
          "transactionHash": "0xb483b1d43e907a6cb99530e5d40cc81250926538a272ce34378b60493783b83f",
          "transactionIndex": "0x4",
          "logIndex": "0x6",
          "removed": false
        },
        {
          "address": "0x1034259f355566fce4571f792d239a99bba1b9b4",
          "topics": [
            "0xbbef0a9c761d4d25dede45445e9943583147e06a4079f801bad987c49b35ef5f",
            "0x000000000000000000000000492c0b9f298cc49fe2644a2ebc6ea8df848c72fb"
          ],
          "data": "0x00000000000000000000000000000000000000000000000000000000006acfc0ffffffffffffffffffffffffffffffffffffffffffffffffffffffffffff8ad0",
          "blockHash": "0x0000000000000000000000000000000000000000000000000000000000000000",
          "blockNumber": "0x2bd8255",
          "blockTimestamp": "0x69cc0175",
          "transactionHash": "0xb483b1d43e907a6cb99530e5d40cc81250926538a272ce34378b60493783b83f",
          "transactionIndex": "0x4",
          "logIndex": "0x7",
          "removed": false
        }
      ],
      "logsBloom": "0x00000000080000000000020000100000000000000000000000000000000000000000000000000000000000000000000000000000000000000000000000240000000000000000000000000008000000000000000000000000000200000000000000000000000000000000000000000000000000020000000000000030000000000000000000000000000000000000000000800000000000000000400000000000020002000000000000000000000000000000000000000000000000000000000000000802000000000000000000000800000000000080000000008000000000000010000000000000000000000080000000000000000000000000000000000000",
      "type": "0x0",
      "transactionHash": "0xb483b1d43e907a6cb99530e5d40cc81250926538a272ce34378b60493783b83f",
      "transactionIndex": "0x4",
      "blockHash": "0x0000000000000000000000000000000000000000000000000000000000000000",
      "blockNumber": "0x2bd8255",
      "gasUsed": "0x1bc4c",
      "effectiveGasPrice": "0xf433c",
      "blobGasUsed": "0x9c40",
      "from": "0x492c0b9f298cc49fe2644a2ebc6ea8df848c72fb",
      "to": "0x1034259f355566fce4571f792d239a99bba1b9b4",
      "contractAddress": null,
      "daFootprintGasScalar": "0x190",
      "l1BaseFeeScalar": "0xc3c9d",
      "l1BlobBaseFee": "0x224",
      "l1BlobBaseFeeScalar": "0x0",
      "l1Fee": "0xecce55",
      "l1GasPrice": "0x2f3f",
      "l1GasUsed": "0x640"
    },
    {
      "status": "0x1",
      "cumulativeGasUsed": "0x58218",
      "logs": [
        {
          "address": "0x6b57475467cd854d36be7fb614cada5207838943",
          "topics": [
            "0xddf252ad1be2c89b69c2b068fc378daa952ba7f163c4a11628f55a4df523b3ef",
            "0x00000000000000000000000095822416e61ad6b45fc45c7540947b6ef080d5a1",
            "0x000000000000000000000000492c0b9f298cc49fe2644a2ebc6ea8df848c72fb"
          ],
          "data": "0x00000000000000000000000000000000000000000000000000000000004c4b40",
          "blockHash": "0x0000000000000000000000000000000000000000000000000000000000000000",
          "blockNumber": "0x2bd8255",
          "blockTimestamp": "0x69cc0175",
          "transactionHash": "0x45c8b2d7c9bee2429a1b84e6c735440fbb63e376bca5d318a65aca7adb257b51",
          "transactionIndex": "0x5",
          "logIndex": "0x8",
          "removed": false
        },
        {
          "address": "0x95822416e61ad6b45fc45c7540947b6ef080d5a1",
          "topics": [
            "0x884edad9ce6fa2440d8a54cc123490eb96d2768479d49ff9c7366125a9424364",
            "0x000000000000000000000000492c0b9f298cc49fe2644a2ebc6ea8df848c72fb"
          ],
          "data": "0x00000000000000000000000000000000000000000000000000000000004c4b40",
          "blockHash": "0x0000000000000000000000000000000000000000000000000000000000000000",
          "blockNumber": "0x2bd8255",
          "blockTimestamp": "0x69cc0175",
          "transactionHash": "0x45c8b2d7c9bee2429a1b84e6c735440fbb63e376bca5d318a65aca7adb257b51",
          "transactionIndex": "0x5",
          "logIndex": "0x9",
          "removed": false
        }
      ],
      "logsBloom": "0x00000000000000000400000000000000000000000000000000100000000000000000000000000000000000000000000000000000040000000000000000040000000000000000000000000008000000000100000000002000000200000000000000000000000000000000000000000000000000020000000000000010000004001000000000000000000000000000000000800000000000000000400000000000000000000000000000000000000000000000000000000000000000000040000000000002000000000000000000000000000000000080000000000000000000000000000000000000000000000000001000000000000000000000000000000000",
      "type": "0x0",
      "transactionHash": "0x45c8b2d7c9bee2429a1b84e6c735440fbb63e376bca5d318a65aca7adb257b51",
      "transactionIndex": "0x5",
      "blockHash": "0x0000000000000000000000000000000000000000000000000000000000000000",
      "blockNumber": "0x2bd8255",
      "gasUsed": "0xc184",
      "effectiveGasPrice": "0xf433c",
      "blobGasUsed": "0x9c40",
      "from": "0x492c0b9f298cc49fe2644a2ebc6ea8df848c72fb",
      "to": "0x95822416e61ad6b45fc45c7540947b6ef080d5a1",
      "contractAddress": null,
      "daFootprintGasScalar": "0x190",
      "l1BaseFeeScalar": "0xc3c9d",
      "l1BlobBaseFee": "0x224",
      "l1BlobBaseFeeScalar": "0x0",
      "l1Fee": "0xecce55",
      "l1GasPrice": "0x2f3f",
      "l1GasUsed": "0x640"
    },
    {
      "status": "0x1",
      "cumulativeGasUsed": "0x63653",
      "logs": [
        {
          "address": "0x6b57475467cd854d36be7fb614cada5207838943",
          "topics": [
            "0x8c5be1e5ebec7d5bd14f71427d1e84f3dd0314c0f7b2291e5b200ac8c7c3b925",
            "0x000000000000000000000000492c0b9f298cc49fe2644a2ebc6ea8df848c72fb",
            "0x00000000000000000000000095822416e61ad6b45fc45c7540947b6ef080d5a1"
          ],
          "data": "0x00000000000000000000000000000000000000000000000000000000004c4b40",
          "blockHash": "0x0000000000000000000000000000000000000000000000000000000000000000",
          "blockNumber": "0x2bd8255",
          "blockTimestamp": "0x69cc0175",
          "transactionHash": "0x7854bfb2885d578e3f72e20ac2e2f56a190c72504ab26823e9daa97ccb557af1",
          "transactionIndex": "0x6",
          "logIndex": "0xa",
          "removed": false
        }
      ],
      "logsBloom": "0x00000000000000000400000000000000000000000000000000000000000000000000000000000000000000000000000000000000040000000000000000240000000000000000000000000000000000000000000000002000000200000000000000000000000000000000000000000000000000020000000000000000000000000000000000000000000000000000000000800000000000000000400000000000020000000000000000000000000000000000000000000000000000000000000000000000000000000000000000000000000000000080000000000000000000000010000000000000000000000000000000000000000000000000000000000000",
      "type": "0x0",
      "transactionHash": "0x7854bfb2885d578e3f72e20ac2e2f56a190c72504ab26823e9daa97ccb557af1",
      "transactionIndex": "0x6",
      "blockHash": "0x0000000000000000000000000000000000000000000000000000000000000000",
      "blockNumber": "0x2bd8255",
      "gasUsed": "0xb43b",
      "effectiveGasPrice": "0xf433c",
      "blobGasUsed": "0x9c40",
      "from": "0x492c0b9f298cc49fe2644a2ebc6ea8df848c72fb",
      "to": "0x6b57475467cd854d36be7fb614cada5207838943",
      "contractAddress": null,
      "daFootprintGasScalar": "0x190",
      "l1BaseFeeScalar": "0xc3c9d",
      "l1BlobBaseFee": "0x224",
      "l1BlobBaseFeeScalar": "0x0",
      "l1Fee": "0xecce55",
      "l1GasPrice": "0x2f3f",
      "l1GasUsed": "0x640"
    },
    {
      "status": "0x1",
      "cumulativeGasUsed": "0x760af",
      "logs": [
        {
          "address": "0x6b57475467cd854d36be7fb614cada5207838943",
          "topics": [
            "0x8c5be1e5ebec7d5bd14f71427d1e84f3dd0314c0f7b2291e5b200ac8c7c3b925",
            "0x000000000000000000000000492c0b9f298cc49fe2644a2ebc6ea8df848c72fb",
            "0x00000000000000000000000095822416e61ad6b45fc45c7540947b6ef080d5a1"
          ],
          "data": "0x0000000000000000000000000000000000000000000000000000000000000000",
          "blockHash": "0x0000000000000000000000000000000000000000000000000000000000000000",
          "blockNumber": "0x2bd8255",
          "blockTimestamp": "0x69cc0175",
          "transactionHash": "0x2e43db198a1a3e48fa084354be67201b3fcb340b30c02c3907236dc1d27067b3",
          "transactionIndex": "0x7",
          "logIndex": "0xb",
          "removed": false
        },
        {
          "address": "0x6b57475467cd854d36be7fb614cada5207838943",
          "topics": [
            "0xddf252ad1be2c89b69c2b068fc378daa952ba7f163c4a11628f55a4df523b3ef",
            "0x000000000000000000000000492c0b9f298cc49fe2644a2ebc6ea8df848c72fb",
            "0x00000000000000000000000095822416e61ad6b45fc45c7540947b6ef080d5a1"
          ],
          "data": "0x00000000000000000000000000000000000000000000000000000000004c4b40",
          "blockHash": "0x0000000000000000000000000000000000000000000000000000000000000000",
          "blockNumber": "0x2bd8255",
          "blockTimestamp": "0x69cc0175",
          "transactionHash": "0x2e43db198a1a3e48fa084354be67201b3fcb340b30c02c3907236dc1d27067b3",
          "transactionIndex": "0x7",
          "logIndex": "0xc",
          "removed": false
        },
        {
          "address": "0x95822416e61ad6b45fc45c7540947b6ef080d5a1",
          "topics": [
            "0xbbef0a9c761d4d25dede45445e9943583147e06a4079f801bad987c49b35ef5f",
            "0x000000000000000000000000492c0b9f298cc49fe2644a2ebc6ea8df848c72fb"
          ],
          "data": "0x00000000000000000000000000000000000000000000000000000000004c4b400000000000000000000000000000000000000000000000000000000000003a98",
          "blockHash": "0x0000000000000000000000000000000000000000000000000000000000000000",
          "blockNumber": "0x2bd8255",
          "blockTimestamp": "0x69cc0175",
          "transactionHash": "0x2e43db198a1a3e48fa084354be67201b3fcb340b30c02c3907236dc1d27067b3",
          "transactionIndex": "0x7",
          "logIndex": "0xd",
          "removed": false
        }
      ],
      "logsBloom": "0x00000000000000000400000000000000000000000000000000000000000000000000000000000000000000000000000000000000040000000000000000240000000000000000000000000008000000000100000000002000000200000000000000000000000000000000000000000000000000020000000000000010000000000000000000000000000000000000000000800000000000000000400000000000020000000000000000000000000000000000000000000000000000000040000000000802000000000000000000000800000000000080000000000000000000000010000000000000000000000080001000000000000000000000000000000000",
      "type": "0x0",
      "transactionHash": "0x2e43db198a1a3e48fa084354be67201b3fcb340b30c02c3907236dc1d27067b3",
      "transactionIndex": "0x7",
      "blockHash": "0x0000000000000000000000000000000000000000000000000000000000000000",
      "blockNumber": "0x2bd8255",
      "gasUsed": "0x12a5c",
      "effectiveGasPrice": "0xf433c",
      "blobGasUsed": "0x9c40",
      "from": "0x492c0b9f298cc49fe2644a2ebc6ea8df848c72fb",
      "to": "0x95822416e61ad6b45fc45c7540947b6ef080d5a1",
      "contractAddress": null,
      "daFootprintGasScalar": "0x190",
      "l1BaseFeeScalar": "0xc3c9d",
      "l1BlobBaseFee": "0x224",
      "l1BlobBaseFeeScalar": "0x0",
      "l1Fee": "0xecce55",
      "l1GasPrice": "0x2f3f",
      "l1GasUsed": "0x640"
    },
    {
      "status": "0x1",
      "cumulativeGasUsed": "0x82233",
      "logs": [
        {
          "address": "0x6b57475467cd854d36be7fb614cada5207838943",
          "topics": [
            "0xddf252ad1be2c89b69c2b068fc378daa952ba7f163c4a11628f55a4df523b3ef",
            "0x00000000000000000000000095822416e61ad6b45fc45c7540947b6ef080d5a1",
            "0x000000000000000000000000492c0b9f298cc49fe2644a2ebc6ea8df848c72fb"
          ],
          "data": "0x00000000000000000000000000000000000000000000000000000000004c4b40",
          "blockHash": "0x0000000000000000000000000000000000000000000000000000000000000000",
          "blockNumber": "0x2bd8255",
          "blockTimestamp": "0x69cc0175",
          "transactionHash": "0x36cf2e6200f9475a3a0885dbd3746be96b5ee84aa4ef0483149a48269cef9b2c",
          "transactionIndex": "0x8",
          "logIndex": "0xe",
          "removed": false
        },
        {
          "address": "0x95822416e61ad6b45fc45c7540947b6ef080d5a1",
          "topics": [
            "0x884edad9ce6fa2440d8a54cc123490eb96d2768479d49ff9c7366125a9424364",
            "0x000000000000000000000000492c0b9f298cc49fe2644a2ebc6ea8df848c72fb"
          ],
          "data": "0x00000000000000000000000000000000000000000000000000000000004c4b40",
          "blockHash": "0x0000000000000000000000000000000000000000000000000000000000000000",
          "blockNumber": "0x2bd8255",
          "blockTimestamp": "0x69cc0175",
          "transactionHash": "0x36cf2e6200f9475a3a0885dbd3746be96b5ee84aa4ef0483149a48269cef9b2c",
          "transactionIndex": "0x8",
          "logIndex": "0xf",
          "removed": false
        }
      ],
      "logsBloom": "0x00000000000000000400000000000000000000000000000000100000000000000000000000000000000000000000000000000000040000000000000000040000000000000000000000000008000000000100000000002000000200000000000000000000000000000000000000000000000000020000000000000010000004001000000000000000000000000000000000800000000000000000400000000000000000000000000000000000000000000000000000000000000000000040000000000002000000000000000000000000000000000080000000000000000000000000000000000000000000000000001000000000000000000000000000000000",
      "type": "0x0",
      "transactionHash": "0x36cf2e6200f9475a3a0885dbd3746be96b5ee84aa4ef0483149a48269cef9b2c",
      "transactionIndex": "0x8",
      "blockHash": "0x0000000000000000000000000000000000000000000000000000000000000000",
      "blockNumber": "0x2bd8255",
      "gasUsed": "0xc184",
      "effectiveGasPrice": "0xf433c",
      "blobGasUsed": "0x9c40",
      "from": "0x492c0b9f298cc49fe2644a2ebc6ea8df848c72fb",
      "to": "0x95822416e61ad6b45fc45c7540947b6ef080d5a1",
      "contractAddress": null,
      "daFootprintGasScalar": "0x190",
      "l1BaseFeeScalar": "0xc3c9d",
      "l1BlobBaseFee": "0x224",
      "l1BlobBaseFeeScalar": "0x0",
      "l1Fee": "0xecce55",
      "l1GasPrice": "0x2f3f",
      "l1GasUsed": "0x640"
    },
    {
      "status": "0x1",
      "cumulativeGasUsed": "0x8d66e",
      "logs": [
        {
          "address": "0x6b57475467cd854d36be7fb614cada5207838943",
          "topics": [
            "0x8c5be1e5ebec7d5bd14f71427d1e84f3dd0314c0f7b2291e5b200ac8c7c3b925",
            "0x000000000000000000000000492c0b9f298cc49fe2644a2ebc6ea8df848c72fb",
            "0x00000000000000000000000095822416e61ad6b45fc45c7540947b6ef080d5a1"
          ],
          "data": "0x00000000000000000000000000000000000000000000000000000000004c4b40",
          "blockHash": "0x0000000000000000000000000000000000000000000000000000000000000000",
          "blockNumber": "0x2bd8255",
          "blockTimestamp": "0x69cc0175",
          "transactionHash": "0x15d34a8b0e11e4b247809a69d471f06421363cb91502942fd4f59a27b47fe650",
          "transactionIndex": "0x9",
          "logIndex": "0x10",
          "removed": false
        }
      ],
      "logsBloom": "0x00000000000000000400000000000000000000000000000000000000000000000000000000000000000000000000000000000000040000000000000000240000000000000000000000000000000000000000000000002000000200000000000000000000000000000000000000000000000000020000000000000000000000000000000000000000000000000000000000800000000000000000400000000000020000000000000000000000000000000000000000000000000000000000000000000000000000000000000000000000000000000080000000000000000000000010000000000000000000000000000000000000000000000000000000000000",
      "type": "0x0",
      "transactionHash": "0x15d34a8b0e11e4b247809a69d471f06421363cb91502942fd4f59a27b47fe650",
      "transactionIndex": "0x9",
      "blockHash": "0x0000000000000000000000000000000000000000000000000000000000000000",
      "blockNumber": "0x2bd8255",
      "gasUsed": "0xb43b",
      "effectiveGasPrice": "0xf433c",
      "blobGasUsed": "0x9c40",
      "from": "0x492c0b9f298cc49fe2644a2ebc6ea8df848c72fb",
      "to": "0x6b57475467cd854d36be7fb614cada5207838943",
      "contractAddress": null,
      "daFootprintGasScalar": "0x190",
      "l1BaseFeeScalar": "0xc3c9d",
      "l1BlobBaseFee": "0x224",
      "l1BlobBaseFeeScalar": "0x0",
      "l1Fee": "0xecce55",
      "l1GasPrice": "0x2f3f",
      "l1GasUsed": "0x640"
    },
    {
      "status": "0x1",
      "cumulativeGasUsed": "0xa0232",
      "logs": [
        {
          "address": "0x6b57475467cd854d36be7fb614cada5207838943",
          "topics": [
            "0x8c5be1e5ebec7d5bd14f71427d1e84f3dd0314c0f7b2291e5b200ac8c7c3b925",
            "0x000000000000000000000000492c0b9f298cc49fe2644a2ebc6ea8df848c72fb",
            "0x00000000000000000000000095822416e61ad6b45fc45c7540947b6ef080d5a1"
          ],
          "data": "0x0000000000000000000000000000000000000000000000000000000000000000",
          "blockHash": "0x0000000000000000000000000000000000000000000000000000000000000000",
          "blockNumber": "0x2bd8255",
          "blockTimestamp": "0x69cc0175",
          "transactionHash": "0xba7e26ab6d7ee87714380d39911d61474ffda78a819907d4cde5071d0c2e7fa3",
          "transactionIndex": "0xa",
          "logIndex": "0x11",
          "removed": false
        },
        {
          "address": "0x6b57475467cd854d36be7fb614cada5207838943",
          "topics": [
            "0xddf252ad1be2c89b69c2b068fc378daa952ba7f163c4a11628f55a4df523b3ef",
            "0x000000000000000000000000492c0b9f298cc49fe2644a2ebc6ea8df848c72fb",
            "0x00000000000000000000000095822416e61ad6b45fc45c7540947b6ef080d5a1"
          ],
          "data": "0x00000000000000000000000000000000000000000000000000000000004c4b40",
          "blockHash": "0x0000000000000000000000000000000000000000000000000000000000000000",
          "blockNumber": "0x2bd8255",
          "blockTimestamp": "0x69cc0175",
          "transactionHash": "0xba7e26ab6d7ee87714380d39911d61474ffda78a819907d4cde5071d0c2e7fa3",
          "transactionIndex": "0xa",
          "logIndex": "0x12",
          "removed": false
        },
        {
          "address": "0x95822416e61ad6b45fc45c7540947b6ef080d5a1",
          "topics": [
            "0xbbef0a9c761d4d25dede45445e9943583147e06a4079f801bad987c49b35ef5f",
            "0x000000000000000000000000492c0b9f298cc49fe2644a2ebc6ea8df848c72fb"
          ],
          "data": "0x00000000000000000000000000000000000000000000000000000000004c4b40ffffffffffffffffffffffffffffffffffffffffffffffffffffffffffff7748",
          "blockHash": "0x0000000000000000000000000000000000000000000000000000000000000000",
          "blockNumber": "0x2bd8255",
          "blockTimestamp": "0x69cc0175",
          "transactionHash": "0xba7e26ab6d7ee87714380d39911d61474ffda78a819907d4cde5071d0c2e7fa3",
          "transactionIndex": "0xa",
          "logIndex": "0x13",
          "removed": false
        }
      ],
      "logsBloom": "0x00000000000000000400000000000000000000000000000000000000000000000000000000000000000000000000000000000000040000000000000000240000000000000000000000000008000000000100000000002000000200000000000000000000000000000000000000000000000000020000000000000010000000000000000000000000000000000000000000800000000000000000400000000000020000000000000000000000000000000000000000000000000000000040000000000802000000000000000000000800000000000080000000000000000000000010000000000000000000000080001000000000000000000000000000000000",
      "type": "0x0",
      "transactionHash": "0xba7e26ab6d7ee87714380d39911d61474ffda78a819907d4cde5071d0c2e7fa3",
      "transactionIndex": "0xa",
      "blockHash": "0x0000000000000000000000000000000000000000000000000000000000000000",
      "blockNumber": "0x2bd8255",
      "gasUsed": "0x12bc4",
      "effectiveGasPrice": "0xf433c",
      "blobGasUsed": "0x9c40",
      "from": "0x492c0b9f298cc49fe2644a2ebc6ea8df848c72fb",
      "to": "0x95822416e61ad6b45fc45c7540947b6ef080d5a1",
      "contractAddress": null,
      "daFootprintGasScalar": "0x190",
      "l1BaseFeeScalar": "0xc3c9d",
      "l1BlobBaseFee": "0x224",
      "l1BlobBaseFeeScalar": "0x0",
      "l1Fee": "0xecce55",
      "l1GasPrice": "0x2f3f",
      "l1GasUsed": "0x640"
    },
    {
      "status": "0x1",
      "cumulativeGasUsed": "0xacaa3",
      "logs": [
        {
          "address": "0x6b57475467cd854d36be7fb614cada5207838943",
          "topics": [
            "0xddf252ad1be2c89b69c2b068fc378daa952ba7f163c4a11628f55a4df523b3ef",
            "0x0000000000000000000000001034259f355566fce4571f792d239a99bba1b9b4",
            "0x000000000000000000000000492c0b9f298cc49fe2644a2ebc6ea8df848c72fb"
          ],
          "data": "0x00000000000000000000000000000000000000000000000000000000003567e0",
          "blockHash": "0x0000000000000000000000000000000000000000000000000000000000000000",
          "blockNumber": "0x2bd8255",
          "blockTimestamp": "0x69cc0175",
          "transactionHash": "0x6727ea873b42ba8d2cb5233d6dba451c1b32d05ed68de443e044baef9b041517",
          "transactionIndex": "0xb",
          "logIndex": "0x14",
          "removed": false
        },
        {
          "address": "0x1034259f355566fce4571f792d239a99bba1b9b4",
          "topics": [
            "0x884edad9ce6fa2440d8a54cc123490eb96d2768479d49ff9c7366125a9424364",
            "0x000000000000000000000000492c0b9f298cc49fe2644a2ebc6ea8df848c72fb"
          ],
          "data": "0x00000000000000000000000000000000000000000000000000000000003567e0",
          "blockHash": "0x0000000000000000000000000000000000000000000000000000000000000000",
          "blockNumber": "0x2bd8255",
          "blockTimestamp": "0x69cc0175",
          "transactionHash": "0x6727ea873b42ba8d2cb5233d6dba451c1b32d05ed68de443e044baef9b041517",
          "transactionIndex": "0xb",
          "logIndex": "0x15",
          "removed": false
        }
      ],
      "logsBloom": "0x00000000080000000000020000100000000000000000000000100000000000000000000000000000000000000000000000000000000000000000000000040000000000000000000000000008000000000000000000000000000200000000000000000000000000000000000000000000000000020000000000000030000004001000000000000000000000000000000000800000000000000000400000000000000002000000000000000000000000000000000000000000000000000000000000000002000000000000000000000000000000000080000000008000000000000000000000000000000000000000000000000000000000000000000000000000",
      "type": "0x0",
      "transactionHash": "0x6727ea873b42ba8d2cb5233d6dba451c1b32d05ed68de443e044baef9b041517",
      "transactionIndex": "0xb",
      "blockHash": "0x0000000000000000000000000000000000000000000000000000000000000000",
      "blockNumber": "0x2bd8255",
      "gasUsed": "0xc871",
      "effectiveGasPrice": "0xf433c",
      "blobGasUsed": "0x9c40",
      "from": "0x492c0b9f298cc49fe2644a2ebc6ea8df848c72fb",
      "to": "0x1034259f355566fce4571f792d239a99bba1b9b4",
      "contractAddress": null,
      "daFootprintGasScalar": "0x190",
      "l1BaseFeeScalar": "0xc3c9d",
      "l1BlobBaseFee": "0x224",
      "l1BlobBaseFeeScalar": "0x0",
      "l1Fee": "0xecce55",
      "l1GasPrice": "0x2f3f",
      "l1GasUsed": "0x640"
    },
    {
      "status": "0x1",
      "cumulativeGasUsed": "0xb8c27",
      "logs": [
        {
          "address": "0x6b57475467cd854d36be7fb614cada5207838943",
          "topics": [
            "0xddf252ad1be2c89b69c2b068fc378daa952ba7f163c4a11628f55a4df523b3ef",
            "0x00000000000000000000000095822416e61ad6b45fc45c7540947b6ef080d5a1",
            "0x000000000000000000000000492c0b9f298cc49fe2644a2ebc6ea8df848c72fb"
          ],
          "data": "0x00000000000000000000000000000000000000000000000000000000004c4b40",
          "blockHash": "0x0000000000000000000000000000000000000000000000000000000000000000",
          "blockNumber": "0x2bd8255",
          "blockTimestamp": "0x69cc0175",
          "transactionHash": "0x8a365778f701c99c4c1cacaea47a76a660fc0d8c4592b0fc786f072ef50e9846",
          "transactionIndex": "0xc",
          "logIndex": "0x16",
          "removed": false
        },
        {
          "address": "0x95822416e61ad6b45fc45c7540947b6ef080d5a1",
          "topics": [
            "0x884edad9ce6fa2440d8a54cc123490eb96d2768479d49ff9c7366125a9424364",
            "0x000000000000000000000000492c0b9f298cc49fe2644a2ebc6ea8df848c72fb"
          ],
          "data": "0x00000000000000000000000000000000000000000000000000000000004c4b40",
          "blockHash": "0x0000000000000000000000000000000000000000000000000000000000000000",
          "blockNumber": "0x2bd8255",
          "blockTimestamp": "0x69cc0175",
          "transactionHash": "0x8a365778f701c99c4c1cacaea47a76a660fc0d8c4592b0fc786f072ef50e9846",
          "transactionIndex": "0xc",
          "logIndex": "0x17",
          "removed": false
        }
      ],
      "logsBloom": "0x00000000000000000400000000000000000000000000000000100000000000000000000000000000000000000000000000000000040000000000000000040000000000000000000000000008000000000100000000002000000200000000000000000000000000000000000000000000000000020000000000000010000004001000000000000000000000000000000000800000000000000000400000000000000000000000000000000000000000000000000000000000000000000040000000000002000000000000000000000000000000000080000000000000000000000000000000000000000000000000001000000000000000000000000000000000",
      "type": "0x0",
      "transactionHash": "0x8a365778f701c99c4c1cacaea47a76a660fc0d8c4592b0fc786f072ef50e9846",
      "transactionIndex": "0xc",
      "blockHash": "0x0000000000000000000000000000000000000000000000000000000000000000",
      "blockNumber": "0x2bd8255",
      "gasUsed": "0xc184",
      "effectiveGasPrice": "0xf433c",
      "blobGasUsed": "0x9c40",
      "from": "0x492c0b9f298cc49fe2644a2ebc6ea8df848c72fb",
      "to": "0x95822416e61ad6b45fc45c7540947b6ef080d5a1",
      "contractAddress": null,
      "daFootprintGasScalar": "0x190",
      "l1BaseFeeScalar": "0xc3c9d",
      "l1BlobBaseFee": "0x224",
      "l1BlobBaseFeeScalar": "0x0",
      "l1Fee": "0xecce55",
      "l1GasPrice": "0x2f3f",
      "l1GasUsed": "0x640"
    },
    {
      "status": "0x1",
      "cumulativeGasUsed": "0xc35f7",
      "logs": [
        {
          "address": "0x6b57475467cd854d36be7fb614cada5207838943",
          "topics": [
            "0xddf252ad1be2c89b69c2b068fc378daa952ba7f163c4a11628f55a4df523b3ef",
            "0x0000000000000000000000001034259f355566fce4571f792d239a99bba1b9b4",
            "0x000000000000000000000000492c0b9f298cc49fe2644a2ebc6ea8df848c72fb"
          ],
          "data": "0x00000000000000000000000000000000000000000000000000000000003567e0",
          "blockHash": "0x0000000000000000000000000000000000000000000000000000000000000000",
          "blockNumber": "0x2bd8255",
          "blockTimestamp": "0x69cc0175",
          "transactionHash": "0x0ce241b5526070754ae6228e213a8d7dc8f2f7a7229d1d663f9306496690119e",
          "transactionIndex": "0xd",
          "logIndex": "0x18",
          "removed": false
        },
        {
          "address": "0x1034259f355566fce4571f792d239a99bba1b9b4",
          "topics": [
            "0x884edad9ce6fa2440d8a54cc123490eb96d2768479d49ff9c7366125a9424364",
            "0x000000000000000000000000492c0b9f298cc49fe2644a2ebc6ea8df848c72fb"
          ],
          "data": "0x00000000000000000000000000000000000000000000000000000000003567e0",
          "blockHash": "0x0000000000000000000000000000000000000000000000000000000000000000",
          "blockNumber": "0x2bd8255",
          "blockTimestamp": "0x69cc0175",
          "transactionHash": "0x0ce241b5526070754ae6228e213a8d7dc8f2f7a7229d1d663f9306496690119e",
          "transactionIndex": "0xd",
          "logIndex": "0x19",
          "removed": false
        }
      ],
      "logsBloom": "0x00000000080000000000020000100000000000000000000000100000000000000000000000000000000000000000000000000000000000000000000000040000000000000000000000000008000000000000000000000000000200000000000000000000000000000000000000000000000000020000000000000030000004001000000000000000000000000000000000800000000000000000400000000000000002000000000000000000000000000000000000000000000000000000000000000002000000000000000000000000000000000080000000008000000000000000000000000000000000000000000000000000000000000000000000000000",
      "type": "0x0",
      "transactionHash": "0x0ce241b5526070754ae6228e213a8d7dc8f2f7a7229d1d663f9306496690119e",
      "transactionIndex": "0xd",
      "blockHash": "0x0000000000000000000000000000000000000000000000000000000000000000",
      "blockNumber": "0x2bd8255",
      "gasUsed": "0xa9d0",
      "effectiveGasPrice": "0xf433c",
      "blobGasUsed": "0x9c40",
      "from": "0x492c0b9f298cc49fe2644a2ebc6ea8df848c72fb",
      "to": "0x1034259f355566fce4571f792d239a99bba1b9b4",
      "contractAddress": null,
      "daFootprintGasScalar": "0x190",
      "l1BaseFeeScalar": "0xc3c9d",
      "l1BlobBaseFee": "0x224",
      "l1BlobBaseFeeScalar": "0x0",
      "l1Fee": "0xecce55",
      "l1GasPrice": "0x2f3f",
      "l1GasUsed": "0x640"
    }
  ],
  "libraries": [],
  "pending": [],
  "returns": {},
  "timestamp": 1774977396178,
  "chain": 763373,
  "commit": "5b98b42"
}