{
  "transactions": [
    {
      "hash": "0xfeba4dbe625e7ca286b9d9c192cba3aab9ac729c1e8b144ebbdc246029ff412e",
      "transactionType": "CALL",
      "contractName": null,
      "contractAddress": "0x014ba821525be6edd25f3ee7c6a37274382c8047",
      "function": "redeem(uint256,address,address)",
      "arguments": [
        "35000000",
        "0x492c0b9F298cC49FE2644a2EBc6eA8dF848c72FB",
        "0x492c0b9F298cC49FE2644a2EBc6eA8dF848c72FB"
      ],
      "transaction": {
        "from": "0x492c0b9f298cc49fe2644a2ebc6ea8df848c72fb",
        "to": "0x014ba821525be6edd25f3ee7c6a37274382c8047",
        "gas": "0x2dc0a",
        "value": "0x0",
        "input": "0xba0876520000000000000000000000000000000000000000000000000000000002160ec0000000000000000000000000492c0b9f298cc49fe2644a2ebc6ea8df848c72fb000000000000000000000000492c0b9f298cc49fe2644a2ebc6ea8df848c72fb",
        "nonce": "0x64",
        "chainId": "0xba5ed"
      },
      "additionalContracts": [],
      "isFixedGasLimit": false
    }
  ],
  "receipts": [
    {
      "status": "0x1",
      "cumulativeGasUsed": "0x2a92c",
      "logs": [
        {
          "address": "0x9b8d1851bcc06ac265c1c1acabd0f71e69dd312c",
          "topics": [
            "0x6e9738e5aa38fe1517adbb480351ec386ece82947737b18badbcad1e911133ec",
            "0x000000000000000000000000014ba821525be6edd25f3ee7c6a37274382c8047",
            "0x492c0b9f298cc49fe2644a2ebc6ea8df848c7200000000000000000000000000",
            "0x000000000000000000000000014ba821525be6edd25f3ee7c6a37274382c8047"
          ],
          "data": "0x000000000000000000000000492c0b9f298cc49fe2644a2ebc6ea8df848c72fbba08765200000000000000000000000000000000000000000000000000000000",
          "blockHash": "0x9c0302d91c5797b63c142996c39ecbaebd5794978a0fd5376f66ba3396425353",
          "blockNumber": "0x2bd8d64",
          "blockTimestamp": "0x69cc0c84",
          "transactionHash": "0xfeba4dbe625e7ca286b9d9c192cba3aab9ac729c1e8b144ebbdc246029ff412e",
          "transactionIndex": "0x1",
          "logIndex": "0x0",
          "removed": false
        },
        {
          "address": "0x014ba821525be6edd25f3ee7c6a37274382c8047",
          "topics": [
            "0xddf252ad1be2c89b69c2b068fc378daa952ba7f163c4a11628f55a4df523b3ef",
            "0x000000000000000000000000492c0b9f298cc49fe2644a2ebc6ea8df848c72fb",
            "0x0000000000000000000000000000000000000000000000000000000000000000"
          ],
          "data": "0x0000000000000000000000000000000000000000000000000000000002160ec0",
          "blockHash": "0x9c0302d91c5797b63c142996c39ecbaebd5794978a0fd5376f66ba3396425353",
          "blockNumber": "0x2bd8d64",
          "blockTimestamp": "0x69cc0c84",
          "transactionHash": "0xfeba4dbe625e7ca286b9d9c192cba3aab9ac729c1e8b144ebbdc246029ff412e",
          "transactionIndex": "0x1",
          "logIndex": "0x1",
          "removed": false
        },
        {
          "address": "0x014ba821525be6edd25f3ee7c6a37274382c8047",
          "topics": [
            "0xfbde797d201c681b91056529119e0b02407c7bb96a4a2c75c01fc9667232c8db",
            "0x000000000000000000000000492c0b9f298cc49fe2644a2ebc6ea8df848c72fb",
            "0x000000000000000000000000492c0b9f298cc49fe2644a2ebc6ea8df848c72fb",
            "0x000000000000000000000000492c0b9f298cc49fe2644a2ebc6ea8df848c72fb"
          ],
          "data": "0x0000000000000000000000000000000000000000000000000000000002160ec00000000000000000000000000000000000000000000000000000000002160ec0",
          "blockHash": "0x9c0302d91c5797b63c142996c39ecbaebd5794978a0fd5376f66ba3396425353",
          "blockNumber": "0x2bd8d64",
          "blockTimestamp": "0x69cc0c84",
          "transactionHash": "0xfeba4dbe625e7ca286b9d9c192cba3aab9ac729c1e8b144ebbdc246029ff412e",
          "transactionIndex": "0x1",
          "logIndex": "0x2",
          "removed": false
        },
        {
          "address": "0x6b57475467cd854d36be7fb614cada5207838943",
          "topics": [
            "0xddf252ad1be2c89b69c2b068fc378daa952ba7f163c4a11628f55a4df523b3ef",
            "0x000000000000000000000000014ba821525be6edd25f3ee7c6a37274382c8047",
            "0x000000000000000000000000492c0b9f298cc49fe2644a2ebc6ea8df848c72fb"
          ],
          "data": "0x0000000000000000000000000000000000000000000000000000000002160ec0",
          "blockHash": "0x9c0302d91c5797b63c142996c39ecbaebd5794978a0fd5376f66ba3396425353",
          "blockNumber": "0x2bd8d64",
          "blockTimestamp": "0x69cc0c84",
          "transactionHash": "0xfeba4dbe625e7ca286b9d9c192cba3aab9ac729c1e8b144ebbdc246029ff412e",
          "transactionIndex": "0x1",
          "logIndex": "0x3",
          "removed": false
        },
        {
          "address": "0x014ba821525be6edd25f3ee7c6a37274382c8047",
          "topics": [
            "0x80b61abbfc5f73cfe5cf93cec97a69ed20643dc6c6f1833b05a1560aa164e24c"
          ],
          "data": "0x00000000000000000000000000000000000000000000000000000000000000000000000000000000000000000000000000000000000000000000000000000000000000000000000000000000000000000000000000000000000000000000000000000000000000000000000000000000000000000000000000000000000000000000000000000000000000000000000000000000033b2e3c9fd0803ce800000000000000000000000000000000000000000000000000000000000000000000000000000000000000000000000000000000000000000000000000000069cc0c84",
          "blockHash": "0x9c0302d91c5797b63c142996c39ecbaebd5794978a0fd5376f66ba3396425353",
          "blockNumber": "0x2bd8d64",
          "blockTimestamp": "0x69cc0c84",
          "transactionHash": "0xfeba4dbe625e7ca286b9d9c192cba3aab9ac729c1e8b144ebbdc246029ff412e",
          "transactionIndex": "0x1",
          "logIndex": "0x4",
          "removed": false
        },
        {
          "address": "0x9b8d1851bcc06ac265c1c1acabd0f71e69dd312c",
          "topics": [
            "0xaea973cfb51ea8ca328767d72f105b5b9d2360c65f5ac4110a2c4470434471c9",
            "0x000000000000000000000000014ba821525be6edd25f3ee7c6a37274382c8047"
          ],
          "data": "0x",
          "blockHash": "0x9c0302d91c5797b63c142996c39ecbaebd5794978a0fd5376f66ba3396425353",
          "blockNumber": "0x2bd8d64",
          "blockTimestamp": "0x69cc0c84",
          "transactionHash": "0xfeba4dbe625e7ca286b9d9c192cba3aab9ac729c1e8b144ebbdc246029ff412e",
          "transactionIndex": "0x1",
          "logIndex": "0x5",
          "removed": false
        }
      ],
      "logsBloom": "0x00000000002000400000000000004000000000000000000000010000000020000000000000000000000000000000000000000000000000000000000000840000000000000100000000000008000000000000000000000000004200080000000000000000020000000000000000000800080000020000000000000010000000000000010000000000000000000000000000800000000000000000400000040000000000000000000000000000000001020000000000020000400008000000800000040002000004100000000000000000080000000080000000000000000020000000000000000000000000000000000000000000000000000000000000020000",
      "type": "0x0",
      "transactionHash": "0xfeba4dbe625e7ca286b9d9c192cba3aab9ac729c1e8b144ebbdc246029ff412e",
      "transactionIndex": "0x1",
      "blockHash": "0x9c0302d91c5797b63c142996c39ecbaebd5794978a0fd5376f66ba3396425353",
      "blockNumber": "0x2bd8d64",
      "gasUsed": "0x1f502",
      "effectiveGasPrice": "0xf433c",
      "blobGasUsed": "0x9c40",
      "from": "0x492c0b9f298cc49fe2644a2ebc6ea8df848c72fb",
      "to": "0x014ba821525be6edd25f3ee7c6a37274382c8047",
      "contractAddress": null,
      "daFootprintGasScalar": "0x190",
      "l1BaseFeeScalar": "0xc3c9d",
      "l1BlobBaseFee": "0x2",
      "l1BlobBaseFeeScalar": "0x0",
      "l1Fee": "0xbe76",
      "l1GasPrice": "0x26",
      "l1GasUsed": "0x640"
    }
  ],
  "libraries": [],
  "pending": [],
  "returns": {},
  "timestamp": 1774980229164,
  "chain": 763373,
  "commit": "50bfc40"
}