{
  "transactions": [
    {
      "hash": "0x6590b721a2bdb784dd71e74ad0cd753b011725257b0831135bd7fe0cd6faa6ec",
      "transactionType": "CALL",
      "contractName": null,
      "contractAddress": "0xe5b808f4317b0fb00ae38ec8592e43117a8b7390",
      "function": "setHookConfig(address,uint32)",
      "arguments": [
        "0x0000000000000000000000000000000000000000",
        "0"
      ],
      "transaction": {
        "from": "0x492c0b9f298cc49fe2644a2ebc6ea8df848c72fb",
        "to": "0xe5b808f4317b0fb00ae38ec8592e43117a8b7390",
        "gas": "0xf8db",
        "value": "0x0",
        "input": "0xd1a3a30800000000000000000000000000000000000000000000000000000000000000000000000000000000000000000000000000000000000000000000000000000000",
        "nonce": "0x119",
        "chainId": "0xba5ed"
      },
      "additionalContracts": [],
      "isFixedGasLimit": false
    },
    {
      "hash": "0x7eddbe29f7c99d16504baaba92f5ee7df82c906825ee4cea751c7d63e694759e",
      "transactionType": "CALL",
      "contractName": null,
      "contractAddress": "0xe5b808f4317b0fb00ae38ec8592e43117a8b7390",
      "function": "setCaps(uint16,uint16)",
      "arguments": [
        "0",
        "0"
      ],
      "transaction": {
        "from": "0x492c0b9f298cc49fe2644a2ebc6ea8df848c72fb",
        "to": "0xe5b808f4317b0fb00ae38ec8592e43117a8b7390",
        "gas": "0xec12",
        "value": "0x0",
        "input": "0xd87f780f00000000000000000000000000000000000000000000000000000000000000000000000000000000000000000000000000000000000000000000000000000000",
        "nonce": "0x11a",
        "chainId": "0xba5ed"
      },
      "additionalContracts": [],
      "isFixedGasLimit": false
    }
  ],
  "receipts": [
    {
      "status": "0x1",
      "cumulativeGasUsed": "0x16886",
      "logs": [
        {
          "address": "0xe5b808f4317b0fb00ae38ec8592e43117a8b7390",
          "topics": [
            "0xabadffb695acdb6863cd1324a91e5c359712b9110a55f9103774e2fb67dedb6a",
            "0x0000000000000000000000000000000000000000000000000000000000000000"
          ],
          "data": "0x0000000000000000000000000000000000000000000000000000000000000000",
          "blockHash": "0x0000000000000000000000000000000000000000000000000000000000000000",
          "blockNumber": "0x2bed008",
          "blockTimestamp": "0x69cd4f28",
          "transactionHash": "0x6590b721a2bdb784dd71e74ad0cd753b011725257b0831135bd7fe0cd6faa6ec",
          "transactionIndex": "0x1",
          "logIndex": "0x0",
          "removed": false
        }
      ],
      "logsBloom": "0x00000000000000000000000000000000020000000000000100000000000000000000000000000000000000000000000000000000000000000000000000000000000000000000000000002000000000000000000000000000000002000000000000000000020000000000000000000800000000000000000000000000000000000000000000000000000000000000000000000000000000000000000000000000000000000000000000000000000000000000000002000000000000000000000000000000000000000000000000000000000000000000000000000000000020000000000000000000000000000000000000000002000000000000000000000000",
      "type": "0x0",
      "transactionHash": "0x6590b721a2bdb784dd71e74ad0cd753b011725257b0831135bd7fe0cd6faa6ec",
      "transactionIndex": "0x1",
      "blockHash": "0x0000000000000000000000000000000000000000000000000000000000000000",
      "blockNumber": "0x2bed008",
      "gasUsed": "0xb42c",
      "effectiveGasPrice": "0xf433d",
      "blobGasUsed": "0x9c40",
      "from": "0x492c0b9f298cc49fe2644a2ebc6ea8df848c72fb",
      "to": "0xe5b808f4317b0fb00ae38ec8592e43117a8b7390",
      "contractAddress": null,
      "daFootprintGasScalar": "0x190",
      "l1BaseFeeScalar": "0xc3c9d",
      "l1BlobBaseFee": "0x33c27",
      "l1BlobBaseFeeScalar": "0x0",
      "l1Fee": "0xed3a221e",
      "l1GasPrice": "0x2f5482",
      "l1GasUsed": "0x640"
    },
    {
      "status": "0x1",
      "cumulativeGasUsed": "0x209f1",
      "logs": [
        {
          "address": "0xe5b808f4317b0fb00ae38ec8592e43117a8b7390",
          "topics": [
            "0xadbdcd178dfddc478805a3703b6cf3b72ca5e78ecebacffe1aad03188cc1cbf4"
          ],
          "data": "0x00000000000000000000000000000000000000000000000000000000000000000000000000000000000000000000000000000000000000000000000000000000",
          "blockHash": "0x0000000000000000000000000000000000000000000000000000000000000000",
          "blockNumber": "0x2bed008",
          "blockTimestamp": "0x69cd4f28",
          "transactionHash": "0x7eddbe29f7c99d16504baaba92f5ee7df82c906825ee4cea751c7d63e694759e",
          "transactionIndex": "0x2",
          "logIndex": "0x1",
          "removed": false
        }
      ],
      "logsBloom": "0x00000000000000000000000000000100020000000000000000000000000000000000000000000000000000000000000000000000000000000000000000000000000000000000000000000000000000000000000000000000000000000000000000000000000000000000000000000000000000004000000000000000000000000000000000000000000000000000000000000000000000000000000000000000000000000000000000000000000000000000000002000000000000000000000000000000000000000000000000000000000000000000000000000000000000000000000000000000000000000000000000000002000000000000800000000000",
      "type": "0x0",
      "transactionHash": "0x7eddbe29f7c99d16504baaba92f5ee7df82c906825ee4cea751c7d63e694759e",
      "transactionIndex": "0x2",
      "blockHash": "0x0000000000000000000000000000000000000000000000000000000000000000",
      "blockNumber": "0x2bed008",
      "gasUsed": "0xa16b",
      "effectiveGasPrice": "0xf433d",
      "blobGasUsed": "0x9c40",
      "from": "0x492c0b9f298cc49fe2644a2ebc6ea8df848c72fb",
      "to": "0xe5b808f4317b0fb00ae38ec8592e43117a8b7390",
      "contractAddress": null,
      "daFootprintGasScalar": "0x190",
      "l1BaseFeeScalar": "0xc3c9d",
      "l1BlobBaseFee": "0x33c27",
      "l1BlobBaseFeeScalar": "0x0",
      "l1Fee": "0xed3a221e",
      "l1GasPrice": "0x2f5482",
      "l1GasUsed": "0x640"
    }
  ],
  "libraries": [],
  "pending": [],
  "returns": {},
  "timestamp": 1775062823433,
  "chain": 763373,
  "commit": "9ffe1d9"
}