{
  "transactions": [
    {
      "hash": "0xc8ac92213ae7fabbf3d0ff836c8d353bfe7474e81c35ba449657e2e8a6828708",
      "transactionType": "CALL",
      "contractName": null,
      "contractAddress": "0xe5b808f4317b0fb00ae38ec8592e43117a8b7390",
      "function": "setCaps(uint16,uint16)",
      "arguments": [
        "0",
        "0"
      ],
      "transaction": {
        "from": "0x492c0b9f298cc49fe2644a2ebc6ea8df848c72fb",
        "to": "0xe5b808f4317b0fb00ae38ec8592e43117a8b7390",
        "gas": "0xec12",
        "value": "0x0",
        "input": "0xd87f780f00000000000000000000000000000000000000000000000000000000000000000000000000000000000000000000000000000000000000000000000000000000",
        "nonce": "0x118",
        "chainId": "0xba5ed"
      },
      "additionalContracts": [],
      "isFixedGasLimit": false
    }
  ],
  "receipts": [
    {
      "status": "0x1",
      "cumulativeGasUsed": "0x155c5",
      "logs": [
        {
          "address": "0xe5b808f4317b0fb00ae38ec8592e43117a8b7390",
          "topics": [
            "0xadbdcd178dfddc478805a3703b6cf3b72ca5e78ecebacffe1aad03188cc1cbf4"
          ],
          "data": "0x00000000000000000000000000000000000000000000000000000000000000000000000000000000000000000000000000000000000000000000000000000000",
          "blockHash": "0x0000000000000000000000000000000000000000000000000000000000000000",
          "blockNumber": "0x2becfbd",
          "blockTimestamp": "0x69cd4edd",
          "transactionHash": "0xc8ac92213ae7fabbf3d0ff836c8d353bfe7474e81c35ba449657e2e8a6828708",
          "transactionIndex": "0x1",
          "logIndex": "0x0",
          "removed": false
        }
      ],
      "logsBloom": "0x00000000000000000000000000000100020000000000000000000000000000000000000000000000000000000000000000000000000000000000000000000000000000000000000000000000000000000000000000000000000000000000000000000000000000000000000000000000000000004000000000000000000000000000000000000000000000000000000000000000000000000000000000000000000000000000000000000000000000000000000002000000000000000000000000000000000000000000000000000000000000000000000000000000000000000000000000000000000000000000000000000002000000000000800000000000",
      "type": "0x0",
      "transactionHash": "0xc8ac92213ae7fabbf3d0ff836c8d353bfe7474e81c35ba449657e2e8a6828708",
      "transactionIndex": "0x1",
      "blockHash": "0x0000000000000000000000000000000000000000000000000000000000000000",
      "blockNumber": "0x2becfbd",
      "gasUsed": "0xa16b",
      "effectiveGasPrice": "0xf433c",
      "blobGasUsed": "0x9c40",
      "from": "0x492c0b9f298cc49fe2644a2ebc6ea8df848c72fb",
      "to": "0xe5b808f4317b0fb00ae38ec8592e43117a8b7390",
      "contractAddress": null,
      "daFootprintGasScalar": "0x190",
      "l1BaseFeeScalar": "0xc3c9d",
      "l1BlobBaseFee": "0x3e2ad",
      "l1BlobBaseFeeScalar": "0x0",
      "l1Fee": "0x127858cef",
      "l1GasPrice": "0x3af5f0",
      "l1GasUsed": "0x640"
    }
  ],
  "libraries": [],
  "pending": [],
  "returns": {},
  "timestamp": 1775062748345,
  "chain": 763373,
  "commit": "9ffe1d9"
}