{
  "transactions": [
    {
      "hash": "0xa7e627ee6ac75a0d1f05879e738c1286247b84883ac81453c04ef916b2f879d4",
      "transactionType": "CALL",
      "contractName": null,
      "contractAddress": "0x014ba821525be6edd25f3ee7c6a37274382c8047",
      "function": "setLTV(address,uint16,uint16,uint32)",
      "arguments": [
        "0xe39b100a33f7C861088A9C16642534dd29cDf83d",
        "7500",
        "8700",
        "0"
      ],
      "transaction": {
        "from": "0x492c0b9f298cc49fe2644a2ebc6ea8df848c72fb",
        "to": "0x014ba821525be6edd25f3ee7c6a37274382c8047",
        "gas": "0x272be",
        "value": "0x0",
        "input": "0x4bca3d5b000000000000000000000000e39b100a33f7c861088a9c16642534dd29cdf83d0000000000000000000000000000000000000000000000000000000000001d4c00000000000000000000000000000000000000000000000000000000000021fc0000000000000000000000000000000000000000000000000000000000000000",
        "nonce": "0x62",
        "chainId": "0xba5ed"
      },
      "additionalContracts": [],
      "isFixedGasLimit": false
    },
    {
      "hash": "0x11f5d8894a8a54d52f6b33bdb0145e42fc4013ee028ad9f2af0f7131cb32ba8d",
      "transactionType": "CALL",
      "contractName": null,
      "contractAddress": "0x014ba821525be6edd25f3ee7c6a37274382c8047",
      "function": "setLTV(address,uint16,uint16,uint32)",
      "arguments": [
        "0xfC78951DcffdD8bDa662Aa7D9c697bE55d53712A",
        "7500",
        "8700",
        "0"
      ],
      "transaction": {
        "from": "0x492c0b9f298cc49fe2644a2ebc6ea8df848c72fb",
        "to": "0x014ba821525be6edd25f3ee7c6a37274382c8047",
        "gas": "0x1f3a8",
        "value": "0x0",
        "input": "0x4bca3d5b000000000000000000000000fc78951dcffdd8bda662aa7d9c697be55d53712a0000000000000000000000000000000000000000000000000000000000001d4c00000000000000000000000000000000000000000000000000000000000021fc0000000000000000000000000000000000000000000000000000000000000000",
        "nonce": "0x63",
        "chainId": "0xba5ed"
      },
      "additionalContracts": [],
      "isFixedGasLimit": false
    }
  ],
  "receipts": [
    {
      "status": "0x1",
      "cumulativeGasUsed": "0x260a9",
      "logs": [
        {
          "address": "0x014ba821525be6edd25f3ee7c6a37274382c8047",
          "topics": [
            "0xc69392046c26324e9eee913208811542aabcbde6a41ce9ee3b45473b18eb3c76",
            "0x000000000000000000000000e39b100a33f7c861088a9c16642534dd29cdf83d"
          ],
          "data": "0x0000000000000000000000000000000000000000000000000000000000001d4c00000000000000000000000000000000000000000000000000000000000021fc00000000000000000000000000000000000000000000000000000000000000000000000000000000000000000000000000000000000000000000000069cc0c420000000000000000000000000000000000000000000000000000000000000000",
          "blockHash": "0x0000000000000000000000000000000000000000000000000000000000000000",
          "blockNumber": "0x2bd8d22",
          "blockTimestamp": "0x69cc0c42",
          "transactionHash": "0xa7e627ee6ac75a0d1f05879e738c1286247b84883ac81453c04ef916b2f879d4",
          "transactionIndex": "0x1",
          "logIndex": "0x0",
          "removed": false
        }
      ],
      "logsBloom": "0x00000000000000000000000000000000000000000000000000000000000000000000000000000000000000000000000000000000200000000000000000000000000000000000000000000000000000000000000000000000000000000000000000000000000000020000000000000000000000000200000000000000000000000000200000000000000000000000001000000000000000000000000000040000000000000000000000000000000000000000000000000000000000000000000000000200000000100000000000000000080000000000000000000000000000000000000000000000000000000000000000000000000000000000000000000000",
      "type": "0x0",
      "transactionHash": "0xa7e627ee6ac75a0d1f05879e738c1286247b84883ac81453c04ef916b2f879d4",
      "transactionIndex": "0x1",
      "blockHash": "0x0000000000000000000000000000000000000000000000000000000000000000",
      "blockNumber": "0x2bd8d22",
      "gasUsed": "0x1ac8b",
      "effectiveGasPrice": "0xf433c",
      "blobGasUsed": "0x9c40",
      "from": "0x492c0b9f298cc49fe2644a2ebc6ea8df848c72fb",
      "to": "0x014ba821525be6edd25f3ee7c6a37274382c8047",
      "contractAddress": null,
      "daFootprintGasScalar": "0x190",
      "l1BaseFeeScalar": "0xc3c9d",
      "l1BlobBaseFee": "0x4",
      "l1BlobBaseFeeScalar": "0x0",
      "l1Fee": "0xf598",
      "l1GasPrice": "0x31",
      "l1GasUsed": "0x640"
    },
    {
      "status": "0x1",
      "cumulativeGasUsed": "0x3ca68",
      "logs": [
        {
          "address": "0x014ba821525be6edd25f3ee7c6a37274382c8047",
          "topics": [
            "0xc69392046c26324e9eee913208811542aabcbde6a41ce9ee3b45473b18eb3c76",
            "0x000000000000000000000000fc78951dcffdd8bda662aa7d9c697be55d53712a"
          ],
          "data": "0x0000000000000000000000000000000000000000000000000000000000001d4c00000000000000000000000000000000000000000000000000000000000021fc00000000000000000000000000000000000000000000000000000000000000000000000000000000000000000000000000000000000000000000000069cc0c420000000000000000000000000000000000000000000000000000000000000000",
          "blockHash": "0x0000000000000000000000000000000000000000000000000000000000000000",
          "blockNumber": "0x2bd8d22",
          "blockTimestamp": "0x69cc0c42",
          "transactionHash": "0x11f5d8894a8a54d52f6b33bdb0145e42fc4013ee028ad9f2af0f7131cb32ba8d",
          "transactionIndex": "0x2",
          "logIndex": "0x1",
          "removed": false
        }
      ],
      "logsBloom": "0x00000000000000000000000000000000000000000000000000000000000000000000000000000000000000000000000000000000200800000000000000000000000000000000000000000000000000100000000000000000000000000000000000000000000000000000000000000000000000000200000000002000000000000000200000000000000000000000000000000000000000000000000000040000000000000000000000000000000000000000000000000000000000000000000000000000000000100000000000000000080000000000000000000000000000000000000000000000000000000000000000000000000000000000000000000000",
      "type": "0x0",
      "transactionHash": "0x11f5d8894a8a54d52f6b33bdb0145e42fc4013ee028ad9f2af0f7131cb32ba8d",
      "transactionIndex": "0x2",
      "blockHash": "0x0000000000000000000000000000000000000000000000000000000000000000",
      "blockNumber": "0x2bd8d22",
      "gasUsed": "0x169bf",
      "effectiveGasPrice": "0xf433c",
      "blobGasUsed": "0x9c40",
      "from": "0x492c0b9f298cc49fe2644a2ebc6ea8df848c72fb",
      "to": "0x014ba821525be6edd25f3ee7c6a37274382c8047",
      "contractAddress": null,
      "daFootprintGasScalar": "0x190",
      "l1BaseFeeScalar": "0xc3c9d",
      "l1BlobBaseFee": "0x4",
      "l1BlobBaseFeeScalar": "0x0",
      "l1Fee": "0xf598",
      "l1GasPrice": "0x31",
      "l1GasUsed": "0x640"
    }
  ],
  "libraries": [],
  "pending": [],
  "returns": {},
  "timestamp": 1774980161704,
  "chain": 763373,
  "commit": "50bfc40"
}