{
  "transactions": [
    {
      "hash": "0x90be88288a07cdadc0c883e7ec10e9b9b9a8dbb9cf925bd23c5a301905f893a8",
      "transactionType": "CALL",
      "contractName": null,
      "contractAddress": "0xba1240b966e20e16ca32bbfc189528787794f2a9",
      "function": "setImplementation(address)",
      "arguments": [
        "0xd821A7D919e007b6b39925f672f1219dB4865Fba"
      ],
      "transaction": {
        "from": "0x492c0b9f298cc49fe2644a2ebc6ea8df848c72fb",
        "to": "0xba1240b966e20e16ca32bbfc189528787794f2a9",
        "gas": "0x118dc",
        "value": "0x0",
        "input": "0xd784d426000000000000000000000000d821a7d919e007b6b39925f672f1219db4865fba",
        "nonce": "0x27",
        "chainId": "0xba5ed"
      },
      "additionalContracts": [],
      "isFixedGasLimit": false
    },
    {
      "hash": "0x71871897a1cb9518e3214cff6444688e18ba49e978f4cc64d2d6c89a0065e8c3",
      "transactionType": "CALL",
      "contractName": null,
      "contractAddress": "0xba1240b966e20e16ca32bbfc189528787794f2a9",
      "function": "createProxy(address,bool,bytes)",
      "arguments": [
        "0x0000000000000000000000000000000000000000",
        "true",
        "0x6b57475467cd854d36be7fb614cada520783894300000000000000000000000000000000000000000000000000000000000000000000000000000000"
      ],
      "transaction": {
        "from": "0x492c0b9f298cc49fe2644a2ebc6ea8df848c72fb",
        "to": "0xba1240b966e20e16ca32bbfc189528787794f2a9",
        "gas": "0x191565",
        "value": "0x0",
        "input": "0x83e85b27000000000000000000000000000000000000000000000000000000000000000000000000000000000000000000000000000000000000000000000000000000010000000000000000000000000000000000000000000000000000000000000060000000000000000000000000000000000000000000000000000000000000003c6b57475467cd854d36be7fb614cada52078389430000000000000000000000000000000000000000000000000000000000000000000000000000000000000000",
        "nonce": "0x28",
        "chainId": "0xba5ed"
      },
      "additionalContracts": [
        {
          "transactionType": "CREATE",
          "contractName": "BeaconProxy",
          "address": "0x92e92fdcac9dfed71721468efcb6952ec898ac53",
          "initCode": "0x610140604052346100d3576103538038038061001a816100eb565b9283398101906020818303126100d3578051906001600160401b0382116100d357019080601f830112156100d35781516001600160401b0381116100d75761006b601f8201601f19166020016100eb565b91818352602082850101116100d3576020815f928261009296018386015e83010152610132565b60405161015c90816101f7823960805181602f015260a0518160f2015260c05181605b015260e05181607e0152610100518160a40152610120518160ca0152f35b5f80fd5b634e487b7160e01b5f52604160045260245ffd5b6040519190601f01601f191682016001600160401b038111838210176100d757604052565b91908260809103126100d3578151916020810151916060604083015192015190565b6040517f6bf6eaff5e9af8fbccb949f4c38cc016936f8775363ccf4224db160365785d525f80a160808251116101b457506101a49033608052337fa3f0ad74e5423aebfd80d3ef4346578335a9a72aeaee59ff6cb3582b35133d5055805160a05260808152602060a082019101610110565b610120526101005260e05260c052565b62461bcd60e51b815260206004820152601660248201527f747261696c696e67206461746120746f6f206c6f6e67000000000000000000006044820152606490fdfe60806040527f5c60da1b000000000000000000000000000000000000000000000000000000005f5260205f6004817f00000000000000000000000000000000000000000000000000000000000000005afa505f808051368280377f000000000000000000000000000000000000000000000000000000000000000036527f000000000000000000000000000000000000000000000000000000000000000036602001527f000000000000000000000000000000000000000000000000000000000000000036604001527f0000000000000000000000000000000000000000000000000000000000000000366060015281367f000000000000000000000000000000000000000000000000000000000000000001915af43d5f803e15610122573d5ff35b3d5ffdfea26469706673582212207841c236ae40576bf14600e3d236a8f1b16329a9290a226e60990fceed49781664736f6c634300081c003300000000000000000000000000000000000000000000000000000000000000200000000000000000000000000000000000000000000000000000000000000040000000006b57475467cd854d36be7fb614cada520783894300000000000000000000000000000000000000000000000000000000000000000000000000000000"
        },
        {
          "transactionType": "CREATE",
          "contractName": "DToken",
          "address": "0x93694e545f002aa911f1dbf3202603d231cd7a10",
          "initCode": "0x60a080604052346100545733608052610b109081610059823960805181818161013e015281816101d2015281816103470152818161042501528181610536015281816105d60152818161071501526107bb0152f35b5f80fdfe6080806040526004361015610012575f80fd5b5f3560e01c90816306fdde031461074e57508063095ea7b3146100ef57806318160ddd146106a457806323b872dd1461066b57806323de6651146105b0578063313ce567146104c557806338d52e0f146103b457806370a08231146102b157806395d89b4114610162578063985426ec146100f4578063a9059cbb146100ef5763dd62ed3e146100a0575f80fd5b346100eb5760407ffffffffffffffffffffffffffffffffffffffffffffffffffffffffffffffffc3601126100eb576100d76108c3565b506100e06108e6565b5060206040515f8152f35b5f80fd5b610909565b346100eb575f7ffffffffffffffffffffffffffffffffffffffffffffffffffffffffffffffffc3601126100eb57602060405173ffffffffffffffffffffffffffffffffffffffff7f0000000000000000000000000000000000000000000000000000000000000000168152f35b346100eb575f7ffffffffffffffffffffffffffffffffffffffffffffffffffffffffffffffffc3601126100eb576040517f95d89b410000000000000000000000000000000000000000000000000000000081525f8160048173ffffffffffffffffffffffffffffffffffffffff7f0000000000000000000000000000000000000000000000000000000000000000165afa80156102a657610274600560208093610280955f91610284575b506040519481869251918291018484015e81017f2d444542540000000000000000000000000000000000000000000000000000008382015203017fffffffffffffffffffffffffffffffffffffffffffffffffffffffffffffffe58101845201826109db565b6040519182918261087b565b0390f35b6102a091503d805f833e61029881836109db565b810190610a49565b8661020e565b6040513d5f823e3d90fd5b346100eb5760207ffffffffffffffffffffffffffffffffffffffffffffffffffffffffffffffffc3601126100eb576102e86108c3565b73ffffffffffffffffffffffffffffffffffffffff604051917fd283e75f00000000000000000000000000000000000000000000000000000000835216600482015260208160248173ffffffffffffffffffffffffffffffffffffffff7f0000000000000000000000000000000000000000000000000000000000000000165afa80156102a6575f90610381575b602090604051908152f35b506020813d6020116103ac575b8161039b602093836109db565b810103126100eb5760209051610376565b3d915061038e565b346100eb575f7ffffffffffffffffffffffffffffffffffffffffffffffffffffffffffffffffc3601126100eb576040517f38d52e0f00000000000000000000000000000000000000000000000000000000815260208160048173ffffffffffffffffffffffffffffffffffffffff7f0000000000000000000000000000000000000000000000000000000000000000165afa80156102a6575f90610475575b60209073ffffffffffffffffffffffffffffffffffffffff60405191168152f35b506020813d6020116104bd575b8161048f602093836109db565b810103126100eb575173ffffffffffffffffffffffffffffffffffffffff811681036100eb57602090610454565b3d9150610482565b346100eb575f7ffffffffffffffffffffffffffffffffffffffffffffffffffffffffffffffffc3601126100eb576040517f313ce56700000000000000000000000000000000000000000000000000000000815260208160048173ffffffffffffffffffffffffffffffffffffffff7f0000000000000000000000000000000000000000000000000000000000000000165afa80156102a6575f90610573575b60209060ff60405191168152f35b506020813d6020116105a8575b8161058d602093836109db565b810103126100eb575160ff811681036100eb57602090610565565b3d9150610580565b346100eb576105be36610969565b9073ffffffffffffffffffffffffffffffffffffffff7f000000000000000000000000000000000000000000000000000000000000000016330361064357602073ffffffffffffffffffffffffffffffffffffffff807fddf252ad1be2c89b69c2b068fc378daa952ba7f163c4a11628f55a4df523b3ef9360405195865216941692a3005b7f08e2ce17000000000000000000000000000000000000000000000000000000005f5260045ffd5b346100eb5761067936610969565b5050507ffea48513000000000000000000000000000000000000000000000000000000005f5260045ffd5b346100eb575f7ffffffffffffffffffffffffffffffffffffffffffffffffffffffffffffffffc3601126100eb576040517f47bd371800000000000000000000000000000000000000000000000000000000815260208160048173ffffffffffffffffffffffffffffffffffffffff7f0000000000000000000000000000000000000000000000000000000000000000165afa80156102a6575f9061038157602090604051908152f35b346100eb575f7ffffffffffffffffffffffffffffffffffffffffffffffffffffffffffffffffc3601126100eb577f06fdde030000000000000000000000000000000000000000000000000000000081525f8160048173ffffffffffffffffffffffffffffffffffffffff7f0000000000000000000000000000000000000000000000000000000000000000165afa9081156102a657610274602e610280936020935f91610861575b506040519384917f4465627420746f6b656e206f6620000000000000000000000000000000000000828401528051918291018484015e81015f8382015203017fffffffffffffffffffffffffffffffffffffffffffffffffffffffffffffffe081018352826109db565b61087591503d805f833e61029881836109db565b856107f7565b7fffffffffffffffffffffffffffffffffffffffffffffffffffffffffffffffe0601f602060409481855280519182918282880152018686015e5f8582860101520116010190565b6004359073ffffffffffffffffffffffffffffffffffffffff821682036100eb57565b6024359073ffffffffffffffffffffffffffffffffffffffff821682036100eb57565b346100eb5760407ffffffffffffffffffffffffffffffffffffffffffffffffffffffffffffffffc3601126100eb576109406108c3565b507ffea48513000000000000000000000000000000000000000000000000000000005f5260045ffd5b7ffffffffffffffffffffffffffffffffffffffffffffffffffffffffffffffffc60609101126100eb5760043573ffffffffffffffffffffffffffffffffffffffff811681036100eb579060243573ffffffffffffffffffffffffffffffffffffffff811681036100eb579060443590565b90601f7fffffffffffffffffffffffffffffffffffffffffffffffffffffffffffffffe0910116810190811067ffffffffffffffff821117610a1c57604052565b7f4e487b71000000000000000000000000000000000000000000000000000000005f52604160045260245ffd5b6020818303126100eb5780519067ffffffffffffffff82116100eb570181601f820112156100eb5780519067ffffffffffffffff8211610a1c5760405192610ab960207fffffffffffffffffffffffffffffffffffffffffffffffffffffffffffffffe0601f86011601856109db565b828452602083830101116100eb57815f9260208093018386015e830101529056fea264697066735822122070010d0ee30fe6510b50cb4cee34832711c4a2993305ddc60821ac2eeb3f407064736f6c634300081c0033"
        }
      ],
      "isFixedGasLimit": false
    },
    {
      "hash": "0x971c3e4de7cd1f39d76d3bd4ea4a53b343c9b2a190c5fecfa92d53fa6644cac5",
      "transactionType": "CALL",
      "contractName": "BeaconProxy",
      "contractAddress": "0x92e92fdcac9dfed71721468efcb6952ec898ac53",
      "function": null,
      "arguments": null,
      "transaction": {
        "from": "0x492c0b9f298cc49fe2644a2ebc6ea8df848c72fb",
        "to": "0x92e92fdcac9dfed71721468efcb6952ec898ac53",
        "gas": "0x13ff3",
        "value": "0x0",
        "input": "0x8bcd4016000000000000000000000000e91a4b01632a7d281fb3eb0e83ad9d5f0305d48f",
        "nonce": "0x29",
        "chainId": "0xba5ed"
      },
      "additionalContracts": [],
      "isFixedGasLimit": false
    },
    {
      "hash": "0x43c7a952832c1762c8ab65baed938f31b0e9f1c01741ddf334beb495886044f9",
      "transactionType": "CALL",
      "contractName": "BeaconProxy",
      "contractAddress": "0x92e92fdcac9dfed71721468efcb6952ec898ac53",
      "function": null,
      "arguments": null,
      "transaction": {
        "from": "0x492c0b9f298cc49fe2644a2ebc6ea8df848c72fb",
        "to": "0x92e92fdcac9dfed71721468efcb6952ec898ac53",
        "gas": "0x161cb",
        "value": "0x0",
        "input": "0xb4113ba700000000000000000000000000000000000000000000000000000000000005dc",
        "nonce": "0x2a",
        "chainId": "0xba5ed"
      },
      "additionalContracts": [],
      "isFixedGasLimit": false
    },
    {
      "hash": "0x78a115282b2a163a954f672be80596dcaac3453cdfa909b795b3d7103f19f4c8",
      "transactionType": "CALL",
      "contractName": "BeaconProxy",
      "contractAddress": "0x92e92fdcac9dfed71721468efcb6952ec898ac53",
      "function": null,
      "arguments": null,
      "transaction": {
        "from": "0x492c0b9f298cc49fe2644a2ebc6ea8df848c72fb",
        "to": "0x92e92fdcac9dfed71721468efcb6952ec898ac53",
        "gas": "0xfe89",
        "value": "0x0",
        "input": "0xaf06d3cf0000000000000000000000000000000000000000000000000000000000000001",
        "nonce": "0x2b",
        "chainId": "0xba5ed"
      },
      "additionalContracts": [],
      "isFixedGasLimit": false
    },
    {
      "hash": "0x9e0cf2906667ebbe8c546a81b94f5f50b0f613890f47406ded307f728a6076dc",
      "transactionType": "CALL",
      "contractName": "BeaconProxy",
      "contractAddress": "0x92e92fdcac9dfed71721468efcb6952ec898ac53",
      "function": null,
      "arguments": null,
      "transaction": {
        "from": "0x492c0b9f298cc49fe2644a2ebc6ea8df848c72fb",
        "to": "0x92e92fdcac9dfed71721468efcb6952ec898ac53",
        "gas": "0xf8db",
        "value": "0x0",
        "input": "0xd1a3a30800000000000000000000000000000000000000000000000000000000000000000000000000000000000000000000000000000000000000000000000000000000",
        "nonce": "0x2c",
        "chainId": "0xba5ed"
      },
      "additionalContracts": [],
      "isFixedGasLimit": false
    },
    {
      "hash": "0x37c782b8c73abb941cdfab3e5a60dd752ea55fb6c3f136b66451c28600fa4890",
      "transactionType": "CALL",
      "contractName": "BeaconProxy",
      "contractAddress": "0x92e92fdcac9dfed71721468efcb6952ec898ac53",
      "function": null,
      "arguments": null,
      "transaction": {
        "from": "0x492c0b9f298cc49fe2644a2ebc6ea8df848c72fb",
        "to": "0x92e92fdcac9dfed71721468efcb6952ec898ac53",
        "gas": "0xec12",
        "value": "0x0",
        "input": "0xd87f780f00000000000000000000000000000000000000000000000000000000000000000000000000000000000000000000000000000000000000000000000000000000",
        "nonce": "0x2d",
        "chainId": "0xba5ed"
      },
      "additionalContracts": [],
      "isFixedGasLimit": false
    },
    {
      "hash": "0x62bb4c18959db5c236f10346a2c0189082ae6843d1b7bf8d4b44a140a03c9f35",
      "transactionType": "CALL",
      "contractName": null,
      "contractAddress": "0xba1240b966e20e16ca32bbfc189528787794f2a9",
      "function": "createProxy(address,bool,bytes)",
      "arguments": [
        "0x0000000000000000000000000000000000000000",
        "true",
        "0x9ef9f9b22d3ca9769e28e769e2aaa3c2b0072d0e00000000000000000000000000000000000000000000000000000000000000000000000000000000"
      ],
      "transaction": {
        "from": "0x492c0b9f298cc49fe2644a2ebc6ea8df848c72fb",
        "to": "0xba1240b966e20e16ca32bbfc189528787794f2a9",
        "gas": "0x175463",
        "value": "0x0",
        "input": "0x83e85b27000000000000000000000000000000000000000000000000000000000000000000000000000000000000000000000000000000000000000000000000000000010000000000000000000000000000000000000000000000000000000000000060000000000000000000000000000000000000000000000000000000000000003c9ef9f9b22d3ca9769e28e769e2aaa3c2b0072d0e0000000000000000000000000000000000000000000000000000000000000000000000000000000000000000",
        "nonce": "0x2e",
        "chainId": "0xba5ed"
      },
      "additionalContracts": [
        {
          "transactionType": "CREATE",
          "contractName": "BeaconProxy",
          "address": "0x6d064558d58645439a64ce1e88989dfba88aa052",
          "initCode": "0x610140604052346100d3576103538038038061001a816100eb565b9283398101906020818303126100d3578051906001600160401b0382116100d357019080601f830112156100d35781516001600160401b0381116100d75761006b601f8201601f19166020016100eb565b91818352602082850101116100d3576020815f928261009296018386015e83010152610132565b60405161015c90816101f7823960805181602f015260a0518160f2015260c05181605b015260e05181607e0152610100518160a40152610120518160ca0152f35b5f80fd5b634e487b7160e01b5f52604160045260245ffd5b6040519190601f01601f191682016001600160401b038111838210176100d757604052565b91908260809103126100d3578151916020810151916060604083015192015190565b6040517f6bf6eaff5e9af8fbccb949f4c38cc016936f8775363ccf4224db160365785d525f80a160808251116101b457506101a49033608052337fa3f0ad74e5423aebfd80d3ef4346578335a9a72aeaee59ff6cb3582b35133d5055805160a05260808152602060a082019101610110565b610120526101005260e05260c052565b62461bcd60e51b815260206004820152601660248201527f747261696c696e67206461746120746f6f206c6f6e67000000000000000000006044820152606490fdfe60806040527f5c60da1b000000000000000000000000000000000000000000000000000000005f5260205f6004817f00000000000000000000000000000000000000000000000000000000000000005afa505f808051368280377f000000000000000000000000000000000000000000000000000000000000000036527f000000000000000000000000000000000000000000000000000000000000000036602001527f000000000000000000000000000000000000000000000000000000000000000036604001527f0000000000000000000000000000000000000000000000000000000000000000366060015281367f000000000000000000000000000000000000000000000000000000000000000001915af43d5f803e15610122573d5ff35b3d5ffdfea26469706673582212207841c236ae40576bf14600e3d236a8f1b16329a9290a226e60990fceed49781664736f6c634300081c003300000000000000000000000000000000000000000000000000000000000000200000000000000000000000000000000000000000000000000000000000000040000000009ef9f9b22d3ca9769e28e769e2aaa3c2b0072d0e00000000000000000000000000000000000000000000000000000000000000000000000000000000"
        },
        {
          "transactionType": "CREATE",
          "contractName": "DToken",
          "address": "0xbe337591e697f2fbc38bc87d16a95ccf21f63fe4",
          "initCode": "0x60a080604052346100545733608052610b109081610059823960805181818161013e015281816101d2015281816103470152818161042501528181610536015281816105d60152818161071501526107bb0152f35b5f80fdfe6080806040526004361015610012575f80fd5b5f3560e01c90816306fdde031461074e57508063095ea7b3146100ef57806318160ddd146106a457806323b872dd1461066b57806323de6651146105b0578063313ce567146104c557806338d52e0f146103b457806370a08231146102b157806395d89b4114610162578063985426ec146100f4578063a9059cbb146100ef5763dd62ed3e146100a0575f80fd5b346100eb5760407ffffffffffffffffffffffffffffffffffffffffffffffffffffffffffffffffc3601126100eb576100d76108c3565b506100e06108e6565b5060206040515f8152f35b5f80fd5b610909565b346100eb575f7ffffffffffffffffffffffffffffffffffffffffffffffffffffffffffffffffc3601126100eb57602060405173ffffffffffffffffffffffffffffffffffffffff7f0000000000000000000000000000000000000000000000000000000000000000168152f35b346100eb575f7ffffffffffffffffffffffffffffffffffffffffffffffffffffffffffffffffc3601126100eb576040517f95d89b410000000000000000000000000000000000000000000000000000000081525f8160048173ffffffffffffffffffffffffffffffffffffffff7f0000000000000000000000000000000000000000000000000000000000000000165afa80156102a657610274600560208093610280955f91610284575b506040519481869251918291018484015e81017f2d444542540000000000000000000000000000000000000000000000000000008382015203017fffffffffffffffffffffffffffffffffffffffffffffffffffffffffffffffe58101845201826109db565b6040519182918261087b565b0390f35b6102a091503d805f833e61029881836109db565b810190610a49565b8661020e565b6040513d5f823e3d90fd5b346100eb5760207ffffffffffffffffffffffffffffffffffffffffffffffffffffffffffffffffc3601126100eb576102e86108c3565b73ffffffffffffffffffffffffffffffffffffffff604051917fd283e75f00000000000000000000000000000000000000000000000000000000835216600482015260208160248173ffffffffffffffffffffffffffffffffffffffff7f0000000000000000000000000000000000000000000000000000000000000000165afa80156102a6575f90610381575b602090604051908152f35b506020813d6020116103ac575b8161039b602093836109db565b810103126100eb5760209051610376565b3d915061038e565b346100eb575f7ffffffffffffffffffffffffffffffffffffffffffffffffffffffffffffffffc3601126100eb576040517f38d52e0f00000000000000000000000000000000000000000000000000000000815260208160048173ffffffffffffffffffffffffffffffffffffffff7f0000000000000000000000000000000000000000000000000000000000000000165afa80156102a6575f90610475575b60209073ffffffffffffffffffffffffffffffffffffffff60405191168152f35b506020813d6020116104bd575b8161048f602093836109db565b810103126100eb575173ffffffffffffffffffffffffffffffffffffffff811681036100eb57602090610454565b3d9150610482565b346100eb575f7ffffffffffffffffffffffffffffffffffffffffffffffffffffffffffffffffc3601126100eb576040517f313ce56700000000000000000000000000000000000000000000000000000000815260208160048173ffffffffffffffffffffffffffffffffffffffff7f0000000000000000000000000000000000000000000000000000000000000000165afa80156102a6575f90610573575b60209060ff60405191168152f35b506020813d6020116105a8575b8161058d602093836109db565b810103126100eb575160ff811681036100eb57602090610565565b3d9150610580565b346100eb576105be36610969565b9073ffffffffffffffffffffffffffffffffffffffff7f000000000000000000000000000000000000000000000000000000000000000016330361064357602073ffffffffffffffffffffffffffffffffffffffff807fddf252ad1be2c89b69c2b068fc378daa952ba7f163c4a11628f55a4df523b3ef9360405195865216941692a3005b7f08e2ce17000000000000000000000000000000000000000000000000000000005f5260045ffd5b346100eb5761067936610969565b5050507ffea48513000000000000000000000000000000000000000000000000000000005f5260045ffd5b346100eb575f7ffffffffffffffffffffffffffffffffffffffffffffffffffffffffffffffffc3601126100eb576040517f47bd371800000000000000000000000000000000000000000000000000000000815260208160048173ffffffffffffffffffffffffffffffffffffffff7f0000000000000000000000000000000000000000000000000000000000000000165afa80156102a6575f9061038157602090604051908152f35b346100eb575f7ffffffffffffffffffffffffffffffffffffffffffffffffffffffffffffffffc3601126100eb577f06fdde030000000000000000000000000000000000000000000000000000000081525f8160048173ffffffffffffffffffffffffffffffffffffffff7f0000000000000000000000000000000000000000000000000000000000000000165afa9081156102a657610274602e610280936020935f91610861575b506040519384917f4465627420746f6b656e206f6620000000000000000000000000000000000000828401528051918291018484015e81015f8382015203017fffffffffffffffffffffffffffffffffffffffffffffffffffffffffffffffe081018352826109db565b61087591503d805f833e61029881836109db565b856107f7565b7fffffffffffffffffffffffffffffffffffffffffffffffffffffffffffffffe0601f602060409481855280519182918282880152018686015e5f8582860101520116010190565b6004359073ffffffffffffffffffffffffffffffffffffffff821682036100eb57565b6024359073ffffffffffffffffffffffffffffffffffffffff821682036100eb57565b346100eb5760407ffffffffffffffffffffffffffffffffffffffffffffffffffffffffffffffffc3601126100eb576109406108c3565b507ffea48513000000000000000000000000000000000000000000000000000000005f5260045ffd5b7ffffffffffffffffffffffffffffffffffffffffffffffffffffffffffffffffc60609101126100eb5760043573ffffffffffffffffffffffffffffffffffffffff811681036100eb579060243573ffffffffffffffffffffffffffffffffffffffff811681036100eb579060443590565b90601f7fffffffffffffffffffffffffffffffffffffffffffffffffffffffffffffffe0910116810190811067ffffffffffffffff821117610a1c57604052565b7f4e487b71000000000000000000000000000000000000000000000000000000005f52604160045260245ffd5b6020818303126100eb5780519067ffffffffffffffff82116100eb570181601f820112156100eb5780519067ffffffffffffffff8211610a1c5760405192610ab960207fffffffffffffffffffffffffffffffffffffffffffffffffffffffffffffffe0601f86011601856109db565b828452602083830101116100eb57815f9260208093018386015e830101529056fea264697066735822122070010d0ee30fe6510b50cb4cee34832711c4a2993305ddc60821ac2eeb3f407064736f6c634300081c0033"
        }
      ],
      "isFixedGasLimit": false
    },
    {
      "hash": "0x2a1c022c44a70136f1ae38acfac85dd1656a47ab7dac75b5d9fd8f89f9a990a6",
      "transactionType": "CALL",
      "contractName": "BeaconProxy",
      "contractAddress": "0x6d064558d58645439a64ce1e88989dfba88aa052",
      "function": null,
      "arguments": null,
      "transaction": {
        "from": "0x492c0b9f298cc49fe2644a2ebc6ea8df848c72fb",
        "to": "0x6d064558d58645439a64ce1e88989dfba88aa052",
        "gas": "0x13ff3",
        "value": "0x0",
        "input": "0x8bcd4016000000000000000000000000e91a4b01632a7d281fb3eb0e83ad9d5f0305d48f",
        "nonce": "0x2f",
        "chainId": "0xba5ed"
      },
      "additionalContracts": [],
      "isFixedGasLimit": false
    },
    {
      "hash": "0x09bfb1a9cee374024d75be892b65bce5a2f5ac5f1d47032c214ebf8fa1a01dc9",
      "transactionType": "CALL",
      "contractName": "BeaconProxy",
      "contractAddress": "0x6d064558d58645439a64ce1e88989dfba88aa052",
      "function": null,
      "arguments": null,
      "transaction": {
        "from": "0x492c0b9f298cc49fe2644a2ebc6ea8df848c72fb",
        "to": "0x6d064558d58645439a64ce1e88989dfba88aa052",
        "gas": "0x161cb",
        "value": "0x0",
        "input": "0xb4113ba700000000000000000000000000000000000000000000000000000000000005dc",
        "nonce": "0x30",
        "chainId": "0xba5ed"
      },
      "additionalContracts": [],
      "isFixedGasLimit": false
    },
    {
      "hash": "0x6c88c003d5b85d5799d0c44ed68bc668c35b436f6c0a18b6261ed7973335ff80",
      "transactionType": "CALL",
      "contractName": "BeaconProxy",
      "contractAddress": "0x6d064558d58645439a64ce1e88989dfba88aa052",
      "function": null,
      "arguments": null,
      "transaction": {
        "from": "0x492c0b9f298cc49fe2644a2ebc6ea8df848c72fb",
        "to": "0x6d064558d58645439a64ce1e88989dfba88aa052",
        "gas": "0xfe89",
        "value": "0x0",
        "input": "0xaf06d3cf0000000000000000000000000000000000000000000000000000000000000001",
        "nonce": "0x31",
        "chainId": "0xba5ed"
      },
      "additionalContracts": [],
      "isFixedGasLimit": false
    },
    {
      "hash": "0x7aa04956c8a34a1bdfda2d96e8972de57419204bfdac7d321f5e07fa5704c51c",
      "transactionType": "CALL",
      "contractName": "BeaconProxy",
      "contractAddress": "0x6d064558d58645439a64ce1e88989dfba88aa052",
      "function": null,
      "arguments": null,
      "transaction": {
        "from": "0x492c0b9f298cc49fe2644a2ebc6ea8df848c72fb",
        "to": "0x6d064558d58645439a64ce1e88989dfba88aa052",
        "gas": "0xf8db",
        "value": "0x0",
        "input": "0xd1a3a30800000000000000000000000000000000000000000000000000000000000000000000000000000000000000000000000000000000000000000000000000000000",
        "nonce": "0x32",
        "chainId": "0xba5ed"
      },
      "additionalContracts": [],
      "isFixedGasLimit": false
    },
    {
      "hash": "0x50b72cd231f69aad43db917060cf31da817f49e321a076563c17859066252848",
      "transactionType": "CALL",
      "contractName": "BeaconProxy",
      "contractAddress": "0x6d064558d58645439a64ce1e88989dfba88aa052",
      "function": null,
      "arguments": null,
      "transaction": {
        "from": "0x492c0b9f298cc49fe2644a2ebc6ea8df848c72fb",
        "to": "0x6d064558d58645439a64ce1e88989dfba88aa052",
        "gas": "0xec12",
        "value": "0x0",
        "input": "0xd87f780f00000000000000000000000000000000000000000000000000000000000000000000000000000000000000000000000000000000000000000000000000000000",
        "nonce": "0x33",
        "chainId": "0xba5ed"
      },
      "additionalContracts": [],
      "isFixedGasLimit": false
    },
    {
      "hash": "0x26bba1c486b9818570230ea56dbc3bbac4ca21f6afe6414ae19e5db77f5e15eb",
      "transactionType": "CALL",
      "contractName": null,
      "contractAddress": "0xba1240b966e20e16ca32bbfc189528787794f2a9",
      "function": "createProxy(address,bool,bytes)",
      "arguments": [
        "0x0000000000000000000000000000000000000000",
        "true",
        "0x267ed9bc43b16d832cb9aaf0e3445f0cc9f536d900000000000000000000000000000000000000000000000000000000000000000000000000000000"
      ],
      "transaction": {
        "from": "0x492c0b9f298cc49fe2644a2ebc6ea8df848c72fb",
        "to": "0xba1240b966e20e16ca32bbfc189528787794f2a9",
        "gas": "0x175463",
        "value": "0x0",
        "input": "0x83e85b27000000000000000000000000000000000000000000000000000000000000000000000000000000000000000000000000000000000000000000000000000000010000000000000000000000000000000000000000000000000000000000000060000000000000000000000000000000000000000000000000000000000000003c267ed9bc43b16d832cb9aaf0e3445f0cc9f536d90000000000000000000000000000000000000000000000000000000000000000000000000000000000000000",
        "nonce": "0x34",
        "chainId": "0xba5ed"
      },
      "additionalContracts": [
        {
          "transactionType": "CREATE",
          "contractName": "BeaconProxy",
          "address": "0x3aeff4ad3ee66885de6ce1a485425bd8c987fce9",
          "initCode": "0x610140604052346100d3576103538038038061001a816100eb565b9283398101906020818303126100d3578051906001600160401b0382116100d357019080601f830112156100d35781516001600160401b0381116100d75761006b601f8201601f19166020016100eb565b91818352602082850101116100d3576020815f928261009296018386015e83010152610132565b60405161015c90816101f7823960805181602f015260a0518160f2015260c05181605b015260e05181607e0152610100518160a40152610120518160ca0152f35b5f80fd5b634e487b7160e01b5f52604160045260245ffd5b6040519190601f01601f191682016001600160401b038111838210176100d757604052565b91908260809103126100d3578151916020810151916060604083015192015190565b6040517f6bf6eaff5e9af8fbccb949f4c38cc016936f8775363ccf4224db160365785d525f80a160808251116101b457506101a49033608052337fa3f0ad74e5423aebfd80d3ef4346578335a9a72aeaee59ff6cb3582b35133d5055805160a05260808152602060a082019101610110565b610120526101005260e05260c052565b62461bcd60e51b815260206004820152601660248201527f747261696c696e67206461746120746f6f206c6f6e67000000000000000000006044820152606490fdfe60806040527f5c60da1b000000000000000000000000000000000000000000000000000000005f5260205f6004817f00000000000000000000000000000000000000000000000000000000000000005afa505f808051368280377f000000000000000000000000000000000000000000000000000000000000000036527f000000000000000000000000000000000000000000000000000000000000000036602001527f000000000000000000000000000000000000000000000000000000000000000036604001527f0000000000000000000000000000000000000000000000000000000000000000366060015281367f000000000000000000000000000000000000000000000000000000000000000001915af43d5f803e15610122573d5ff35b3d5ffdfea26469706673582212207841c236ae40576bf14600e3d236a8f1b16329a9290a226e60990fceed49781664736f6c634300081c00330000000000000000000000000000000000000000000000000000000000000020000000000000000000000000000000000000000000000000000000000000004000000000267ed9bc43b16d832cb9aaf0e3445f0cc9f536d900000000000000000000000000000000000000000000000000000000000000000000000000000000"
        },
        {
          "transactionType": "CREATE",
          "contractName": "DToken",
          "address": "0x74b141aac98a925866148329bca32ce39c4dae8d",
          "initCode": "0x60a080604052346100545733608052610b109081610059823960805181818161013e015281816101d2015281816103470152818161042501528181610536015281816105d60152818161071501526107bb0152f35b5f80fdfe6080806040526004361015610012575f80fd5b5f3560e01c90816306fdde031461074e57508063095ea7b3146100ef57806318160ddd146106a457806323b872dd1461066b57806323de6651146105b0578063313ce567146104c557806338d52e0f146103b457806370a08231146102b157806395d89b4114610162578063985426ec146100f4578063a9059cbb146100ef5763dd62ed3e146100a0575f80fd5b346100eb5760407ffffffffffffffffffffffffffffffffffffffffffffffffffffffffffffffffc3601126100eb576100d76108c3565b506100e06108e6565b5060206040515f8152f35b5f80fd5b610909565b346100eb575f7ffffffffffffffffffffffffffffffffffffffffffffffffffffffffffffffffc3601126100eb57602060405173ffffffffffffffffffffffffffffffffffffffff7f0000000000000000000000000000000000000000000000000000000000000000168152f35b346100eb575f7ffffffffffffffffffffffffffffffffffffffffffffffffffffffffffffffffc3601126100eb576040517f95d89b410000000000000000000000000000000000000000000000000000000081525f8160048173ffffffffffffffffffffffffffffffffffffffff7f0000000000000000000000000000000000000000000000000000000000000000165afa80156102a657610274600560208093610280955f91610284575b506040519481869251918291018484015e81017f2d444542540000000000000000000000000000000000000000000000000000008382015203017fffffffffffffffffffffffffffffffffffffffffffffffffffffffffffffffe58101845201826109db565b6040519182918261087b565b0390f35b6102a091503d805f833e61029881836109db565b810190610a49565b8661020e565b6040513d5f823e3d90fd5b346100eb5760207ffffffffffffffffffffffffffffffffffffffffffffffffffffffffffffffffc3601126100eb576102e86108c3565b73ffffffffffffffffffffffffffffffffffffffff604051917fd283e75f00000000000000000000000000000000000000000000000000000000835216600482015260208160248173ffffffffffffffffffffffffffffffffffffffff7f0000000000000000000000000000000000000000000000000000000000000000165afa80156102a6575f90610381575b602090604051908152f35b506020813d6020116103ac575b8161039b602093836109db565b810103126100eb5760209051610376565b3d915061038e565b346100eb575f7ffffffffffffffffffffffffffffffffffffffffffffffffffffffffffffffffc3601126100eb576040517f38d52e0f00000000000000000000000000000000000000000000000000000000815260208160048173ffffffffffffffffffffffffffffffffffffffff7f0000000000000000000000000000000000000000000000000000000000000000165afa80156102a6575f90610475575b60209073ffffffffffffffffffffffffffffffffffffffff60405191168152f35b506020813d6020116104bd575b8161048f602093836109db565b810103126100eb575173ffffffffffffffffffffffffffffffffffffffff811681036100eb57602090610454565b3d9150610482565b346100eb575f7ffffffffffffffffffffffffffffffffffffffffffffffffffffffffffffffffc3601126100eb576040517f313ce56700000000000000000000000000000000000000000000000000000000815260208160048173ffffffffffffffffffffffffffffffffffffffff7f0000000000000000000000000000000000000000000000000000000000000000165afa80156102a6575f90610573575b60209060ff60405191168152f35b506020813d6020116105a8575b8161058d602093836109db565b810103126100eb575160ff811681036100eb57602090610565565b3d9150610580565b346100eb576105be36610969565b9073ffffffffffffffffffffffffffffffffffffffff7f000000000000000000000000000000000000000000000000000000000000000016330361064357602073ffffffffffffffffffffffffffffffffffffffff807fddf252ad1be2c89b69c2b068fc378daa952ba7f163c4a11628f55a4df523b3ef9360405195865216941692a3005b7f08e2ce17000000000000000000000000000000000000000000000000000000005f5260045ffd5b346100eb5761067936610969565b5050507ffea48513000000000000000000000000000000000000000000000000000000005f5260045ffd5b346100eb575f7ffffffffffffffffffffffffffffffffffffffffffffffffffffffffffffffffc3601126100eb576040517f47bd371800000000000000000000000000000000000000000000000000000000815260208160048173ffffffffffffffffffffffffffffffffffffffff7f0000000000000000000000000000000000000000000000000000000000000000165afa80156102a6575f9061038157602090604051908152f35b346100eb575f7ffffffffffffffffffffffffffffffffffffffffffffffffffffffffffffffffc3601126100eb577f06fdde030000000000000000000000000000000000000000000000000000000081525f8160048173ffffffffffffffffffffffffffffffffffffffff7f0000000000000000000000000000000000000000000000000000000000000000165afa9081156102a657610274602e610280936020935f91610861575b506040519384917f4465627420746f6b656e206f6620000000000000000000000000000000000000828401528051918291018484015e81015f8382015203017fffffffffffffffffffffffffffffffffffffffffffffffffffffffffffffffe081018352826109db565b61087591503d805f833e61029881836109db565b856107f7565b7fffffffffffffffffffffffffffffffffffffffffffffffffffffffffffffffe0601f602060409481855280519182918282880152018686015e5f8582860101520116010190565b6004359073ffffffffffffffffffffffffffffffffffffffff821682036100eb57565b6024359073ffffffffffffffffffffffffffffffffffffffff821682036100eb57565b346100eb5760407ffffffffffffffffffffffffffffffffffffffffffffffffffffffffffffffffc3601126100eb576109406108c3565b507ffea48513000000000000000000000000000000000000000000000000000000005f5260045ffd5b7ffffffffffffffffffffffffffffffffffffffffffffffffffffffffffffffffc60609101126100eb5760043573ffffffffffffffffffffffffffffffffffffffff811681036100eb579060243573ffffffffffffffffffffffffffffffffffffffff811681036100eb579060443590565b90601f7fffffffffffffffffffffffffffffffffffffffffffffffffffffffffffffffe0910116810190811067ffffffffffffffff821117610a1c57604052565b7f4e487b71000000000000000000000000000000000000000000000000000000005f52604160045260245ffd5b6020818303126100eb5780519067ffffffffffffffff82116100eb570181601f820112156100eb5780519067ffffffffffffffff8211610a1c5760405192610ab960207fffffffffffffffffffffffffffffffffffffffffffffffffffffffffffffffe0601f86011601856109db565b828452602083830101116100eb57815f9260208093018386015e830101529056fea264697066735822122070010d0ee30fe6510b50cb4cee34832711c4a2993305ddc60821ac2eeb3f407064736f6c634300081c0033"
        }
      ],
      "isFixedGasLimit": false
    },
    {
      "hash": "0x40a256e0c7e078d11038ea22931aa97f370d1c81c6f636d013fc06ef654c76bd",
      "transactionType": "CALL",
      "contractName": "BeaconProxy",
      "contractAddress": "0x3aeff4ad3ee66885de6ce1a485425bd8c987fce9",
      "function": null,
      "arguments": null,
      "transaction": {
        "from": "0x492c0b9f298cc49fe2644a2ebc6ea8df848c72fb",
        "to": "0x3aeff4ad3ee66885de6ce1a485425bd8c987fce9",
        "gas": "0x13ff3",
        "value": "0x0",
        "input": "0x8bcd4016000000000000000000000000e91a4b01632a7d281fb3eb0e83ad9d5f0305d48f",
        "nonce": "0x35",
        "chainId": "0xba5ed"
      },
      "additionalContracts": [],
      "isFixedGasLimit": false
    },
    {
      "hash": "0x63ce348116aa3450248bc3adef0cf6484b632a26ae89e447b257ff2ad0e8f1a4",
      "transactionType": "CALL",
      "contractName": "BeaconProxy",
      "contractAddress": "0x3aeff4ad3ee66885de6ce1a485425bd8c987fce9",
      "function": null,
      "arguments": null,
      "transaction": {
        "from": "0x492c0b9f298cc49fe2644a2ebc6ea8df848c72fb",
        "to": "0x3aeff4ad3ee66885de6ce1a485425bd8c987fce9",
        "gas": "0x161cb",
        "value": "0x0",
        "input": "0xb4113ba700000000000000000000000000000000000000000000000000000000000005dc",
        "nonce": "0x36",
        "chainId": "0xba5ed"
      },
      "additionalContracts": [],
      "isFixedGasLimit": false
    },
    {
      "hash": "0x398ceca2ec6ffc160b3df0db873bac77d1d8bba8d7de2b44880981d79d0c6447",
      "transactionType": "CALL",
      "contractName": "BeaconProxy",
      "contractAddress": "0x3aeff4ad3ee66885de6ce1a485425bd8c987fce9",
      "function": null,
      "arguments": null,
      "transaction": {
        "from": "0x492c0b9f298cc49fe2644a2ebc6ea8df848c72fb",
        "to": "0x3aeff4ad3ee66885de6ce1a485425bd8c987fce9",
        "gas": "0xfe89",
        "value": "0x0",
        "input": "0xaf06d3cf0000000000000000000000000000000000000000000000000000000000000001",
        "nonce": "0x37",
        "chainId": "0xba5ed"
      },
      "additionalContracts": [],
      "isFixedGasLimit": false
    },
    {
      "hash": "0x06b14427e70c0cc095e6793fb85cab4e20f823de374c3e78264ecb5eda517707",
      "transactionType": "CALL",
      "contractName": "BeaconProxy",
      "contractAddress": "0x3aeff4ad3ee66885de6ce1a485425bd8c987fce9",
      "function": null,
      "arguments": null,
      "transaction": {
        "from": "0x492c0b9f298cc49fe2644a2ebc6ea8df848c72fb",
        "to": "0x3aeff4ad3ee66885de6ce1a485425bd8c987fce9",
        "gas": "0xf8db",
        "value": "0x0",
        "input": "0xd1a3a30800000000000000000000000000000000000000000000000000000000000000000000000000000000000000000000000000000000000000000000000000000000",
        "nonce": "0x38",
        "chainId": "0xba5ed"
      },
      "additionalContracts": [],
      "isFixedGasLimit": false
    },
    {
      "hash": "0x62cea49de9f0d4f075d6f8a0a484f5a075a360916911613e2960613e5150c131",
      "transactionType": "CALL",
      "contractName": "BeaconProxy",
      "contractAddress": "0x3aeff4ad3ee66885de6ce1a485425bd8c987fce9",
      "function": null,
      "arguments": null,
      "transaction": {
        "from": "0x492c0b9f298cc49fe2644a2ebc6ea8df848c72fb",
        "to": "0x3aeff4ad3ee66885de6ce1a485425bd8c987fce9",
        "gas": "0xec12",
        "value": "0x0",
        "input": "0xd87f780f00000000000000000000000000000000000000000000000000000000000000000000000000000000000000000000000000000000000000000000000000000000",
        "nonce": "0x39",
        "chainId": "0xba5ed"
      },
      "additionalContracts": [],
      "isFixedGasLimit": false
    },
    {
      "hash": "0xcdeb5de50e3c4ca2979a83a48ee4e3ddf14bd940a054121b8182715461edfc48",
      "transactionType": "CALL",
      "contractName": "BeaconProxy",
      "contractAddress": "0x92e92fdcac9dfed71721468efcb6952ec898ac53",
      "function": null,
      "arguments": null,
      "transaction": {
        "from": "0x492c0b9f298cc49fe2644a2ebc6ea8df848c72fb",
        "to": "0x92e92fdcac9dfed71721468efcb6952ec898ac53",
        "gas": "0x272be",
        "value": "0x0",
        "input": "0x4bca3d5b0000000000000000000000006d064558d58645439a64ce1e88989dfba88aa0520000000000000000000000000000000000000000000000000000000000001d4c00000000000000000000000000000000000000000000000000000000000021fc0000000000000000000000000000000000000000000000000000000000000000",
        "nonce": "0x3a",
        "chainId": "0xba5ed"
      },
      "additionalContracts": [],
      "isFixedGasLimit": false
    },
    {
      "hash": "0xfbd2e66580d0241962d166568fa88fb336158ae16d97aba87486d89a988c65d7",
      "transactionType": "CALL",
      "contractName": "BeaconProxy",
      "contractAddress": "0x92e92fdcac9dfed71721468efcb6952ec898ac53",
      "function": null,
      "arguments": null,
      "transaction": {
        "from": "0x492c0b9f298cc49fe2644a2ebc6ea8df848c72fb",
        "to": "0x92e92fdcac9dfed71721468efcb6952ec898ac53",
        "gas": "0x1f3a8",
        "value": "0x0",
        "input": "0x4bca3d5b0000000000000000000000003aeff4ad3ee66885de6ce1a485425bd8c987fce90000000000000000000000000000000000000000000000000000000000001d4c00000000000000000000000000000000000000000000000000000000000021fc0000000000000000000000000000000000000000000000000000000000000000",
        "nonce": "0x3b",
        "chainId": "0xba5ed"
      },
      "additionalContracts": [],
      "isFixedGasLimit": false
    },
    {
      "hash": "0x99e608226067b02ebddc548a300af7f9048980c5a915050dfd071cb26eaa91ce",
      "transactionType": "CALL",
      "contractName": "BeaconProxy",
      "contractAddress": "0x6d064558d58645439a64ce1e88989dfba88aa052",
      "function": null,
      "arguments": null,
      "transaction": {
        "from": "0x492c0b9f298cc49fe2644a2ebc6ea8df848c72fb",
        "to": "0x6d064558d58645439a64ce1e88989dfba88aa052",
        "gas": "0x272be",
        "value": "0x0",
        "input": "0x4bca3d5b00000000000000000000000092e92fdcac9dfed71721468efcb6952ec898ac530000000000000000000000000000000000000000000000000000000000001d4c00000000000000000000000000000000000000000000000000000000000021fc0000000000000000000000000000000000000000000000000000000000000000",
        "nonce": "0x3c",
        "chainId": "0xba5ed"
      },
      "additionalContracts": [],
      "isFixedGasLimit": false
    },
    {
      "hash": "0xbdde8ad1f6655127e5356769ddd521d714a2ee15855784146edb3f75548101cf",
      "transactionType": "CALL",
      "contractName": "BeaconProxy",
      "contractAddress": "0x3aeff4ad3ee66885de6ce1a485425bd8c987fce9",
      "function": null,
      "arguments": null,
      "transaction": {
        "from": "0x492c0b9f298cc49fe2644a2ebc6ea8df848c72fb",
        "to": "0x3aeff4ad3ee66885de6ce1a485425bd8c987fce9",
        "gas": "0x272be",
        "value": "0x0",
        "input": "0x4bca3d5b00000000000000000000000092e92fdcac9dfed71721468efcb6952ec898ac530000000000000000000000000000000000000000000000000000000000001d4c00000000000000000000000000000000000000000000000000000000000021fc0000000000000000000000000000000000000000000000000000000000000000",
        "nonce": "0x3d",
        "chainId": "0xba5ed"
      },
      "additionalContracts": [],
      "isFixedGasLimit": false
    }
  ],
  "receipts": [
    {
      "status": "0x1",
      "cumulativeGasUsed": "0x17f99",
      "logs": [
        {
          "address": "0xba1240b966e20e16ca32bbfc189528787794f2a9",
          "topics": [
            "0xddebe6de740fe0dd01cc33ffa314d11c6ac6acbbe50b80513c4c360ae7aa4f04",
            "0x000000000000000000000000d821a7d919e007b6b39925f672f1219db4865fba"
          ],
          "data": "0x",
          "blockHash": "0x0000000000000000000000000000000000000000000000000000000000000000",
          "blockNumber": "0x2bd852b",
          "blockTimestamp": "0x69cc044b",
          "transactionHash": "0x71871897a1cb9518e3214cff6444688e18ba49e978f4cc64d2d6c89a0065e8c3",
          "transactionIndex": "0x1",
          "logIndex": "0x0",
          "removed": false
        }
      ],
      "logsBloom": "0x00080000000000000000000000000000000000000000000000000000000000000000000000200000000000000000000000000000000000100000000000000000000000000000000000000000000000800000000000000000000000000000000000000000000000000000000000000000000000000000000000000000000000000040000000000000000000000000000000000000000000000008000000000000000000000000000000000000000000100000000000000000000000000000000000000200000000000000000000000000000000000000000000000000000400000000000000000000000000000000000000000000000000000000000000000000",
      "type": "0x0",
      "transactionHash": "0x71871897a1cb9518e3214cff6444688e18ba49e978f4cc64d2d6c89a0065e8c3",
      "transactionIndex": "0x1",
      "blockHash": "0x0000000000000000000000000000000000000000000000000000000000000000",
      "blockNumber": "0x2bd852b",
      "gasUsed": "0xcb57",
      "effectiveGasPrice": "0xf433c",
      "blobGasUsed": "0x9c40",
      "from": "0x492c0b9f298cc49fe2644a2ebc6ea8df848c72fb",
      "to": "0xba1240b966e20e16ca32bbfc189528787794f2a9",
      "contractAddress": null,
      "daFootprintGasScalar": "0x190",
      "l1BaseFeeScalar": "0xc3c9d",
      "l1BlobBaseFee": "0x87d",
      "l1BlobBaseFeeScalar": "0x0",
      "l1Fee": "0x298efb3",
      "l1GasPrice": "0x84aa",
      "l1GasUsed": "0x640"
    },
    {
      "status": "0x1",
      "cumulativeGasUsed": "0x12a64c",
      "logs": [
        {
          "address": "0x92e92fdcac9dfed71721468efcb6952ec898ac53",
          "topics": [
            "0x6bf6eaff5e9af8fbccb949f4c38cc016936f8775363ccf4224db160365785d52"
          ],
          "data": "0x",
          "blockHash": "0x0000000000000000000000000000000000000000000000000000000000000000",
          "blockNumber": "0x2bd852b",
          "blockTimestamp": "0x69cc044b",
          "transactionHash": "0x43c7a952832c1762c8ab65baed938f31b0e9f1c01741ddf334beb495886044f9",
          "transactionIndex": "0x2",
          "logIndex": "0x1",
          "removed": false
        },
        {
          "address": "0xb694120ecdc69fbbee3ae21831d7b76ab8a9169b",
          "topics": [
            "0x0d86caf31c60e8930bb317807498caf621639c94c6a4008b7447e34ee9bc8ada",
            "0x0000000000000000000000000000000000000000000000000000000000000001",
            "0x00000000000000000000000092e92fdcac9dfed71721468efcb6952ec898ac53"
          ],
          "data": "0x000000000000000000000000000000000000000000000000000000000000002000000000000000000000000000000000000000000000000000000000000000045553444300000000000000000000000000000000000000000000000000000000",
          "blockHash": "0x0000000000000000000000000000000000000000000000000000000000000000",
          "blockNumber": "0x2bd852b",
          "blockTimestamp": "0x69cc044b",
          "transactionHash": "0x43c7a952832c1762c8ab65baed938f31b0e9f1c01741ddf334beb495886044f9",
          "transactionIndex": "0x2",
          "logIndex": "0x2",
          "removed": false
        },
        {
          "address": "0x92e92fdcac9dfed71721468efcb6952ec898ac53",
          "topics": [
            "0x0cd345140b9008a43f99a999a328ece572a0193e8c8bf5f5755585e6f293b85e",
            "0x000000000000000000000000492c0b9f298cc49fe2644a2ebc6ea8df848c72fb",
            "0x0000000000000000000000006b57475467cd854d36be7fb614cada5207838943"
          ],
          "data": "0x00000000000000000000000093694e545f002aa911f1dbf3202603d231cd7a10",
          "blockHash": "0x0000000000000000000000000000000000000000000000000000000000000000",
          "blockNumber": "0x2bd852b",
          "blockTimestamp": "0x69cc044b",
          "transactionHash": "0x43c7a952832c1762c8ab65baed938f31b0e9f1c01741ddf334beb495886044f9",
          "transactionIndex": "0x2",
          "logIndex": "0x3",
          "removed": false
        },
        {
          "address": "0x92e92fdcac9dfed71721468efcb6952ec898ac53",
          "topics": [
            "0x80b61abbfc5f73cfe5cf93cec97a69ed20643dc6c6f1833b05a1560aa164e24c"
          ],
          "data": "0x00000000000000000000000000000000000000000000000000000000000000000000000000000000000000000000000000000000000000000000000000000000000000000000000000000000000000000000000000000000000000000000000000000000000000000000000000000000000000000000000000000000000000000000000000000000000000000000000000000000033b2e3c9fd0803ce800000000000000000000000000000000000000000000000000000000000000000000000000000000000000000000000000000000000000000000000000000069cc044b",
          "blockHash": "0x0000000000000000000000000000000000000000000000000000000000000000",
          "blockNumber": "0x2bd852b",
          "blockTimestamp": "0x69cc044b",
          "transactionHash": "0x43c7a952832c1762c8ab65baed938f31b0e9f1c01741ddf334beb495886044f9",
          "transactionIndex": "0x2",
          "logIndex": "0x4",
          "removed": false
        },
        {
          "address": "0xba1240b966e20e16ca32bbfc189528787794f2a9",
          "topics": [
            "0x04e664079117e113faa9684bc14aecb41651cbf098b14eda271248c6d0cda57c",
            "0x00000000000000000000000092e92fdcac9dfed71721468efcb6952ec898ac53"
          ],
          "data": "0x0000000000000000000000000000000000000000000000000000000000000001000000000000000000000000d821a7d919e007b6b39925f672f1219db4865fba0000000000000000000000000000000000000000000000000000000000000060000000000000000000000000000000000000000000000000000000000000003c6b57475467cd854d36be7fb614cada52078389430000000000000000000000000000000000000000000000000000000000000000000000000000000000000000",
          "blockHash": "0x0000000000000000000000000000000000000000000000000000000000000000",
          "blockNumber": "0x2bd852b",
          "blockTimestamp": "0x69cc044b",
          "transactionHash": "0x43c7a952832c1762c8ab65baed938f31b0e9f1c01741ddf334beb495886044f9",
          "transactionIndex": "0x2",
          "logIndex": "0x5",
          "removed": false
        }
      ],
      "logsBloom": "0x00000000000000000000000000000000000000000000000000000000400000000000000000000001000010000004000000000000000000100000000000040010000000000000000000000000000000000000000000050000004a00000008000000000000000000000000000000000180800000020000020000000000000000000440000000000000020000000000000000800000000000000000000000000000000000000000000800000000000004000002000002020000000000080000800000000200000000000000000000000002200000000080000000000000000044000000080000000000000000000000000000000000000000000000000000000000",
      "type": "0x0",
      "transactionHash": "0x43c7a952832c1762c8ab65baed938f31b0e9f1c01741ddf334beb495886044f9",
      "transactionIndex": "0x2",
      "blockHash": "0x0000000000000000000000000000000000000000000000000000000000000000",
      "blockNumber": "0x2bd852b",
      "gasUsed": "0x1126b3",
      "effectiveGasPrice": "0xf433c",
      "blobGasUsed": "0x9c40",
      "from": "0x492c0b9f298cc49fe2644a2ebc6ea8df848c72fb",
      "to": "0xba1240b966e20e16ca32bbfc189528787794f2a9",
      "contractAddress": null,
      "daFootprintGasScalar": "0x190",
      "l1BaseFeeScalar": "0xc3c9d",
      "l1BlobBaseFee": "0x87d",
      "l1BlobBaseFeeScalar": "0x0",
      "l1Fee": "0x298efb3",
      "l1GasPrice": "0x84aa",
      "l1GasUsed": "0x640"
    },
    {
      "status": "0x1",
      "cumulativeGasUsed": "0x138df0",
      "logs": [
        {
          "address": "0x92e92fdcac9dfed71721468efcb6952ec898ac53",
          "topics": [
            "0x80b61abbfc5f73cfe5cf93cec97a69ed20643dc6c6f1833b05a1560aa164e24c"
          ],
          "data": "0x00000000000000000000000000000000000000000000000000000000000000000000000000000000000000000000000000000000000000000000000000000000000000000000000000000000000000000000000000000000000000000000000000000000000000000000000000000000000000000000000000000000000000000000000000000000000000000000000000000000033b2e3c9fd0803ce800000000000000000000000000000000000000000000000000000000000000000000000000000000000000000000000000000000000000000000000000000069cc044b",
          "blockHash": "0x0000000000000000000000000000000000000000000000000000000000000000",
          "blockNumber": "0x2bd852b",
          "blockTimestamp": "0x69cc044b",
          "transactionHash": "0x7aa04956c8a34a1bdfda2d96e8972de57419204bfdac7d321f5e07fa5704c51c",
          "transactionIndex": "0x3",
          "logIndex": "0x6",
          "removed": false
        },
        {
          "address": "0x92e92fdcac9dfed71721468efcb6952ec898ac53",
          "topics": [
            "0xe5f2a795fc5f8baf1b05659293834c88859298226d87422c88624b4c9f4d3a43"
          ],
          "data": "0x000000000000000000000000e91a4b01632a7d281fb3eb0e83ad9d5f0305d48f",
          "blockHash": "0x0000000000000000000000000000000000000000000000000000000000000000",
          "blockNumber": "0x2bd852b",
          "blockTimestamp": "0x69cc044b",
          "transactionHash": "0x7aa04956c8a34a1bdfda2d96e8972de57419204bfdac7d321f5e07fa5704c51c",
          "transactionIndex": "0x3",
          "logIndex": "0x7",
          "removed": false
        }
      ],
      "logsBloom": "0x00000000000000000000000000000000000000000000000000000000000000000000000000000000000000000000000000000000000000000000000000000000000000000000000000000000000000000000000000000000004000000000000000000000000000000000000000000100000000000000000000000000000000000000000000000000000000000000000000000000000000000000000000000000000000000000000000000000000000000002000000020000000000000100800000000000000000000000000000000002000000000000000000000000000000000000000000000000000100100000000000000000000000000000000000000000",
      "type": "0x0",
      "transactionHash": "0x7aa04956c8a34a1bdfda2d96e8972de57419204bfdac7d321f5e07fa5704c51c",
      "transactionIndex": "0x3",
      "blockHash": "0x0000000000000000000000000000000000000000000000000000000000000000",
      "blockNumber": "0x2bd852b",
      "gasUsed": "0xe7a4",
      "effectiveGasPrice": "0xf433c",
      "blobGasUsed": "0x9c40",
      "from": "0x492c0b9f298cc49fe2644a2ebc6ea8df848c72fb",
      "to": "0x92e92fdcac9dfed71721468efcb6952ec898ac53",
      "contractAddress": null,
      "daFootprintGasScalar": "0x190",
      "l1BaseFeeScalar": "0xc3c9d",
      "l1BlobBaseFee": "0x87d",
      "l1BlobBaseFeeScalar": "0x0",
      "l1Fee": "0x298efb3",
      "l1GasPrice": "0x84aa",
      "l1GasUsed": "0x640"
    },
    {
      "status": "0x1",
      "cumulativeGasUsed": "0x147fd9",
      "logs": [
        {
          "address": "0x92e92fdcac9dfed71721468efcb6952ec898ac53",
          "topics": [
            "0x558a63d245d08220a137de3573129d3921e70e806adccf3a068c4723b9b3322d"
          ],
          "data": "0x00000000000000000000000000000000000000000000000000000000000005dc",
          "blockHash": "0x3b65ce3386d32a87170effabdb0a89c92498bbb1b14aa9004ff9f78036cc3a72",
          "blockNumber": "0x2bd852b",
          "blockTimestamp": "0x69cc044b",
          "transactionHash": "0x971c3e4de7cd1f39d76d3bd4ea4a53b343c9b2a190c5fecfa92d53fa6644cac5",
          "transactionIndex": "0x4",
          "logIndex": "0x8",
          "removed": false
        }
      ],
      "logsBloom": "0x00000000000000000000000000000000000000000000000000000000000000000000000000000000000000000000000000000000000000000000000000000000000000000000000000000000000000000000000000000000000000000000000000000000000000000000000000000100001000000000000000000000000000000000000002000000000000000000000000000000000000000000000000000000000000000000000000000000000000000002000000000000000000000000000000000000000000000400000000000002000000000000000000000000000000000000000000000000000000000000000000000000000000000000000000000000",
      "type": "0x0",
      "transactionHash": "0x971c3e4de7cd1f39d76d3bd4ea4a53b343c9b2a190c5fecfa92d53fa6644cac5",
      "transactionIndex": "0x4",
      "blockHash": "0x3b65ce3386d32a87170effabdb0a89c92498bbb1b14aa9004ff9f78036cc3a72",
      "blockNumber": "0x2bd852b",
      "gasUsed": "0xf1e9",
      "effectiveGasPrice": "0xf433c",
      "blobGasUsed": "0x9c40",
      "from": "0x492c0b9f298cc49fe2644a2ebc6ea8df848c72fb",
      "to": "0x92e92fdcac9dfed71721468efcb6952ec898ac53",
      "contractAddress": null,
      "daFootprintGasScalar": "0x190",
      "l1BaseFeeScalar": "0xc3c9d",
      "l1BlobBaseFee": "0x87d",
      "l1BlobBaseFeeScalar": "0x0",
      "l1Fee": "0x298efb3",
      "l1GasPrice": "0x84aa",
      "l1GasUsed": "0x640"
    },
    {
      "status": "0x1",
      "cumulativeGasUsed": "0x152de4",
      "logs": [
        {
          "address": "0x92e92fdcac9dfed71721468efcb6952ec898ac53",
          "topics": [
            "0xdf4edc1d288e7b3306b287d03fd77b2070b8b308c702bf7297f72d928175dfa5"
          ],
          "data": "0x0000000000000000000000000000000000000000000000000000000000000001",
          "blockHash": "0x3b65ce3386d32a87170effabdb0a89c92498bbb1b14aa9004ff9f78036cc3a72",
          "blockNumber": "0x2bd852b",
          "blockTimestamp": "0x69cc044b",
          "transactionHash": "0x90be88288a07cdadc0c883e7ec10e9b9b9a8dbb9cf925bd23c5a301905f893a8",
          "transactionIndex": "0x5",
          "logIndex": "0x9",
          "removed": false
        }
      ],
      "logsBloom": "0x00000000000000000000000000000000000000000000000000000000000000000000000000000000000000000000000000000000000000000000000000000080000000000000000000000000000000000000000000000000000000000000000000000000000000000000000000000100000000000000000000000000000000000000000000000000000000000000000000000000000000200000000000000000000000000000000000000000000000000002000000000000000000000000000000000000000000000000000000000002000000000000000000000000000002000000000000000000000000000000000000000000000000000000000000000000",
      "type": "0x0",
      "transactionHash": "0x90be88288a07cdadc0c883e7ec10e9b9b9a8dbb9cf925bd23c5a301905f893a8",
      "transactionIndex": "0x5",
      "blockHash": "0x3b65ce3386d32a87170effabdb0a89c92498bbb1b14aa9004ff9f78036cc3a72",
      "blockNumber": "0x2bd852b",
      "gasUsed": "0xae0b",
      "effectiveGasPrice": "0xf433c",
      "blobGasUsed": "0x9c40",
      "from": "0x492c0b9f298cc49fe2644a2ebc6ea8df848c72fb",
      "to": "0x92e92fdcac9dfed71721468efcb6952ec898ac53",
      "contractAddress": null,
      "daFootprintGasScalar": "0x190",
      "l1BaseFeeScalar": "0xc3c9d",
      "l1BlobBaseFee": "0x87d",
      "l1BlobBaseFeeScalar": "0x0",
      "l1Fee": "0x298efb3",
      "l1GasPrice": "0x84aa",
      "l1GasUsed": "0x640"
    },
    {
      "status": "0x1",
      "cumulativeGasUsed": "0x15e210",
      "logs": [
        {
          "address": "0x92e92fdcac9dfed71721468efcb6952ec898ac53",
          "topics": [
            "0xabadffb695acdb6863cd1324a91e5c359712b9110a55f9103774e2fb67dedb6a",
            "0x0000000000000000000000000000000000000000000000000000000000000000"
          ],
          "data": "0x0000000000000000000000000000000000000000000000000000000000000000",
          "blockHash": "0x3b65ce3386d32a87170effabdb0a89c92498bbb1b14aa9004ff9f78036cc3a72",
          "blockNumber": "0x2bd852b",
          "blockTimestamp": "0x69cc044b",
          "transactionHash": "0x2a1c022c44a70136f1ae38acfac85dd1656a47ab7dac75b5d9fd8f89f9a990a6",
          "transactionIndex": "0x6",
          "logIndex": "0xa",
          "removed": false
        }
      ],
      "logsBloom": "0x00000000000000000000000000000000000000000000000100000000000000000000000000000000000000000000000000000000000000000000000000000000000000000000000000002000000000000000000000000000000002000000000000000000020000000000000000000900000000000000000000000000000000000000000000000000000000000000000000000000000000000000000000000000000000000000000000000000000000000002000000000000000000000000000000000000000000000000000000000002000000000000000000000000000020000000000000000000000000000000000000000000000000000000000000000000",
      "type": "0x0",
      "transactionHash": "0x2a1c022c44a70136f1ae38acfac85dd1656a47ab7dac75b5d9fd8f89f9a990a6",
      "transactionIndex": "0x6",
      "blockHash": "0x3b65ce3386d32a87170effabdb0a89c92498bbb1b14aa9004ff9f78036cc3a72",
      "blockNumber": "0x2bd852b",
      "gasUsed": "0xb42c",
      "effectiveGasPrice": "0xf433c",
      "blobGasUsed": "0x9c40",
      "from": "0x492c0b9f298cc49fe2644a2ebc6ea8df848c72fb",
      "to": "0x92e92fdcac9dfed71721468efcb6952ec898ac53",
      "contractAddress": null,
      "daFootprintGasScalar": "0x190",
      "l1BaseFeeScalar": "0xc3c9d",
      "l1BlobBaseFee": "0x87d",
      "l1BlobBaseFeeScalar": "0x0",
      "l1Fee": "0x298efb3",
      "l1GasPrice": "0x84aa",
      "l1GasUsed": "0x640"
    },
    {
      "status": "0x1",
      "cumulativeGasUsed": "0x16837b",
      "logs": [
        {
          "address": "0x92e92fdcac9dfed71721468efcb6952ec898ac53",
          "topics": [
            "0xadbdcd178dfddc478805a3703b6cf3b72ca5e78ecebacffe1aad03188cc1cbf4"
          ],
          "data": "0x00000000000000000000000000000000000000000000000000000000000000000000000000000000000000000000000000000000000000000000000000000000",
          "blockHash": "0x3b65ce3386d32a87170effabdb0a89c92498bbb1b14aa9004ff9f78036cc3a72",
          "blockNumber": "0x2bd852b",
          "blockTimestamp": "0x69cc044b",
          "transactionHash": "0x37c782b8c73abb941cdfab3e5a60dd752ea55fb6c3f136b66451c28600fa4890",
          "transactionIndex": "0x7",
          "logIndex": "0xb",
          "removed": false
        }
      ],
      "logsBloom": "0x00000000000000000000000000000100000000000000000000000000000000000000000000000000000000000000000000000000000000000000000000000000000000000000000000000000000000000000000000000000000000000000000000000000000000000000000000000100000000004000000000000000000000000000000000000000000000000000000000000000000000000000000000000000000000000000000000000000000000000002000000000000000000000000000000000000000000000000000000000002000000000000000000000000000000000000000000000000000000000000000000000000000000000000800000000000",
      "type": "0x0",
      "transactionHash": "0x37c782b8c73abb941cdfab3e5a60dd752ea55fb6c3f136b66451c28600fa4890",
      "transactionIndex": "0x7",
      "blockHash": "0x3b65ce3386d32a87170effabdb0a89c92498bbb1b14aa9004ff9f78036cc3a72",
      "blockNumber": "0x2bd852b",
      "gasUsed": "0xa16b",
      "effectiveGasPrice": "0xf433c",
      "blobGasUsed": "0x9c40",
      "from": "0x492c0b9f298cc49fe2644a2ebc6ea8df848c72fb",
      "to": "0x92e92fdcac9dfed71721468efcb6952ec898ac53",
      "contractAddress": null,
      "daFootprintGasScalar": "0x190",
      "l1BaseFeeScalar": "0xc3c9d",
      "l1BlobBaseFee": "0x87d",
      "l1BlobBaseFeeScalar": "0x0",
      "l1Fee": "0x298efb3",
      "l1GasPrice": "0x84aa",
      "l1GasUsed": "0x640"
    },
    {
      "status": "0x1",
      "cumulativeGasUsed": "0x276762",
      "logs": [
        {
          "address": "0x6d064558d58645439a64ce1e88989dfba88aa052",
          "topics": [
            "0x6bf6eaff5e9af8fbccb949f4c38cc016936f8775363ccf4224db160365785d52"
          ],
          "data": "0x",
          "blockHash": "0x0000000000000000000000000000000000000000000000000000000000000000",
          "blockNumber": "0x2bd852b",
          "blockTimestamp": "0x69cc044b",
          "transactionHash": "0x63ce348116aa3450248bc3adef0cf6484b632a26ae89e447b257ff2ad0e8f1a4",
          "transactionIndex": "0x8",
          "logIndex": "0xc",
          "removed": false
        },
        {
          "address": "0xb694120ecdc69fbbee3ae21831d7b76ab8a9169b",
          "topics": [
            "0x0d86caf31c60e8930bb317807498caf621639c94c6a4008b7447e34ee9bc8ada",
            "0x0000000000000000000000000000000000000000000000000000000000000001",
            "0x0000000000000000000000006d064558d58645439a64ce1e88989dfba88aa052"
          ],
          "data": "0x000000000000000000000000000000000000000000000000000000000000002000000000000000000000000000000000000000000000000000000000000000057753505978000000000000000000000000000000000000000000000000000000",
          "blockHash": "0x0000000000000000000000000000000000000000000000000000000000000000",
          "blockNumber": "0x2bd852b",
          "blockTimestamp": "0x69cc044b",
          "transactionHash": "0x63ce348116aa3450248bc3adef0cf6484b632a26ae89e447b257ff2ad0e8f1a4",
          "transactionIndex": "0x8",
          "logIndex": "0xd",
          "removed": false
        },
        {
          "address": "0x6d064558d58645439a64ce1e88989dfba88aa052",
          "topics": [
            "0x0cd345140b9008a43f99a999a328ece572a0193e8c8bf5f5755585e6f293b85e",
            "0x000000000000000000000000492c0b9f298cc49fe2644a2ebc6ea8df848c72fb",
            "0x0000000000000000000000009ef9f9b22d3ca9769e28e769e2aaa3c2b0072d0e"
          ],
          "data": "0x000000000000000000000000be337591e697f2fbc38bc87d16a95ccf21f63fe4",
          "blockHash": "0x0000000000000000000000000000000000000000000000000000000000000000",
          "blockNumber": "0x2bd852b",
          "blockTimestamp": "0x69cc044b",
          "transactionHash": "0x63ce348116aa3450248bc3adef0cf6484b632a26ae89e447b257ff2ad0e8f1a4",
          "transactionIndex": "0x8",
          "logIndex": "0xe",
          "removed": false
        },
        {
          "address": "0x6d064558d58645439a64ce1e88989dfba88aa052",
          "topics": [
            "0x80b61abbfc5f73cfe5cf93cec97a69ed20643dc6c6f1833b05a1560aa164e24c"
          ],
          "data": "0x00000000000000000000000000000000000000000000000000000000000000000000000000000000000000000000000000000000000000000000000000000000000000000000000000000000000000000000000000000000000000000000000000000000000000000000000000000000000000000000000000000000000000000000000000000000000000000000000000000000033b2e3c9fd0803ce800000000000000000000000000000000000000000000000000000000000000000000000000000000000000000000000000000000000000000000000000000069cc044b",
          "blockHash": "0x0000000000000000000000000000000000000000000000000000000000000000",
          "blockNumber": "0x2bd852b",
          "blockTimestamp": "0x69cc044b",
          "transactionHash": "0x63ce348116aa3450248bc3adef0cf6484b632a26ae89e447b257ff2ad0e8f1a4",
          "transactionIndex": "0x8",
          "logIndex": "0xf",
          "removed": false
        },
        {
          "address": "0xba1240b966e20e16ca32bbfc189528787794f2a9",
          "topics": [
            "0x04e664079117e113faa9684bc14aecb41651cbf098b14eda271248c6d0cda57c",
            "0x0000000000000000000000006d064558d58645439a64ce1e88989dfba88aa052"
          ],
          "data": "0x0000000000000000000000000000000000000000000000000000000000000001000000000000000000000000d821a7d919e007b6b39925f672f1219db4865fba0000000000000000000000000000000000000000000000000000000000000060000000000000000000000000000000000000000000000000000000000000003c9ef9f9b22d3ca9769e28e769e2aaa3c2b0072d0e0000000000000000000000000000000000000000000000000000000000000000000000000000000000000000",
          "blockHash": "0x0000000000000000000000000000000000000000000000000000000000000000",
          "blockNumber": "0x2bd852b",
          "blockTimestamp": "0x69cc044b",
          "transactionHash": "0x63ce348116aa3450248bc3adef0cf6484b632a26ae89e447b257ff2ad0e8f1a4",
          "transactionIndex": "0x8",
          "logIndex": "0x10",
          "removed": false
        }
      ],
      "logsBloom": "0x00000000000000000080000000000000000000000000001000000000000000000000000000200001000010000004000000000000000000100000000000040010000000000000000000000000000000000000000000050000004200000008000000000000040004000000000000000000000000020000020000000002000000000440000000000000020000000000000000800000000000000000000000000000000000000000000800000000000004000000000003020000000000080000800000000a00000000000000000000000000000000000080000000000000000040000000080000000000000000000000000000100000000000000000000000000000",
      "type": "0x0",
      "transactionHash": "0x63ce348116aa3450248bc3adef0cf6484b632a26ae89e447b257ff2ad0e8f1a4",
      "transactionIndex": "0x8",
      "blockHash": "0x0000000000000000000000000000000000000000000000000000000000000000",
      "blockNumber": "0x2bd852b",
      "gasUsed": "0x10e3e7",
      "effectiveGasPrice": "0xf433c",
      "blobGasUsed": "0x9c40",
      "from": "0x492c0b9f298cc49fe2644a2ebc6ea8df848c72fb",
      "to": "0xba1240b966e20e16ca32bbfc189528787794f2a9",
      "contractAddress": null,
      "daFootprintGasScalar": "0x190",
      "l1BaseFeeScalar": "0xc3c9d",
      "l1BlobBaseFee": "0x87d",
      "l1BlobBaseFeeScalar": "0x0",
      "l1Fee": "0x298efb3",
      "l1GasPrice": "0x84aa",
      "l1GasUsed": "0x640"
    },
    {
      "status": "0x1",
      "cumulativeGasUsed": "0x284f06",
      "logs": [
        {
          "address": "0x6d064558d58645439a64ce1e88989dfba88aa052",
          "topics": [
            "0x80b61abbfc5f73cfe5cf93cec97a69ed20643dc6c6f1833b05a1560aa164e24c"
          ],
          "data": "0x00000000000000000000000000000000000000000000000000000000000000000000000000000000000000000000000000000000000000000000000000000000000000000000000000000000000000000000000000000000000000000000000000000000000000000000000000000000000000000000000000000000000000000000000000000000000000000000000000000000033b2e3c9fd0803ce800000000000000000000000000000000000000000000000000000000000000000000000000000000000000000000000000000000000000000000000000000069cc044b",
          "blockHash": "0x3b65ce3386d32a87170effabdb0a89c92498bbb1b14aa9004ff9f78036cc3a72",
          "blockNumber": "0x2bd852b",
          "blockTimestamp": "0x69cc044b",
          "transactionHash": "0x09bfb1a9cee374024d75be892b65bce5a2f5ac5f1d47032c214ebf8fa1a01dc9",
          "transactionIndex": "0x9",
          "logIndex": "0x11",
          "removed": false
        },
        {
          "address": "0x6d064558d58645439a64ce1e88989dfba88aa052",
          "topics": [
            "0xe5f2a795fc5f8baf1b05659293834c88859298226d87422c88624b4c9f4d3a43"
          ],
          "data": "0x000000000000000000000000e91a4b01632a7d281fb3eb0e83ad9d5f0305d48f",
          "blockHash": "0x3b65ce3386d32a87170effabdb0a89c92498bbb1b14aa9004ff9f78036cc3a72",
          "blockNumber": "0x2bd852b",
          "blockTimestamp": "0x69cc044b",
          "transactionHash": "0x09bfb1a9cee374024d75be892b65bce5a2f5ac5f1d47032c214ebf8fa1a01dc9",
          "transactionIndex": "0x9",
          "logIndex": "0x12",
          "removed": false
        }
      ],
      "logsBloom": "0x00000000000000000000000000000000000000000000000000000000000000000000000000200000000000000000000000000000000000000000000000000000000000000000000000000000000000000000000000000000004000000000000000000000000000000000000000000000000000000000000000000002000000000000000000000000000000000000000000000000000000000000000000000000000000000000000000000000000000000000000001020000000000000100800000000000000000000000000000000000000000000000000000000000000000000000000000000000000100100000000000000000000000000000000000000000",
      "type": "0x0",
      "transactionHash": "0x09bfb1a9cee374024d75be892b65bce5a2f5ac5f1d47032c214ebf8fa1a01dc9",
      "transactionIndex": "0x9",
      "blockHash": "0x3b65ce3386d32a87170effabdb0a89c92498bbb1b14aa9004ff9f78036cc3a72",
      "blockNumber": "0x2bd852b",
      "gasUsed": "0xe7a4",
      "effectiveGasPrice": "0xf433c",
      "blobGasUsed": "0x9c40",
      "from": "0x492c0b9f298cc49fe2644a2ebc6ea8df848c72fb",
      "to": "0x6d064558d58645439a64ce1e88989dfba88aa052",
      "contractAddress": null,
      "daFootprintGasScalar": "0x190",
      "l1BaseFeeScalar": "0xc3c9d",
      "l1BlobBaseFee": "0x87d",
      "l1BlobBaseFeeScalar": "0x0",
      "l1Fee": "0x298efb3",
      "l1GasPrice": "0x84aa",
      "l1GasUsed": "0x640"
    },
    {
      "status": "0x1",
      "cumulativeGasUsed": "0x2940ef",
      "logs": [
        {
          "address": "0x6d064558d58645439a64ce1e88989dfba88aa052",
          "topics": [
            "0x558a63d245d08220a137de3573129d3921e70e806adccf3a068c4723b9b3322d"
          ],
          "data": "0x00000000000000000000000000000000000000000000000000000000000005dc",
          "blockHash": "0x0000000000000000000000000000000000000000000000000000000000000000",
          "blockNumber": "0x2bd852b",
          "blockTimestamp": "0x69cc044b",
          "transactionHash": "0x62bb4c18959db5c236f10346a2c0189082ae6843d1b7bf8d4b44a140a03c9f35",
          "transactionIndex": "0xa",
          "logIndex": "0x13",
          "removed": false
        }
      ],
      "logsBloom": "0x00000000000000000000000000000000000000000000000000000000000000000000000000200000000000000000000000000000000000000000000000000000000000000000000000000000000000000000000000000000000000000000000000000000000000000000000000000000001000000000000000000002000000000000000002000000000000000000000000000000000000000000000000000000000000000000000000000000000000000000000001000000000000000000000000000000000000000400000000000000000000000000000000000000000000000000000000000000000000000000000000000000000000000000000000000000",
      "type": "0x0",
      "transactionHash": "0x62bb4c18959db5c236f10346a2c0189082ae6843d1b7bf8d4b44a140a03c9f35",
      "transactionIndex": "0xa",
      "blockHash": "0x0000000000000000000000000000000000000000000000000000000000000000",
      "blockNumber": "0x2bd852b",
      "gasUsed": "0xf1e9",
      "effectiveGasPrice": "0xf433c",
      "blobGasUsed": "0x9c40",
      "from": "0x492c0b9f298cc49fe2644a2ebc6ea8df848c72fb",
      "to": "0x6d064558d58645439a64ce1e88989dfba88aa052",
      "contractAddress": null,
      "daFootprintGasScalar": "0x190",
      "l1BaseFeeScalar": "0xc3c9d",
      "l1BlobBaseFee": "0x87d",
      "l1BlobBaseFeeScalar": "0x0",
      "l1Fee": "0x298efb3",
      "l1GasPrice": "0x84aa",
      "l1GasUsed": "0x640"
    },
    {
      "status": "0x1",
      "cumulativeGasUsed": "0x29eefa",
      "logs": [
        {
          "address": "0x6d064558d58645439a64ce1e88989dfba88aa052",
          "topics": [
            "0xdf4edc1d288e7b3306b287d03fd77b2070b8b308c702bf7297f72d928175dfa5"
          ],
          "data": "0x0000000000000000000000000000000000000000000000000000000000000001",
          "blockHash": "0x0000000000000000000000000000000000000000000000000000000000000000",
          "blockNumber": "0x2bd852b",
          "blockTimestamp": "0x69cc044b",
          "transactionHash": "0x78a115282b2a163a954f672be80596dcaac3453cdfa909b795b3d7103f19f4c8",
          "transactionIndex": "0xb",
          "logIndex": "0x14",
          "removed": false
        }
      ],
      "logsBloom": "0x00000000000000000000000000000000000000000000000000000000000000000000000000200000000000000000000000000000000000000000000000000080000000000000000000000000000000000000000000000000000000000000000000000000000000000000000000000000000000000000000000000002000000000000000000000000000000000000000000000000000000200000000000000000000000000000000000000000000000000000000001000000000000000000000000000000000000000000000000000000000000000000000000000000000002000000000000000000000000000000000000000000000000000000000000000000",
      "type": "0x0",
      "transactionHash": "0x78a115282b2a163a954f672be80596dcaac3453cdfa909b795b3d7103f19f4c8",
      "transactionIndex": "0xb",
      "blockHash": "0x0000000000000000000000000000000000000000000000000000000000000000",
      "blockNumber": "0x2bd852b",
      "gasUsed": "0xae0b",
      "effectiveGasPrice": "0xf433c",
      "blobGasUsed": "0x9c40",
      "from": "0x492c0b9f298cc49fe2644a2ebc6ea8df848c72fb",
      "to": "0x6d064558d58645439a64ce1e88989dfba88aa052",
      "contractAddress": null,
      "daFootprintGasScalar": "0x190",
      "l1BaseFeeScalar": "0xc3c9d",
      "l1BlobBaseFee": "0x87d",
      "l1BlobBaseFeeScalar": "0x0",
      "l1Fee": "0x298efb3",
      "l1GasPrice": "0x84aa",
      "l1GasUsed": "0x640"
    },
    {
      "status": "0x1",
      "cumulativeGasUsed": "0x2aa326",
      "logs": [
        {
          "address": "0x6d064558d58645439a64ce1e88989dfba88aa052",
          "topics": [
            "0xabadffb695acdb6863cd1324a91e5c359712b9110a55f9103774e2fb67dedb6a",
            "0x0000000000000000000000000000000000000000000000000000000000000000"
          ],
          "data": "0x0000000000000000000000000000000000000000000000000000000000000000",
          "blockHash": "0x3b65ce3386d32a87170effabdb0a89c92498bbb1b14aa9004ff9f78036cc3a72",
          "blockNumber": "0x2bd852b",
          "blockTimestamp": "0x69cc044b",
          "transactionHash": "0x40a256e0c7e078d11038ea22931aa97f370d1c81c6f636d013fc06ef654c76bd",
          "transactionIndex": "0xc",
          "logIndex": "0x15",
          "removed": false
        }
      ],
      "logsBloom": "0x00000000000000000000000000000000000000000000000100000000000000000000000000200000000000000000000000000000000000000000000000000000000000000000000000002000000000000000000000000000000002000000000000000000020000000000000000000800000000000000000000000002000000000000000000000000000000000000000000000000000000000000000000000000000000000000000000000000000000000000000001000000000000000000000000000000000000000000000000000000000000000000000000000000000020000000000000000000000000000000000000000000000000000000000000000000",
      "type": "0x0",
      "transactionHash": "0x40a256e0c7e078d11038ea22931aa97f370d1c81c6f636d013fc06ef654c76bd",
      "transactionIndex": "0xc",
      "blockHash": "0x3b65ce3386d32a87170effabdb0a89c92498bbb1b14aa9004ff9f78036cc3a72",
      "blockNumber": "0x2bd852b",
      "gasUsed": "0xb42c",
      "effectiveGasPrice": "0xf433c",
      "blobGasUsed": "0x9c40",
      "from": "0x492c0b9f298cc49fe2644a2ebc6ea8df848c72fb",
      "to": "0x6d064558d58645439a64ce1e88989dfba88aa052",
      "contractAddress": null,
      "daFootprintGasScalar": "0x190",
      "l1BaseFeeScalar": "0xc3c9d",
      "l1BlobBaseFee": "0x87d",
      "l1BlobBaseFeeScalar": "0x0",
      "l1Fee": "0x298efb3",
      "l1GasPrice": "0x84aa",
      "l1GasUsed": "0x640"
    },
    {
      "status": "0x1",
      "cumulativeGasUsed": "0x2b4491",
      "logs": [
        {
          "address": "0x6d064558d58645439a64ce1e88989dfba88aa052",
          "topics": [
            "0xadbdcd178dfddc478805a3703b6cf3b72ca5e78ecebacffe1aad03188cc1cbf4"
          ],
          "data": "0x00000000000000000000000000000000000000000000000000000000000000000000000000000000000000000000000000000000000000000000000000000000",
          "blockHash": "0x3b65ce3386d32a87170effabdb0a89c92498bbb1b14aa9004ff9f78036cc3a72",
          "blockNumber": "0x2bd852b",
          "blockTimestamp": "0x69cc044b",
          "transactionHash": "0x9e0cf2906667ebbe8c546a81b94f5f50b0f613890f47406ded307f728a6076dc",
          "transactionIndex": "0xd",
          "logIndex": "0x16",
          "removed": false
        }
      ],
      "logsBloom": "0x00000000000000000000000000000100000000000000000000000000000000000000000000200000000000000000000000000000000000000000000000000000000000000000000000000000000000000000000000000000000000000000000000000000000000000000000000000000000000004000000000000002000000000000000000000000000000000000000000000000000000000000000000000000000000000000000000000000000000000000000001000000000000000000000000000000000000000000000000000000000000000000000000000000000000000000000000000000000000000000000000000000000000000000800000000000",
      "type": "0x0",
      "transactionHash": "0x9e0cf2906667ebbe8c546a81b94f5f50b0f613890f47406ded307f728a6076dc",
      "transactionIndex": "0xd",
      "blockHash": "0x3b65ce3386d32a87170effabdb0a89c92498bbb1b14aa9004ff9f78036cc3a72",
      "blockNumber": "0x2bd852b",
      "gasUsed": "0xa16b",
      "effectiveGasPrice": "0xf433c",
      "blobGasUsed": "0x9c40",
      "from": "0x492c0b9f298cc49fe2644a2ebc6ea8df848c72fb",
      "to": "0x6d064558d58645439a64ce1e88989dfba88aa052",
      "contractAddress": null,
      "daFootprintGasScalar": "0x190",
      "l1BaseFeeScalar": "0xc3c9d",
      "l1BlobBaseFee": "0x87d",
      "l1BlobBaseFeeScalar": "0x0",
      "l1Fee": "0x298efb3",
      "l1GasPrice": "0x84aa",
      "l1GasUsed": "0x640"
    },
    {
      "status": "0x1",
      "cumulativeGasUsed": "0x3c2878",
      "logs": [
        {
          "address": "0x3aeff4ad3ee66885de6ce1a485425bd8c987fce9",
          "topics": [
            "0x6bf6eaff5e9af8fbccb949f4c38cc016936f8775363ccf4224db160365785d52"
          ],
          "data": "0x",
          "blockHash": "0x3b65ce3386d32a87170effabdb0a89c92498bbb1b14aa9004ff9f78036cc3a72",
          "blockNumber": "0x2bd852b",
          "blockTimestamp": "0x69cc044b",
          "transactionHash": "0xcdeb5de50e3c4ca2979a83a48ee4e3ddf14bd940a054121b8182715461edfc48",
          "transactionIndex": "0xe",
          "logIndex": "0x17",
          "removed": false
        },
        {
          "address": "0xb694120ecdc69fbbee3ae21831d7b76ab8a9169b",
          "topics": [
            "0x0d86caf31c60e8930bb317807498caf621639c94c6a4008b7447e34ee9bc8ada",
            "0x0000000000000000000000000000000000000000000000000000000000000001",
            "0x0000000000000000000000003aeff4ad3ee66885de6ce1a485425bd8c987fce9"
          ],
          "data": "0x000000000000000000000000000000000000000000000000000000000000002000000000000000000000000000000000000000000000000000000000000000057751515178000000000000000000000000000000000000000000000000000000",
          "blockHash": "0x3b65ce3386d32a87170effabdb0a89c92498bbb1b14aa9004ff9f78036cc3a72",
          "blockNumber": "0x2bd852b",
          "blockTimestamp": "0x69cc044b",
          "transactionHash": "0xcdeb5de50e3c4ca2979a83a48ee4e3ddf14bd940a054121b8182715461edfc48",
          "transactionIndex": "0xe",
          "logIndex": "0x18",
          "removed": false
        },
        {
          "address": "0x3aeff4ad3ee66885de6ce1a485425bd8c987fce9",
          "topics": [
            "0x0cd345140b9008a43f99a999a328ece572a0193e8c8bf5f5755585e6f293b85e",
            "0x000000000000000000000000492c0b9f298cc49fe2644a2ebc6ea8df848c72fb",
            "0x000000000000000000000000267ed9bc43b16d832cb9aaf0e3445f0cc9f536d9"
          ],
          "data": "0x00000000000000000000000074b141aac98a925866148329bca32ce39c4dae8d",
          "blockHash": "0x3b65ce3386d32a87170effabdb0a89c92498bbb1b14aa9004ff9f78036cc3a72",
          "blockNumber": "0x2bd852b",
          "blockTimestamp": "0x69cc044b",
          "transactionHash": "0xcdeb5de50e3c4ca2979a83a48ee4e3ddf14bd940a054121b8182715461edfc48",
          "transactionIndex": "0xe",
          "logIndex": "0x19",
          "removed": false
        },
        {
          "address": "0x3aeff4ad3ee66885de6ce1a485425bd8c987fce9",
          "topics": [
            "0x80b61abbfc5f73cfe5cf93cec97a69ed20643dc6c6f1833b05a1560aa164e24c"
          ],
          "data": "0x00000000000000000000000000000000000000000000000000000000000000000000000000000000000000000000000000000000000000000000000000000000000000000000000000000000000000000000000000000000000000000000000000000000000000000000000000000000000000000000000000000000000000000000000000000000000000000000000000000000033b2e3c9fd0803ce800000000000000000000000000000000000000000000000000000000000000000000000000000000000000000000000000000000000000000000000000000069cc044b",
          "blockHash": "0x3b65ce3386d32a87170effabdb0a89c92498bbb1b14aa9004ff9f78036cc3a72",
          "blockNumber": "0x2bd852b",
          "blockTimestamp": "0x69cc044b",
          "transactionHash": "0xcdeb5de50e3c4ca2979a83a48ee4e3ddf14bd940a054121b8182715461edfc48",
          "transactionIndex": "0xe",
          "logIndex": "0x1a",
          "removed": false
        },
        {
          "address": "0xba1240b966e20e16ca32bbfc189528787794f2a9",
          "topics": [
            "0x04e664079117e113faa9684bc14aecb41651cbf098b14eda271248c6d0cda57c",
            "0x0000000000000000000000003aeff4ad3ee66885de6ce1a485425bd8c987fce9"
          ],
          "data": "0x0000000000000000000000000000000000000000000000000000000000000001000000000000000000000000d821a7d919e007b6b39925f672f1219db4865fba0000000000000000000000000000000000000000000000000000000000000060000000000000000000000000000000000000000000000000000000000000003c267ed9bc43b16d832cb9aaf0e3445f0cc9f536d90000000000000000000000000000000000000000000000000000000000000000000000000000000000000000",
          "blockHash": "0x3b65ce3386d32a87170effabdb0a89c92498bbb1b14aa9004ff9f78036cc3a72",
          "blockNumber": "0x2bd852b",
          "blockTimestamp": "0x69cc044b",
          "transactionHash": "0xcdeb5de50e3c4ca2979a83a48ee4e3ddf14bd940a054121b8182715461edfc48",
          "transactionIndex": "0xe",
          "logIndex": "0x1b",
          "removed": false
        }
      ],
      "logsBloom": "0x00000000000008000000000000000000000020000000000000000000000000200000000000000001000010000004000000000000000000100000000000040010000000088000000000000000000000000000000000050000004200000008000000000000000000000000000020000000000000020000020800000000000000000440000000000000020000000000000000800001000000000000000000000000000000000000000800000000000004000000000002020000000000080000800000000200000000000000000000000000000000000080000000000000000040000000080000000020000000000000000000000000000000000000000000000000",
      "type": "0x0",
      "transactionHash": "0xcdeb5de50e3c4ca2979a83a48ee4e3ddf14bd940a054121b8182715461edfc48",
      "transactionIndex": "0xe",
      "blockHash": "0x3b65ce3386d32a87170effabdb0a89c92498bbb1b14aa9004ff9f78036cc3a72",
      "blockNumber": "0x2bd852b",
      "gasUsed": "0x10e3e7",
      "effectiveGasPrice": "0xf433c",
      "blobGasUsed": "0x9c40",
      "from": "0x492c0b9f298cc49fe2644a2ebc6ea8df848c72fb",
      "to": "0xba1240b966e20e16ca32bbfc189528787794f2a9",
      "contractAddress": null,
      "daFootprintGasScalar": "0x190",
      "l1BaseFeeScalar": "0xc3c9d",
      "l1BlobBaseFee": "0x87d",
      "l1BlobBaseFeeScalar": "0x0",
      "l1Fee": "0x298efb3",
      "l1GasPrice": "0x84aa",
      "l1GasUsed": "0x640"
    },
    {
      "status": "0x1",
      "cumulativeGasUsed": "0x3d101c",
      "logs": [
        {
          "address": "0x3aeff4ad3ee66885de6ce1a485425bd8c987fce9",
          "topics": [
            "0x80b61abbfc5f73cfe5cf93cec97a69ed20643dc6c6f1833b05a1560aa164e24c"
          ],
          "data": "0x00000000000000000000000000000000000000000000000000000000000000000000000000000000000000000000000000000000000000000000000000000000000000000000000000000000000000000000000000000000000000000000000000000000000000000000000000000000000000000000000000000000000000000000000000000000000000000000000000000000033b2e3c9fd0803ce800000000000000000000000000000000000000000000000000000000000000000000000000000000000000000000000000000000000000000000000000000069cc044b",
          "blockHash": "0x0000000000000000000000000000000000000000000000000000000000000000",
          "blockNumber": "0x2bd852b",
          "blockTimestamp": "0x69cc044b",
          "transactionHash": "0x26bba1c486b9818570230ea56dbc3bbac4ca21f6afe6414ae19e5db77f5e15eb",
          "transactionIndex": "0xf",
          "logIndex": "0x1c",
          "removed": false
        },
        {
          "address": "0x3aeff4ad3ee66885de6ce1a485425bd8c987fce9",
          "topics": [
            "0xe5f2a795fc5f8baf1b05659293834c88859298226d87422c88624b4c9f4d3a43"
          ],
          "data": "0x000000000000000000000000e91a4b01632a7d281fb3eb0e83ad9d5f0305d48f",
          "blockHash": "0x0000000000000000000000000000000000000000000000000000000000000000",
          "blockNumber": "0x2bd852b",
          "blockTimestamp": "0x69cc044b",
          "transactionHash": "0x26bba1c486b9818570230ea56dbc3bbac4ca21f6afe6414ae19e5db77f5e15eb",
          "transactionIndex": "0xf",
          "logIndex": "0x1d",
          "removed": false
        }
      ],
      "logsBloom": "0x00000000000000000000000000000000000000000000000000000000000000200000000000000000000000000000000000000000000000000000000000000000000000080000000000000000000000000000000000000000004000000000000000000000000000000000000000000000000000000000000800000000000000000000000000000000000000000000000000000000000000000000000000000000000000000000000000000000000000000000000000020000000000000100800000000000000000000000000000000000000000000000000000000000000000000000000000000000000100100000000000000000000000000000000000000000",
      "type": "0x0",
      "transactionHash": "0x26bba1c486b9818570230ea56dbc3bbac4ca21f6afe6414ae19e5db77f5e15eb",
      "transactionIndex": "0xf",
      "blockHash": "0x0000000000000000000000000000000000000000000000000000000000000000",
      "blockNumber": "0x2bd852b",
      "gasUsed": "0xe7a4",
      "effectiveGasPrice": "0xf433c",
      "blobGasUsed": "0x9c40",
      "from": "0x492c0b9f298cc49fe2644a2ebc6ea8df848c72fb",
      "to": "0x3aeff4ad3ee66885de6ce1a485425bd8c987fce9",
      "contractAddress": null,
      "daFootprintGasScalar": "0x190",
      "l1BaseFeeScalar": "0xc3c9d",
      "l1BlobBaseFee": "0x87d",
      "l1BlobBaseFeeScalar": "0x0",
      "l1Fee": "0x298efb3",
      "l1GasPrice": "0x84aa",
      "l1GasUsed": "0x640"
    },
    {
      "status": "0x1",
      "cumulativeGasUsed": "0x3e0205",
      "logs": [
        {
          "address": "0x3aeff4ad3ee66885de6ce1a485425bd8c987fce9",
          "topics": [
            "0x558a63d245d08220a137de3573129d3921e70e806adccf3a068c4723b9b3322d"
          ],
          "data": "0x00000000000000000000000000000000000000000000000000000000000005dc",
          "blockHash": "0x3b65ce3386d32a87170effabdb0a89c92498bbb1b14aa9004ff9f78036cc3a72",
          "blockNumber": "0x2bd852b",
          "blockTimestamp": "0x69cc044b",
          "transactionHash": "0x6c88c003d5b85d5799d0c44ed68bc668c35b436f6c0a18b6261ed7973335ff80",
          "transactionIndex": "0x10",
          "logIndex": "0x1e",
          "removed": false
        }
      ],
      "logsBloom": "0x00000000000000000000000000000000000000000000000000000000000000200000000000000000000000000000000000000000000000000000000000000000000000080000000000000000000000000000000000000000000000000000000000000000000000000000000000000000001000000000000800000000000000000000000002000000000000000000000000000000000000000000000000000000000000000000000000000000000000000000000000000000000000000000000000000000000000000400000000000000000000000000000000000000000000000000000000000000000000000000000000000000000000000000000000000000",
      "type": "0x0",
      "transactionHash": "0x6c88c003d5b85d5799d0c44ed68bc668c35b436f6c0a18b6261ed7973335ff80",
      "transactionIndex": "0x10",
      "blockHash": "0x3b65ce3386d32a87170effabdb0a89c92498bbb1b14aa9004ff9f78036cc3a72",
      "blockNumber": "0x2bd852b",
      "gasUsed": "0xf1e9",
      "effectiveGasPrice": "0xf433c",
      "blobGasUsed": "0x9c40",
      "from": "0x492c0b9f298cc49fe2644a2ebc6ea8df848c72fb",
      "to": "0x3aeff4ad3ee66885de6ce1a485425bd8c987fce9",
      "contractAddress": null,
      "daFootprintGasScalar": "0x190",
      "l1BaseFeeScalar": "0xc3c9d",
      "l1BlobBaseFee": "0x87d",
      "l1BlobBaseFeeScalar": "0x0",
      "l1Fee": "0x298efb3",
      "l1GasPrice": "0x84aa",
      "l1GasUsed": "0x640"
    },
    {
      "status": "0x1",
      "cumulativeGasUsed": "0x3eb010",
      "logs": [
        {
          "address": "0x3aeff4ad3ee66885de6ce1a485425bd8c987fce9",
          "topics": [
            "0xdf4edc1d288e7b3306b287d03fd77b2070b8b308c702bf7297f72d928175dfa5"
          ],
          "data": "0x0000000000000000000000000000000000000000000000000000000000000001",
          "blockHash": "0x0000000000000000000000000000000000000000000000000000000000000000",
          "blockNumber": "0x2bd852b",
          "blockTimestamp": "0x69cc044b",
          "transactionHash": "0x06b14427e70c0cc095e6793fb85cab4e20f823de374c3e78264ecb5eda517707",
          "transactionIndex": "0x11",
          "logIndex": "0x1f",
          "removed": false
        }
      ],
      "logsBloom": "0x00000000000000000000000000000000000000000000000000000000000000200000000000000000000000000000000000000000000000000000000000000080000000080000000000000000000000000000000000000000000000000000000000000000000000000000000000000000000000000000000800000000000000000000000000000000000000000000000000000000000000200000000000000000000000000000000000000000000000000000000000000000000000000000000000000000000000000000000000000000000000000000000000000000000002000000000000000000000000000000000000000000000000000000000000000000",
      "type": "0x0",
      "transactionHash": "0x06b14427e70c0cc095e6793fb85cab4e20f823de374c3e78264ecb5eda517707",
      "transactionIndex": "0x11",
      "blockHash": "0x0000000000000000000000000000000000000000000000000000000000000000",
      "blockNumber": "0x2bd852b",
      "gasUsed": "0xae0b",
      "effectiveGasPrice": "0xf433c",
      "blobGasUsed": "0x9c40",
      "from": "0x492c0b9f298cc49fe2644a2ebc6ea8df848c72fb",
      "to": "0x3aeff4ad3ee66885de6ce1a485425bd8c987fce9",
      "contractAddress": null,
      "daFootprintGasScalar": "0x190",
      "l1BaseFeeScalar": "0xc3c9d",
      "l1BlobBaseFee": "0x87d",
      "l1BlobBaseFeeScalar": "0x0",
      "l1Fee": "0x298efb3",
      "l1GasPrice": "0x84aa",
      "l1GasUsed": "0x640"
    },
    {
      "status": "0x1",
      "cumulativeGasUsed": "0x3f643c",
      "logs": [
        {
          "address": "0x3aeff4ad3ee66885de6ce1a485425bd8c987fce9",
          "topics": [
            "0xabadffb695acdb6863cd1324a91e5c359712b9110a55f9103774e2fb67dedb6a",
            "0x0000000000000000000000000000000000000000000000000000000000000000"
          ],
          "data": "0x0000000000000000000000000000000000000000000000000000000000000000",
          "blockHash": "0x3b65ce3386d32a87170effabdb0a89c92498bbb1b14aa9004ff9f78036cc3a72",
          "blockNumber": "0x2bd852b",
          "blockTimestamp": "0x69cc044b",
          "transactionHash": "0x50b72cd231f69aad43db917060cf31da817f49e321a076563c17859066252848",
          "transactionIndex": "0x12",
          "logIndex": "0x20",
          "removed": false
        }
      ],
      "logsBloom": "0x00000000000000000000000000000000000000000000000100000000000000200000000000000000000000000000000000000000000000000000000000000000000000080000000000002000000000000000000000000000000002000000000000000000020000000000000000000800000000000000000800000000000000000000000000000000000000000000000000000000000000000000000000000000000000000000000000000000000000000000000000000000000000000000000000000000000000000000000000000000000000000000000000000000000020000000000000000000000000000000000000000000000000000000000000000000",
      "type": "0x0",
      "transactionHash": "0x50b72cd231f69aad43db917060cf31da817f49e321a076563c17859066252848",
      "transactionIndex": "0x12",
      "blockHash": "0x3b65ce3386d32a87170effabdb0a89c92498bbb1b14aa9004ff9f78036cc3a72",
      "blockNumber": "0x2bd852b",
      "gasUsed": "0xb42c",
      "effectiveGasPrice": "0xf433c",
      "blobGasUsed": "0x9c40",
      "from": "0x492c0b9f298cc49fe2644a2ebc6ea8df848c72fb",
      "to": "0x3aeff4ad3ee66885de6ce1a485425bd8c987fce9",
      "contractAddress": null,
      "daFootprintGasScalar": "0x190",
      "l1BaseFeeScalar": "0xc3c9d",
      "l1BlobBaseFee": "0x87d",
      "l1BlobBaseFeeScalar": "0x0",
      "l1Fee": "0x298efb3",
      "l1GasPrice": "0x84aa",
      "l1GasUsed": "0x640"
    },
    {
      "status": "0x1",
      "cumulativeGasUsed": "0x4005a7",
      "logs": [
        {
          "address": "0x3aeff4ad3ee66885de6ce1a485425bd8c987fce9",
          "topics": [
            "0xadbdcd178dfddc478805a3703b6cf3b72ca5e78ecebacffe1aad03188cc1cbf4"
          ],
          "data": "0x00000000000000000000000000000000000000000000000000000000000000000000000000000000000000000000000000000000000000000000000000000000",
          "blockHash": "0x0000000000000000000000000000000000000000000000000000000000000000",
          "blockNumber": "0x2bd852b",
          "blockTimestamp": "0x69cc044b",
          "transactionHash": "0x398ceca2ec6ffc160b3df0db873bac77d1d8bba8d7de2b44880981d79d0c6447",
          "transactionIndex": "0x13",
          "logIndex": "0x21",
          "removed": false
        }
      ],
      "logsBloom": "0x00000000000000000000000000000100000000000000000000000000000000200000000000000000000000000000000000000000000000000000000000000000000000080000000000000000000000000000000000000000000000000000000000000000000000000000000000000000000000004000000800000000000000000000000000000000000000000000000000000000000000000000000000000000000000000000000000000000000000000000000000000000000000000000000000000000000000000000000000000000000000000000000000000000000000000000000000000000000000000000000000000000000000000000800000000000",
      "type": "0x0",
      "transactionHash": "0x398ceca2ec6ffc160b3df0db873bac77d1d8bba8d7de2b44880981d79d0c6447",
      "transactionIndex": "0x13",
      "blockHash": "0x0000000000000000000000000000000000000000000000000000000000000000",
      "blockNumber": "0x2bd852b",
      "gasUsed": "0xa16b",
      "effectiveGasPrice": "0xf433c",
      "blobGasUsed": "0x9c40",
      "from": "0x492c0b9f298cc49fe2644a2ebc6ea8df848c72fb",
      "to": "0x3aeff4ad3ee66885de6ce1a485425bd8c987fce9",
      "contractAddress": null,
      "daFootprintGasScalar": "0x190",
      "l1BaseFeeScalar": "0xc3c9d",
      "l1BlobBaseFee": "0x87d",
      "l1BlobBaseFeeScalar": "0x0",
      "l1Fee": "0x298efb3",
      "l1GasPrice": "0x84aa",
      "l1GasUsed": "0x640"
    },
    {
      "status": "0x1",
      "cumulativeGasUsed": "0x41b232",
      "logs": [
        {
          "address": "0x92e92fdcac9dfed71721468efcb6952ec898ac53",
          "topics": [
            "0xc69392046c26324e9eee913208811542aabcbde6a41ce9ee3b45473b18eb3c76",
            "0x0000000000000000000000006d064558d58645439a64ce1e88989dfba88aa052"
          ],
          "data": "0x0000000000000000000000000000000000000000000000000000000000001d4c00000000000000000000000000000000000000000000000000000000000021fc00000000000000000000000000000000000000000000000000000000000000000000000000000000000000000000000000000000000000000000000069cc044b0000000000000000000000000000000000000000000000000000000000000000",
          "blockHash": "0x3b65ce3386d32a87170effabdb0a89c92498bbb1b14aa9004ff9f78036cc3a72",
          "blockNumber": "0x2bd852b",
          "blockTimestamp": "0x69cc044b",
          "transactionHash": "0xbdde8ad1f6655127e5356769ddd521d714a2ee15855784146edb3f75548101cf",
          "transactionIndex": "0x14",
          "logIndex": "0x22",
          "removed": false
        }
      ],
      "logsBloom": "0x00000000000000000080000000000000000000000000000000000000000000000000000000000000000000000000000000000000200000000000000000000000000000000000000000000000000000000000000000000000000000000000000000000000000004000000000000000100000000000200000000000000000000000000200000000000000000000000000000000000000000000000000000000000000000000000000000000000000000000002000000000000000000000000000000000800000000000000000000000002000000000000000000000000000000000000000000000000000000000000000000000000000000000000000000000000",
      "type": "0x0",
      "transactionHash": "0xbdde8ad1f6655127e5356769ddd521d714a2ee15855784146edb3f75548101cf",
      "transactionIndex": "0x14",
      "blockHash": "0x3b65ce3386d32a87170effabdb0a89c92498bbb1b14aa9004ff9f78036cc3a72",
      "blockNumber": "0x2bd852b",
      "gasUsed": "0x1ac8b",
      "effectiveGasPrice": "0xf433c",
      "blobGasUsed": "0x9c40",
      "from": "0x492c0b9f298cc49fe2644a2ebc6ea8df848c72fb",
      "to": "0x92e92fdcac9dfed71721468efcb6952ec898ac53",
      "contractAddress": null,
      "daFootprintGasScalar": "0x190",
      "l1BaseFeeScalar": "0xc3c9d",
      "l1BlobBaseFee": "0x87d",
      "l1BlobBaseFeeScalar": "0x0",
      "l1Fee": "0x298efb3",
      "l1GasPrice": "0x84aa",
      "l1GasUsed": "0x640"
    },
    {
      "status": "0x1",
      "cumulativeGasUsed": "0x431bf1",
      "logs": [
        {
          "address": "0x92e92fdcac9dfed71721468efcb6952ec898ac53",
          "topics": [
            "0xc69392046c26324e9eee913208811542aabcbde6a41ce9ee3b45473b18eb3c76",
            "0x0000000000000000000000003aeff4ad3ee66885de6ce1a485425bd8c987fce9"
          ],
          "data": "0x0000000000000000000000000000000000000000000000000000000000001d4c00000000000000000000000000000000000000000000000000000000000021fc00000000000000000000000000000000000000000000000000000000000000000000000000000000000000000000000000000000000000000000000069cc044b0000000000000000000000000000000000000000000000000000000000000000",
          "blockHash": "0x0000000000000000000000000000000000000000000000000000000000000000",
          "blockNumber": "0x2bd852b",
          "blockTimestamp": "0x69cc044b",
          "transactionHash": "0x62cea49de9f0d4f075d6f8a0a484f5a075a360916911613e2960613e5150c131",
          "transactionIndex": "0x15",
          "logIndex": "0x23",
          "removed": false
        }
      ],
      "logsBloom": "0x00000000000000000000000000000000000020000000000000000000000000000000000000000000000000000000000000000000200000000000000000000000000000000000000000000000000000000000000000000000000000000000000000000000000000000000000000000100000000000200000000000000000000000000200000000000000000000000000000000001000000000000000000000000000000000000000000000000000000000002000000000000000000000000000000000000000000000000000000000002000000000000000000000000000000000000000000000020000000000000000000000000000000000000000000000000",
      "type": "0x0",
      "transactionHash": "0x62cea49de9f0d4f075d6f8a0a484f5a075a360916911613e2960613e5150c131",
      "transactionIndex": "0x15",
      "blockHash": "0x0000000000000000000000000000000000000000000000000000000000000000",
      "blockNumber": "0x2bd852b",
      "gasUsed": "0x169bf",
      "effectiveGasPrice": "0xf433c",
      "blobGasUsed": "0x9c40",
      "from": "0x492c0b9f298cc49fe2644a2ebc6ea8df848c72fb",
      "to": "0x92e92fdcac9dfed71721468efcb6952ec898ac53",
      "contractAddress": null,
      "daFootprintGasScalar": "0x190",
      "l1BaseFeeScalar": "0xc3c9d",
      "l1BlobBaseFee": "0x87d",
      "l1BlobBaseFeeScalar": "0x0",
      "l1Fee": "0x298efb3",
      "l1GasPrice": "0x84aa",
      "l1GasUsed": "0x640"
    },
    {
      "status": "0x1",
      "cumulativeGasUsed": "0x44c87c",
      "logs": [
        {
          "address": "0x6d064558d58645439a64ce1e88989dfba88aa052",
          "topics": [
            "0xc69392046c26324e9eee913208811542aabcbde6a41ce9ee3b45473b18eb3c76",
            "0x00000000000000000000000092e92fdcac9dfed71721468efcb6952ec898ac53"
          ],
          "data": "0x0000000000000000000000000000000000000000000000000000000000001d4c00000000000000000000000000000000000000000000000000000000000021fc00000000000000000000000000000000000000000000000000000000000000000000000000000000000000000000000000000000000000000000000069cc044b0000000000000000000000000000000000000000000000000000000000000000",
          "blockHash": "0x0000000000000000000000000000000000000000000000000000000000000000",
          "blockNumber": "0x2bd852b",
          "blockTimestamp": "0x69cc044b",
          "transactionHash": "0xfbd2e66580d0241962d166568fa88fb336158ae16d97aba87486d89a988c65d7",
          "transactionIndex": "0x16",
          "logIndex": "0x24",
          "removed": false
        }
      ],
      "logsBloom": "0x00000000000000000000000000000000000000000000000000000000400000000000000000200000000000000000000000000000200000000000000000000000000000000000000000000000000000000000000000000000000800000000000000000000000000000000000000000080000000000200000000000002000000000000200000000000000000000000000000000000000000000000000000000000000000000000000000000000000000000000000001000000000000000000000000000000000000000000000000000000000000000000000000000000000000000000000000000000000000000000000000000000000000000000000000000000",
      "type": "0x0",
      "transactionHash": "0xfbd2e66580d0241962d166568fa88fb336158ae16d97aba87486d89a988c65d7",
      "transactionIndex": "0x16",
      "blockHash": "0x0000000000000000000000000000000000000000000000000000000000000000",
      "blockNumber": "0x2bd852b",
      "gasUsed": "0x1ac8b",
      "effectiveGasPrice": "0xf433c",
      "blobGasUsed": "0x9c40",
      "from": "0x492c0b9f298cc49fe2644a2ebc6ea8df848c72fb",
      "to": "0x6d064558d58645439a64ce1e88989dfba88aa052",
      "contractAddress": null,
      "daFootprintGasScalar": "0x190",
      "l1BaseFeeScalar": "0xc3c9d",
      "l1BlobBaseFee": "0x87d",
      "l1BlobBaseFeeScalar": "0x0",
      "l1Fee": "0x298efb3",
      "l1GasPrice": "0x84aa",
      "l1GasUsed": "0x640"
    },
    {
      "status": "0x1",
      "cumulativeGasUsed": "0x467507",
      "logs": [
        {
          "address": "0x3aeff4ad3ee66885de6ce1a485425bd8c987fce9",
          "topics": [
            "0xc69392046c26324e9eee913208811542aabcbde6a41ce9ee3b45473b18eb3c76",
            "0x00000000000000000000000092e92fdcac9dfed71721468efcb6952ec898ac53"
          ],
          "data": "0x0000000000000000000000000000000000000000000000000000000000001d4c00000000000000000000000000000000000000000000000000000000000021fc00000000000000000000000000000000000000000000000000000000000000000000000000000000000000000000000000000000000000000000000069cc044b0000000000000000000000000000000000000000000000000000000000000000",
          "blockHash": "0x0000000000000000000000000000000000000000000000000000000000000000",
          "blockNumber": "0x2bd852b",
          "blockTimestamp": "0x69cc044b",
          "transactionHash": "0x99e608226067b02ebddc548a300af7f9048980c5a915050dfd071cb26eaa91ce",
          "transactionIndex": "0x17",
          "logIndex": "0x25",
          "removed": false
        }
      ],
      "logsBloom": "0x00000000000000000000000000000000000000000000000000000000400000200000000000000000000000000000000000000000200000000000000000000000000000080000000000000000000000000000000000000000000800000000000000000000000000000000000000000080000000000200000800000000000000000000200000000000000000000000000000000000000000000000000000000000000000000000000000000000000000000000000000000000000000000000000000000000000000000000000000000000000000000000000000000000000000000000000000000000000000000000000000000000000000000000000000000000",
      "type": "0x0",
      "transactionHash": "0x99e608226067b02ebddc548a300af7f9048980c5a915050dfd071cb26eaa91ce",
      "transactionIndex": "0x17",
      "blockHash": "0x0000000000000000000000000000000000000000000000000000000000000000",
      "blockNumber": "0x2bd852b",
      "gasUsed": "0x1ac8b",
      "effectiveGasPrice": "0xf433c",
      "blobGasUsed": "0x9c40",
      "from": "0x492c0b9f298cc49fe2644a2ebc6ea8df848c72fb",
      "to": "0x3aeff4ad3ee66885de6ce1a485425bd8c987fce9",
      "contractAddress": null,
      "daFootprintGasScalar": "0x190",
      "l1BaseFeeScalar": "0xc3c9d",
      "l1BlobBaseFee": "0x87d",
      "l1BlobBaseFeeScalar": "0x0",
      "l1Fee": "0x298efb3",
      "l1GasPrice": "0x84aa",
      "l1GasUsed": "0x640"
    }
  ],
  "libraries": [],
  "pending": [],
  "returns": {},
  "timestamp": 1774978123839,
  "chain": 763373,
  "commit": "5b98b42"
}