{
  "transactions": [
    {
      "hash": "0x407ccf5c101be962ca5999e1e32e8b11f5062a6c32d8e3c348292ba468169f22",
      "transactionType": "CREATE",
      "contractName": "FixedPriceOracle",
      "contractAddress": "0x5b9d04d3c98035fc63fed58dbb03ca061da21ee6",
      "function": null,
      "arguments": null,
      "transaction": {
        "from": "0x492c0b9f298cc49fe2644a2ebc6ea8df848c72fb",
        "gas": "0x7cfa3",
        "value": "0x0",
        "input": "0x60808060405234602757600180546001600160a01b031916331790556105c9908161002c8239f35b5f80fdfe60806040526004361015610011575f80fd5b5f3560e01c80630579e61f146103bf57806306fdde03146102d05780631f31240414610245578063792eb791146101275780638da5cb5b146100d65763ae68676c1461005b575f80fd5b346100d2576020670de0b6b3a76400006100c973ffffffffffffffffffffffffffffffffffffffff61008c3661047c565b9192165f525f855273ffffffffffffffffffffffffffffffffffffffff60405f2091165f52845260405f2054906100c48215156104ee565b610553565b04604051908152f35b5f80fd5b346100d2575f7ffffffffffffffffffffffffffffffffffffffffffffffffffffffffffffffffc3601126100d257602073ffffffffffffffffffffffffffffffffffffffff60015416604051908152f35b346100d25760607ffffffffffffffffffffffffffffffffffffffffffffffffffffffffffffffffc3601126100d25761015e610436565b610166610459565b6044359173ffffffffffffffffffffffffffffffffffffffff6001541633036101e757602073ffffffffffffffffffffffffffffffffffffffff807f15a6aac952fd0c6af20cf13af3936ff507e4b8c352bc9ca3afd834ac460088c1931693845f525f835260405f208282165f5283528560405f20556040519586521693a3005b60646040517f08c379a000000000000000000000000000000000000000000000000000000000815260206004820152600a60248201527f4f6e6c79206f776e6572000000000000000000000000000000000000000000006044820152fd5b346100d25760407ffffffffffffffffffffffffffffffffffffffffffffffffffffffffffffffffc3601126100d25761027c610436565b73ffffffffffffffffffffffffffffffffffffffff610299610459565b91165f525f60205273ffffffffffffffffffffffffffffffffffffffff60405f2091165f52602052602060405f2054604051908152f35b346100d2575f7ffffffffffffffffffffffffffffffffffffffffffffffffffffffffffffffffc3601126100d2576040516040810181811067ffffffffffffffff8211176103925760405260108152604060208201917f466978656450726963654f7261636c650000000000000000000000000000000083527fffffffffffffffffffffffffffffffffffffffffffffffffffffffffffffffe0601f8351948593602085525180918160208701528686015e5f85828601015201168101030190f35b7f4e487b71000000000000000000000000000000000000000000000000000000005f52604160045260245ffd5b346100d2576040670de0b6b3a764000061042873ffffffffffffffffffffffffffffffffffffffff6103f03661047c565b9192165f525f60205273ffffffffffffffffffffffffffffffffffffffff855f2091165f52602052835f2054906100c48215156104ee565b048151908082526020820152f35b6004359073ffffffffffffffffffffffffffffffffffffffff821682036100d257565b6024359073ffffffffffffffffffffffffffffffffffffffff821682036100d257565b7ffffffffffffffffffffffffffffffffffffffffffffffffffffffffffffffffc60609101126100d2576004359060243573ffffffffffffffffffffffffffffffffffffffff811681036100d2579060443573ffffffffffffffffffffffffffffffffffffffff811681036100d25790565b156104f557565b60646040517f08c379a000000000000000000000000000000000000000000000000000000000815260206004820152600d60248201527f5072696365206e6f7420736574000000000000000000000000000000000000006044820152fd5b8181029291811591840414171561056657565b7f4e487b71000000000000000000000000000000000000000000000000000000005f52601160045260245ffdfea2646970667358221220dd89ed350e6861101afe07ee644991281464d777e77b725667de724fd98421d564736f6c634300081c0033",
        "nonce": "0x42",
        "chainId": "0xba5ed"
      },
      "additionalContracts": [],
      "isFixedGasLimit": false
    },
    {
      "hash": "0xb32f93aa319429759c631af82a8457520bd0c4145d7bdba1bd8842baea1d1aa2",
      "transactionType": "CALL",
      "contractName": "FixedPriceOracle",
      "contractAddress": "0x5b9d04d3c98035fc63fed58dbb03ca061da21ee6",
      "function": "setPrice(address,address,uint256)",
      "arguments": [
        "0x6b57475467cd854d36Be7FB614caDa5207838943",
        "0x6b57475467cd854d36Be7FB614caDa5207838943",
        "1000000000000000000"
      ],
      "transaction": {
        "from": "0x492c0b9f298cc49fe2644a2ebc6ea8df848c72fb",
        "to": "0x5b9d04d3c98035fc63fed58dbb03ca061da21ee6",
        "gas": "0x10593",
        "value": "0x0",
        "input": "0x792eb7910000000000000000000000006b57475467cd854d36be7fb614cada52078389430000000000000000000000006b57475467cd854d36be7fb614cada52078389430000000000000000000000000000000000000000000000000de0b6b3a7640000",
        "nonce": "0x43",
        "chainId": "0xba5ed"
      },
      "additionalContracts": [],
      "isFixedGasLimit": false
    },
    {
      "hash": "0x4a3b3463db1ce616ce13dace95ab5f5857a60d9e2c1e44c2dadd50f0e85cde89",
      "transactionType": "CALL",
      "contractName": "FixedPriceOracle",
      "contractAddress": "0x5b9d04d3c98035fc63fed58dbb03ca061da21ee6",
      "function": "setPrice(address,address,uint256)",
      "arguments": [
        "0x9eF9f9B22d3CA9769e28e769e2AAA3C2B0072D0e",
        "0x6b57475467cd854d36Be7FB614caDa5207838943",
        "500000000000000000000"
      ],
      "transaction": {
        "from": "0x492c0b9f298cc49fe2644a2ebc6ea8df848c72fb",
        "to": "0x5b9d04d3c98035fc63fed58dbb03ca061da21ee6",
        "gas": "0x105a2",
        "value": "0x0",
        "input": "0x792eb7910000000000000000000000009ef9f9b22d3ca9769e28e769e2aaa3c2b0072d0e0000000000000000000000006b57475467cd854d36be7fb614cada520783894300000000000000000000000000000000000000000000001b1ae4d6e2ef500000",
        "nonce": "0x44",
        "chainId": "0xba5ed"
      },
      "additionalContracts": [],
      "isFixedGasLimit": false
    },
    {
      "hash": "0x236d7c18b758ab013c7034322463ae844dbdf325ebb69ff6bf839570cda6be25",
      "transactionType": "CALL",
      "contractName": "FixedPriceOracle",
      "contractAddress": "0x5b9d04d3c98035fc63fed58dbb03ca061da21ee6",
      "function": "setPrice(address,address,uint256)",
      "arguments": [
        "0x267ED9BC43B16D832cB9Aaf0e3445f0cC9f536d9",
        "0x6b57475467cd854d36Be7FB614caDa5207838943",
        "400000000000000000000"
      ],
      "transaction": {
        "from": "0x492c0b9f298cc49fe2644a2ebc6ea8df848c72fb",
        "to": "0x5b9d04d3c98035fc63fed58dbb03ca061da21ee6",
        "gas": "0x105a2",
        "value": "0x0",
        "input": "0x792eb791000000000000000000000000267ed9bc43b16d832cb9aaf0e3445f0cc9f536d90000000000000000000000006b57475467cd854d36be7fb614cada5207838943000000000000000000000000000000000000000000000015af1d78b58c400000",
        "nonce": "0x45",
        "chainId": "0xba5ed"
      },
      "additionalContracts": [],
      "isFixedGasLimit": false
    },
    {
      "hash": "0xa42c42bd77d925157861cb6832a7a798a35923a306fc41ff757074ccc8c1db05",
      "transactionType": "CALL",
      "contractName": "FixedPriceOracle",
      "contractAddress": "0x5b9d04d3c98035fc63fed58dbb03ca061da21ee6",
      "function": "setPrice(address,address,uint256)",
      "arguments": [
        "0x6b57475467cd854d36Be7FB614caDa5207838943",
        "0x9eF9f9B22d3CA9769e28e769e2AAA3C2B0072D0e",
        "2000000000000000"
      ],
      "transaction": {
        "from": "0x492c0b9f298cc49fe2644a2ebc6ea8df848c72fb",
        "to": "0x5b9d04d3c98035fc63fed58dbb03ca061da21ee6",
        "gas": "0x10582",
        "value": "0x0",
        "input": "0x792eb7910000000000000000000000006b57475467cd854d36be7fb614cada52078389430000000000000000000000009ef9f9b22d3ca9769e28e769e2aaa3c2b0072d0e00000000000000000000000000000000000000000000000000071afd498d0000",
        "nonce": "0x46",
        "chainId": "0xba5ed"
      },
      "additionalContracts": [],
      "isFixedGasLimit": false
    },
    {
      "hash": "0x3afe6e83c16cc5719080d5b6c0e1c64b1a1cd648c1925f0f4189d2a17fb1e174",
      "transactionType": "CALL",
      "contractName": "FixedPriceOracle",
      "contractAddress": "0x5b9d04d3c98035fc63fed58dbb03ca061da21ee6",
      "function": "setPrice(address,address,uint256)",
      "arguments": [
        "0x6b57475467cd854d36Be7FB614caDa5207838943",
        "0x267ED9BC43B16D832cB9Aaf0e3445f0cC9f536d9",
        "2500000000000000"
      ],
      "transaction": {
        "from": "0x492c0b9f298cc49fe2644a2ebc6ea8df848c72fb",
        "to": "0x5b9d04d3c98035fc63fed58dbb03ca061da21ee6",
        "gas": "0x10593",
        "value": "0x0",
        "input": "0x792eb7910000000000000000000000006b57475467cd854d36be7fb614cada5207838943000000000000000000000000267ed9bc43b16d832cb9aaf0e3445f0cc9f536d90000000000000000000000000000000000000000000000000008e1bc9bf04000",
        "nonce": "0x47",
        "chainId": "0xba5ed"
      },
      "additionalContracts": [],
      "isFixedGasLimit": false
    },
    {
      "hash": "0xe0e10864c07430050677ba4b0ed0a20c5a80d294d376b9764df112d24b3bff47",
      "transactionType": "CALL",
      "contractName": "FixedPriceOracle",
      "contractAddress": "0x5b9d04d3c98035fc63fed58dbb03ca061da21ee6",
      "function": "setPrice(address,address,uint256)",
      "arguments": [
        "0x9eF9f9B22d3CA9769e28e769e2AAA3C2B0072D0e",
        "0x9eF9f9B22d3CA9769e28e769e2AAA3C2B0072D0e",
        "1000000000000000000"
      ],
      "transaction": {
        "from": "0x492c0b9f298cc49fe2644a2ebc6ea8df848c72fb",
        "to": "0x5b9d04d3c98035fc63fed58dbb03ca061da21ee6",
        "gas": "0x10593",
        "value": "0x0",
        "input": "0x792eb7910000000000000000000000009ef9f9b22d3ca9769e28e769e2aaa3c2b0072d0e0000000000000000000000009ef9f9b22d3ca9769e28e769e2aaa3c2b0072d0e0000000000000000000000000000000000000000000000000de0b6b3a7640000",
        "nonce": "0x48",
        "chainId": "0xba5ed"
      },
      "additionalContracts": [],
      "isFixedGasLimit": false
    },
    {
      "hash": "0xa9f2ccac4d3917884eacbd40e1d41112fd61e45fe1fdce3102521f0c678a07f3",
      "transactionType": "CALL",
      "contractName": "FixedPriceOracle",
      "contractAddress": "0x5b9d04d3c98035fc63fed58dbb03ca061da21ee6",
      "function": "setPrice(address,address,uint256)",
      "arguments": [
        "0x267ED9BC43B16D832cB9Aaf0e3445f0cC9f536d9",
        "0x267ED9BC43B16D832cB9Aaf0e3445f0cC9f536d9",
        "1000000000000000000"
      ],
      "transaction": {
        "from": "0x492c0b9f298cc49fe2644a2ebc6ea8df848c72fb",
        "to": "0x5b9d04d3c98035fc63fed58dbb03ca061da21ee6",
        "gas": "0x10593",
        "value": "0x0",
        "input": "0x792eb791000000000000000000000000267ed9bc43b16d832cb9aaf0e3445f0cc9f536d9000000000000000000000000267ed9bc43b16d832cb9aaf0e3445f0cc9f536d90000000000000000000000000000000000000000000000000de0b6b3a7640000",
        "nonce": "0x49",
        "chainId": "0xba5ed"
      },
      "additionalContracts": [],
      "isFixedGasLimit": false
    }
  ],
  "receipts": [
    {
      "status": "0x1",
      "cumulativeGasUsed": "0x6b659",
      "logs": [],
      "logsBloom": "0x00000000000000000000000000000000000000000000000000000000000000000000000000000000000000000000000000000000000000000000000000000000000000000000000000000000000000000000000000000000000000000000000000000000000000000000000000000000000000000000000000000000000000000000000000000000000000000000000000000000000000000000000000000000000000000000000000000000000000000000000000000000000000000000000000000000000000000000000000000000000000000000000000000000000000000000000000000000000000000000000000000000000000000000000000000000",
      "type": "0x0",
      "transactionHash": "0x236d7c18b758ab013c7034322463ae844dbdf325ebb69ff6bf839570cda6be25",
      "transactionIndex": "0x1",
      "blockHash": "0x0000000000000000000000000000000000000000000000000000000000000000",
      "blockNumber": "0x2bd8b96",
      "gasUsed": "0x6022f",
      "effectiveGasPrice": "0xf433c",
      "blobGasUsed": "0x44750",
      "from": "0x492c0b9f298cc49fe2644a2ebc6ea8df848c72fb",
      "to": null,
      "contractAddress": "0x5b9d04d3c98035fc63fed58dbb03ca061da21ee6",
      "daFootprintGasScalar": "0x190",
      "l1BaseFeeScalar": "0xc3c9d",
      "l1BlobBaseFee": "0xe",
      "l1BlobBaseFeeScalar": "0x0",
      "l1Fee": "0x1e559e",
      "l1GasPrice": "0xdd",
      "l1GasUsed": "0x2bd1"
    },
    {
      "status": "0x1",
      "cumulativeGasUsed": "0x773b9",
      "logs": [
        {
          "address": "0x5b9d04d3c98035fc63fed58dbb03ca061da21ee6",
          "topics": [
            "0x15a6aac952fd0c6af20cf13af3936ff507e4b8c352bc9ca3afd834ac460088c1",
            "0x0000000000000000000000006b57475467cd854d36be7fb614cada5207838943",
            "0x0000000000000000000000006b57475467cd854d36be7fb614cada5207838943"
          ],
          "data": "0x0000000000000000000000000000000000000000000000000de0b6b3a7640000",
          "blockHash": "0x0000000000000000000000000000000000000000000000000000000000000000",
          "blockNumber": "0x2bd8b96",
          "blockTimestamp": "0x69cc0ab6",
          "transactionHash": "0xe0e10864c07430050677ba4b0ed0a20c5a80d294d376b9764df112d24b3bff47",
          "transactionIndex": "0x2",
          "logIndex": "0x0",
          "removed": false
        }
      ],
      "logsBloom": "0x00000000000000000000000000000000000000000000000000000000000000000000000000100000000000000000000000000000000000000000000000000000000000000000000000000000000000000000000000000000000000000000000000000000000000000000000000000000800800001000000000000000000000000000000000000000000000800000000000000000000000000000000000000000000000000000000000000000000000000000000000000000000000000000000000000000000000000000008000000000200000000000000000000000000004000000000000000000000000800000000000000000000000000000000000000000",
      "type": "0x0",
      "transactionHash": "0xe0e10864c07430050677ba4b0ed0a20c5a80d294d376b9764df112d24b3bff47",
      "transactionIndex": "0x2",
      "blockHash": "0x0000000000000000000000000000000000000000000000000000000000000000",
      "blockNumber": "0x2bd8b96",
      "gasUsed": "0xbd60",
      "effectiveGasPrice": "0xf433c",
      "blobGasUsed": "0x9c40",
      "from": "0x492c0b9f298cc49fe2644a2ebc6ea8df848c72fb",
      "to": "0x5b9d04d3c98035fc63fed58dbb03ca061da21ee6",
      "contractAddress": null,
      "daFootprintGasScalar": "0x190",
      "l1BaseFeeScalar": "0xc3c9d",
      "l1BlobBaseFee": "0xe",
      "l1BlobBaseFeeScalar": "0x0",
      "l1Fee": "0x1e559e",
      "l1GasPrice": "0xdd",
      "l1GasUsed": "0x640"
    },
    {
      "status": "0x1",
      "cumulativeGasUsed": "0x83125",
      "logs": [
        {
          "address": "0x5b9d04d3c98035fc63fed58dbb03ca061da21ee6",
          "topics": [
            "0x15a6aac952fd0c6af20cf13af3936ff507e4b8c352bc9ca3afd834ac460088c1",
            "0x0000000000000000000000009ef9f9b22d3ca9769e28e769e2aaa3c2b0072d0e",
            "0x0000000000000000000000006b57475467cd854d36be7fb614cada5207838943"
          ],
          "data": "0x00000000000000000000000000000000000000000000001b1ae4d6e2ef500000",
          "blockHash": "0x0000000000000000000000000000000000000000000000000000000000000000",
          "blockNumber": "0x2bd8b96",
          "blockTimestamp": "0x69cc0ab6",
          "transactionHash": "0x407ccf5c101be962ca5999e1e32e8b11f5062a6c32d8e3c348292ba468169f22",
          "transactionIndex": "0x3",
          "logIndex": "0x1",
          "removed": false
        }
      ],
      "logsBloom": "0x00000000000000000000000000000000000000000000001000000000000000000000000000100000000000000000000000000000000000000000000000000000000000000000000000000000000000000000000000000000000000000000000000000000040000000000000000000000800800001000000000000000000000000000000000000000000000800000000000000000000000000000000000000000000000000000000000000000000000000000000000000000000000000000000000000000000000000000008000000000200000000000000000000000000004000000000000000000000000800000000000100000000000000000000000000000",
      "type": "0x0",
      "transactionHash": "0x407ccf5c101be962ca5999e1e32e8b11f5062a6c32d8e3c348292ba468169f22",
      "transactionIndex": "0x3",
      "blockHash": "0x0000000000000000000000000000000000000000000000000000000000000000",
      "blockNumber": "0x2bd8b96",
      "gasUsed": "0xbd6c",
      "effectiveGasPrice": "0xf433c",
      "blobGasUsed": "0xa5a0",
      "from": "0x492c0b9f298cc49fe2644a2ebc6ea8df848c72fb",
      "to": "0x5b9d04d3c98035fc63fed58dbb03ca061da21ee6",
      "contractAddress": null,
      "daFootprintGasScalar": "0x190",
      "l1BaseFeeScalar": "0xc3c9d",
      "l1BlobBaseFee": "0xe",
      "l1BlobBaseFeeScalar": "0x0",
      "l1Fee": "0x1e559e",
      "l1GasPrice": "0xdd",
      "l1GasUsed": "0x6a4"
    },
    {
      "status": "0x1",
      "cumulativeGasUsed": "0x8ee91",
      "logs": [
        {
          "address": "0x5b9d04d3c98035fc63fed58dbb03ca061da21ee6",
          "topics": [
            "0x15a6aac952fd0c6af20cf13af3936ff507e4b8c352bc9ca3afd834ac460088c1",
            "0x000000000000000000000000267ed9bc43b16d832cb9aaf0e3445f0cc9f536d9",
            "0x0000000000000000000000006b57475467cd854d36be7fb614cada5207838943"
          ],
          "data": "0x000000000000000000000000000000000000000000000015af1d78b58c400000",
          "blockHash": "0x0000000000000000000000000000000000000000000000000000000000000000",
          "blockNumber": "0x2bd8b96",
          "blockTimestamp": "0x69cc0ab6",
          "transactionHash": "0xa42c42bd77d925157861cb6832a7a798a35923a306fc41ff757074ccc8c1db05",
          "transactionIndex": "0x4",
          "logIndex": "0x2",
          "removed": false
        }
      ],
      "logsBloom": "0x00000000000008000000000000000000000000000000000000000000000000000000000000100000000000000000000000000000000000000000000000000000000000008000000000000000000000000000000000000000000000000000000000000000000000000000000020000000800800001000000000000000000000000000000000000000000000800000000000000000000000000000000000000000000000000000000000000000000000000000000000000000000000000000000000000000000000000000008000000000200000000000000000000000000004000000000000000000000000800000000000000000000000000000000000000000",
      "type": "0x0",
      "transactionHash": "0xa42c42bd77d925157861cb6832a7a798a35923a306fc41ff757074ccc8c1db05",
      "transactionIndex": "0x4",
      "blockHash": "0x0000000000000000000000000000000000000000000000000000000000000000",
      "blockNumber": "0x2bd8b96",
      "gasUsed": "0xbd6c",
      "effectiveGasPrice": "0xf433c",
      "blobGasUsed": "0xa5a0",
      "from": "0x492c0b9f298cc49fe2644a2ebc6ea8df848c72fb",
      "to": "0x5b9d04d3c98035fc63fed58dbb03ca061da21ee6",
      "contractAddress": null,
      "daFootprintGasScalar": "0x190",
      "l1BaseFeeScalar": "0xc3c9d",
      "l1BlobBaseFee": "0xe",
      "l1BlobBaseFeeScalar": "0x0",
      "l1Fee": "0x1e559e",
      "l1GasPrice": "0xdd",
      "l1GasUsed": "0x6a4"
    },
    {
      "status": "0x1",
      "cumulativeGasUsed": "0x9abe5",
      "logs": [
        {
          "address": "0x5b9d04d3c98035fc63fed58dbb03ca061da21ee6",
          "topics": [
            "0x15a6aac952fd0c6af20cf13af3936ff507e4b8c352bc9ca3afd834ac460088c1",
            "0x0000000000000000000000006b57475467cd854d36be7fb614cada5207838943",
            "0x0000000000000000000000009ef9f9b22d3ca9769e28e769e2aaa3c2b0072d0e"
          ],
          "data": "0x00000000000000000000000000000000000000000000000000071afd498d0000",
          "blockHash": "0x0000000000000000000000000000000000000000000000000000000000000000",
          "blockNumber": "0x2bd8b96",
          "blockTimestamp": "0x69cc0ab6",
          "transactionHash": "0x3afe6e83c16cc5719080d5b6c0e1c64b1a1cd648c1925f0f4189d2a17fb1e174",
          "transactionIndex": "0x5",
          "logIndex": "0x3",
          "removed": false
        }
      ],
      "logsBloom": "0x00000000000000000000000000000000000000000000001000000000000000000000000000100000000000000000000000000000000000000000000000000000000000000000000000000000000000000000000000000000000000000000000000000000040000000000000000000000800800001000000000000000000000000000000000000000000000800000000000000000000000000000000000000000000000000000000000000000000000000000000000000000000000000000000000000000000000000000008000000000200000000000000000000000000004000000000000000000000000800000000000100000000000000000000000000000",
      "type": "0x0",
      "transactionHash": "0x3afe6e83c16cc5719080d5b6c0e1c64b1a1cd648c1925f0f4189d2a17fb1e174",
      "transactionIndex": "0x5",
      "blockHash": "0x0000000000000000000000000000000000000000000000000000000000000000",
      "blockNumber": "0x2bd8b96",
      "gasUsed": "0xbd54",
      "effectiveGasPrice": "0xf433c",
      "blobGasUsed": "0xa280",
      "from": "0x492c0b9f298cc49fe2644a2ebc6ea8df848c72fb",
      "to": "0x5b9d04d3c98035fc63fed58dbb03ca061da21ee6",
      "contractAddress": null,
      "daFootprintGasScalar": "0x190",
      "l1BaseFeeScalar": "0xc3c9d",
      "l1BlobBaseFee": "0xe",
      "l1BlobBaseFeeScalar": "0x0",
      "l1Fee": "0x1e559e",
      "l1GasPrice": "0xdd",
      "l1GasUsed": "0x68a"
    },
    {
      "status": "0x1",
      "cumulativeGasUsed": "0xa6945",
      "logs": [
        {
          "address": "0x5b9d04d3c98035fc63fed58dbb03ca061da21ee6",
          "topics": [
            "0x15a6aac952fd0c6af20cf13af3936ff507e4b8c352bc9ca3afd834ac460088c1",
            "0x0000000000000000000000006b57475467cd854d36be7fb614cada5207838943",
            "0x000000000000000000000000267ed9bc43b16d832cb9aaf0e3445f0cc9f536d9"
          ],
          "data": "0x0000000000000000000000000000000000000000000000000008e1bc9bf04000",
          "blockHash": "0x0000000000000000000000000000000000000000000000000000000000000000",
          "blockNumber": "0x2bd8b96",
          "blockTimestamp": "0x69cc0ab6",
          "transactionHash": "0xb32f93aa319429759c631af82a8457520bd0c4145d7bdba1bd8842baea1d1aa2",
          "transactionIndex": "0x6",
          "logIndex": "0x4",
          "removed": false
        }
      ],
      "logsBloom": "0x00000000000008000000000000000000000000000000000000000000000000000000000000100000000000000000000000000000000000000000000000000000000000008000000000000000000000000000000000000000000000000000000000000000000000000000000020000000800800001000000000000000000000000000000000000000000000800000000000000000000000000000000000000000000000000000000000000000000000000000000000000000000000000000000000000000000000000000008000000000200000000000000000000000000004000000000000000000000000800000000000000000000000000000000000000000",
      "type": "0x0",
      "transactionHash": "0xb32f93aa319429759c631af82a8457520bd0c4145d7bdba1bd8842baea1d1aa2",
      "transactionIndex": "0x6",
      "blockHash": "0x0000000000000000000000000000000000000000000000000000000000000000",
      "blockNumber": "0x2bd8b96",
      "gasUsed": "0xbd60",
      "effectiveGasPrice": "0xf433c",
      "blobGasUsed": "0xa280",
      "from": "0x492c0b9f298cc49fe2644a2ebc6ea8df848c72fb",
      "to": "0x5b9d04d3c98035fc63fed58dbb03ca061da21ee6",
      "contractAddress": null,
      "daFootprintGasScalar": "0x190",
      "l1BaseFeeScalar": "0xc3c9d",
      "l1BlobBaseFee": "0xe",
      "l1BlobBaseFeeScalar": "0x0",
      "l1Fee": "0x1e559e",
      "l1GasPrice": "0xdd",
      "l1GasUsed": "0x68a"
    },
    {
      "status": "0x1",
      "cumulativeGasUsed": "0xb26a5",
      "logs": [
        {
          "address": "0x5b9d04d3c98035fc63fed58dbb03ca061da21ee6",
          "topics": [
            "0x15a6aac952fd0c6af20cf13af3936ff507e4b8c352bc9ca3afd834ac460088c1",
            "0x0000000000000000000000009ef9f9b22d3ca9769e28e769e2aaa3c2b0072d0e",
            "0x0000000000000000000000009ef9f9b22d3ca9769e28e769e2aaa3c2b0072d0e"
          ],
          "data": "0x0000000000000000000000000000000000000000000000000de0b6b3a7640000",
          "blockHash": "0x0000000000000000000000000000000000000000000000000000000000000000",
          "blockNumber": "0x2bd8b96",
          "blockTimestamp": "0x69cc0ab6",
          "transactionHash": "0xa9f2ccac4d3917884eacbd40e1d41112fd61e45fe1fdce3102521f0c678a07f3",
          "transactionIndex": "0x7",
          "logIndex": "0x5",
          "removed": false
        }
      ],
      "logsBloom": "0x00000000000000000000000000000000000000000000001000000000000000000000000000100000000000000000000000000000000000000000000000000000000000000000000000000000000000000000000000000000000000000000000000000000040000000000000000000000000800001000000000000000000000000000000000000000000000800000000000000000000000000000000000000000000000000000000000000000000000000000000000000000000000000000000000000000000000000000008000000000000000000000000000000000000000000000000000000000000000800000000000100000000000000000000000000000",
      "type": "0x0",
      "transactionHash": "0xa9f2ccac4d3917884eacbd40e1d41112fd61e45fe1fdce3102521f0c678a07f3",
      "transactionIndex": "0x7",
      "blockHash": "0x0000000000000000000000000000000000000000000000000000000000000000",
      "blockNumber": "0x2bd8b96",
      "gasUsed": "0xbd60",
      "effectiveGasPrice": "0xf433c",
      "blobGasUsed": "0x9c40",
      "from": "0x492c0b9f298cc49fe2644a2ebc6ea8df848c72fb",
      "to": "0x5b9d04d3c98035fc63fed58dbb03ca061da21ee6",
      "contractAddress": null,
      "daFootprintGasScalar": "0x190",
      "l1BaseFeeScalar": "0xc3c9d",
      "l1BlobBaseFee": "0xe",
      "l1BlobBaseFeeScalar": "0x0",
      "l1Fee": "0x1e559e",
      "l1GasPrice": "0xdd",
      "l1GasUsed": "0x640"
    },
    {
      "status": "0x1",
      "cumulativeGasUsed": "0xbe405",
      "logs": [
        {
          "address": "0x5b9d04d3c98035fc63fed58dbb03ca061da21ee6",
          "topics": [
            "0x15a6aac952fd0c6af20cf13af3936ff507e4b8c352bc9ca3afd834ac460088c1",
            "0x000000000000000000000000267ed9bc43b16d832cb9aaf0e3445f0cc9f536d9",
            "0x000000000000000000000000267ed9bc43b16d832cb9aaf0e3445f0cc9f536d9"
          ],
          "data": "0x0000000000000000000000000000000000000000000000000de0b6b3a7640000",
          "blockHash": "0x0000000000000000000000000000000000000000000000000000000000000000",
          "blockNumber": "0x2bd8b96",
          "blockTimestamp": "0x69cc0ab6",
          "transactionHash": "0x4a3b3463db1ce616ce13dace95ab5f5857a60d9e2c1e44c2dadd50f0e85cde89",
          "transactionIndex": "0x8",
          "logIndex": "0x6",
          "removed": false
        }
      ],
      "logsBloom": "0x00000000000008000000000000000000000000000000000000000000000000000000000000100000000000000000000000000000000000000000000000000000000000008000000000000000000000000000000000000000000000000000000000000000000000000000000020000000000800001000000000000000000000000000000000000000000000800000000000000000000000000000000000000000000000000000000000000000000000000000000000000000000000000000000000000000000000000000008000000000000000000000000000000000000000000000000000000000000000800000000000000000000000000000000000000000",
      "type": "0x0",
      "transactionHash": "0x4a3b3463db1ce616ce13dace95ab5f5857a60d9e2c1e44c2dadd50f0e85cde89",
      "transactionIndex": "0x8",
      "blockHash": "0x0000000000000000000000000000000000000000000000000000000000000000",
      "blockNumber": "0x2bd8b96",
      "gasUsed": "0xbd60",
      "effectiveGasPrice": "0xf433c",
      "blobGasUsed": "0x9c40",
      "from": "0x492c0b9f298cc49fe2644a2ebc6ea8df848c72fb",
      "to": "0x5b9d04d3c98035fc63fed58dbb03ca061da21ee6",
      "contractAddress": null,
      "daFootprintGasScalar": "0x190",
      "l1BaseFeeScalar": "0xc3c9d",
      "l1BlobBaseFee": "0xe",
      "l1BlobBaseFeeScalar": "0x0",
      "l1Fee": "0x1e559e",
      "l1GasPrice": "0xdd",
      "l1GasUsed": "0x640"
    }
  ],
  "libraries": [],
  "pending": [],
  "returns": {},
  "timestamp": 1774979765904,
  "chain": 763373,
  "commit": "50bfc40"
}