{
  "transactions": [
    {
      "hash": "0x983692470e58b8f230b14f07d9c11ca7b5773749b904b84c0e031672ee958cd2",
      "transactionType": "CALL",
      "contractName": null,
      "contractAddress": "0x6b57475467cd854d36be7fb614cada5207838943",
      "function": "approve(address,uint256)",
      "arguments": [
        "0x95822416e61Ad6b45Fc45c7540947b6eF080D5a1",
        "10000000"
      ],
      "transaction": {
        "from": "0x492c0b9f298cc49fe2644a2ebc6ea8df848c72fb",
        "to": "0x6b57475467cd854d36be7fb614cada5207838943",
        "gas": "0x10795",
        "value": "0x0",
        "input": "0x095ea7b300000000000000000000000095822416e61ad6b45fc45c7540947b6ef080d5a10000000000000000000000000000000000000000000000000000000000989680",
        "nonce": "0x14",
        "chainId": "0xba5ed"
      },
      "additionalContracts": [],
      "isFixedGasLimit": false
    },
    {
      "hash": "0x160b85347b578efc035fb6c2615c6f802961a457af8625d8c719e14225edc77c",
      "transactionType": "CALL",
      "contractName": null,
      "contractAddress": "0x95822416e61ad6b45fc45c7540947b6ef080d5a1",
      "function": "deposit(uint256,int32)",
      "arguments": [
        "10000000",
        "30000"
      ],
      "transaction": {
        "from": "0x492c0b9f298cc49fe2644a2ebc6ea8df848c72fb",
        "to": "0x95822416e61ad6b45fc45c7540947b6ef080d5a1",
        "gas": "0x130bd",
        "value": "0x0",
        "input": "0x4d9fc5aa00000000000000000000000000000000000000000000000000000000009896800000000000000000000000000000000000000000000000000000000000007530",
        "nonce": "0x15",
        "chainId": "0xba5ed"
      },
      "additionalContracts": [],
      "isFixedGasLimit": false
    },
    {
      "hash": "0x655349ce1901ea020d840ed312fc9004d603785a7039eb75a2f79c808d95314a",
      "transactionType": "CALL",
      "contractName": null,
      "contractAddress": "0x6b57475467cd854d36be7fb614cada5207838943",
      "function": "approve(address,uint256)",
      "arguments": [
        "0x1034259f355566fcE4571F792d239a99BBa1b9b4",
        "15000000"
      ],
      "transaction": {
        "from": "0x492c0b9f298cc49fe2644a2ebc6ea8df848c72fb",
        "to": "0x6b57475467cd854d36be7fb614cada5207838943",
        "gas": "0x8d91",
        "value": "0x0",
        "input": "0x095ea7b30000000000000000000000001034259f355566fce4571f792d239a99bba1b9b40000000000000000000000000000000000000000000000000000000000e4e1c0",
        "nonce": "0x16",
        "chainId": "0xba5ed"
      },
      "additionalContracts": [],
      "isFixedGasLimit": false
    },
    {
      "hash": "0x13319aad42ba433c2a1fb879adbe9b41fff023ff2c417dc66755ef6553cf5769",
      "transactionType": "CALL",
      "contractName": null,
      "contractAddress": "0x1034259f355566fce4571f792d239a99bba1b9b4",
      "function": "deposit(uint256,int32)",
      "arguments": [
        "15000000",
        "-20000"
      ],
      "transaction": {
        "from": "0x492c0b9f298cc49fe2644a2ebc6ea8df848c72fb",
        "to": "0x1034259f355566fce4571f792d239a99bba1b9b4",
        "gas": "0x31e35",
        "value": "0x0",
        "input": "0x4d9fc5aa0000000000000000000000000000000000000000000000000000000000e4e1c0ffffffffffffffffffffffffffffffffffffffffffffffffffffffffffffb1e0",
        "nonce": "0x17",
        "chainId": "0xba5ed"
      },
      "additionalContracts": [],
      "isFixedGasLimit": false
    },
    {
      "hash": "0x031ca0d2ba3c52bed24033279427c4a9594a1be57cf4d766d8d7b2c716c2417b",
      "transactionType": "CALL",
      "contractName": null,
      "contractAddress": "0x95822416e61ad6b45fc45c7540947b6ef080d5a1",
      "function": "withdraw(uint256)",
      "arguments": [
        "5000000"
      ],
      "transaction": {
        "from": "0x492c0b9f298cc49fe2644a2ebc6ea8df848c72fb",
        "to": "0x95822416e61ad6b45fc45c7540947b6ef080d5a1",
        "gas": "0x12525",
        "value": "0x0",
        "input": "0x2e1a7d4d00000000000000000000000000000000000000000000000000000000004c4b40",
        "nonce": "0x18",
        "chainId": "0xba5ed"
      },
      "additionalContracts": [],
      "isFixedGasLimit": false
    },
    {
      "hash": "0x123954a628ef01b403b472c1d6a13f54654824d28f3a5180b864850410631fdc",
      "transactionType": "CALL",
      "contractName": null,
      "contractAddress": "0x1034259f355566fce4571f792d239a99bba1b9b4",
      "function": "withdraw(uint256)",
      "arguments": [
        "15000000"
      ],
      "transaction": {
        "from": "0x492c0b9f298cc49fe2644a2ebc6ea8df848c72fb",
        "to": "0x1034259f355566fce4571f792d239a99bba1b9b4",
        "gas": "0xea8d",
        "value": "0x0",
        "input": "0x2e1a7d4d0000000000000000000000000000000000000000000000000000000000e4e1c0",
        "nonce": "0x19",
        "chainId": "0xba5ed"
      },
      "additionalContracts": [],
      "isFixedGasLimit": false
    }
  ],
  "receipts": [
    {
      "status": "0x1",
      "cumulativeGasUsed": "0x16865",
      "logs": [
        {
          "address": "0x6b57475467cd854d36be7fb614cada5207838943",
          "topics": [
            "0x8c5be1e5ebec7d5bd14f71427d1e84f3dd0314c0f7b2291e5b200ac8c7c3b925",
            "0x000000000000000000000000492c0b9f298cc49fe2644a2ebc6ea8df848c72fb",
            "0x00000000000000000000000095822416e61ad6b45fc45c7540947b6ef080d5a1"
          ],
          "data": "0x0000000000000000000000000000000000000000000000000000000000989680",
          "blockHash": "0xba087052aa45fe72cd4884f46c0f7e7052e9669cfd84d034177c5036451363f3",
          "blockNumber": "0x2bd81e0",
          "blockTimestamp": "0x69cc0100",
          "transactionHash": "0x160b85347b578efc035fb6c2615c6f802961a457af8625d8c719e14225edc77c",
          "transactionIndex": "0x1",
          "logIndex": "0x0",
          "removed": false
        }
      ],
      "logsBloom": "0x00000000000000000400000000000000000000000000000000000000000000000000000000000000000000000000000000000000040000000000000000240000000000000000000000000000000000000000000000002000000200000000000000000000000000000000000000000000000000020000000000000000000000000000000000000000000000000000000000800000000000000000400000000000020000000000000000000000000000000000000000000000000000000000000000000000000000000000000000000000000000000080000000000000000000000010000000000000000000000000000000000000000000000000000000000000",
      "type": "0x0",
      "transactionHash": "0x160b85347b578efc035fb6c2615c6f802961a457af8625d8c719e14225edc77c",
      "transactionIndex": "0x1",
      "blockHash": "0xba087052aa45fe72cd4884f46c0f7e7052e9669cfd84d034177c5036451363f3",
      "blockNumber": "0x2bd81e0",
      "gasUsed": "0xb43b",
      "effectiveGasPrice": "0xf433c",
      "blobGasUsed": "0x9c40",
      "from": "0x492c0b9f298cc49fe2644a2ebc6ea8df848c72fb",
      "to": "0x6b57475467cd854d36be7fb614cada5207838943",
      "contractAddress": null,
      "daFootprintGasScalar": "0x190",
      "l1BaseFeeScalar": "0xc3c9d",
      "l1BlobBaseFee": "0x1ce",
      "l1BlobBaseFeeScalar": "0x0",
      "l1Fee": "0xb66077",
      "l1GasPrice": "0x2463",
      "l1GasUsed": "0x640"
    },
    {
      "status": "0x1",
      "cumulativeGasUsed": "0x24505",
      "logs": [
        {
          "address": "0x6b57475467cd854d36be7fb614cada5207838943",
          "topics": [
            "0x8c5be1e5ebec7d5bd14f71427d1e84f3dd0314c0f7b2291e5b200ac8c7c3b925",
            "0x000000000000000000000000492c0b9f298cc49fe2644a2ebc6ea8df848c72fb",
            "0x00000000000000000000000095822416e61ad6b45fc45c7540947b6ef080d5a1"
          ],
          "data": "0x0000000000000000000000000000000000000000000000000000000000000000",
          "blockHash": "0xba087052aa45fe72cd4884f46c0f7e7052e9669cfd84d034177c5036451363f3",
          "blockNumber": "0x2bd81e0",
          "blockTimestamp": "0x69cc0100",
          "transactionHash": "0x983692470e58b8f230b14f07d9c11ca7b5773749b904b84c0e031672ee958cd2",
          "transactionIndex": "0x2",
          "logIndex": "0x1",
          "removed": false
        },
        {
          "address": "0x6b57475467cd854d36be7fb614cada5207838943",
          "topics": [
            "0xddf252ad1be2c89b69c2b068fc378daa952ba7f163c4a11628f55a4df523b3ef",
            "0x000000000000000000000000492c0b9f298cc49fe2644a2ebc6ea8df848c72fb",
            "0x00000000000000000000000095822416e61ad6b45fc45c7540947b6ef080d5a1"
          ],
          "data": "0x0000000000000000000000000000000000000000000000000000000000989680",
          "blockHash": "0xba087052aa45fe72cd4884f46c0f7e7052e9669cfd84d034177c5036451363f3",
          "blockNumber": "0x2bd81e0",
          "blockTimestamp": "0x69cc0100",
          "transactionHash": "0x983692470e58b8f230b14f07d9c11ca7b5773749b904b84c0e031672ee958cd2",
          "transactionIndex": "0x2",
          "logIndex": "0x2",
          "removed": false
        },
        {
          "address": "0x95822416e61ad6b45fc45c7540947b6ef080d5a1",
          "topics": [
            "0xbbef0a9c761d4d25dede45445e9943583147e06a4079f801bad987c49b35ef5f",
            "0x000000000000000000000000492c0b9f298cc49fe2644a2ebc6ea8df848c72fb"
          ],
          "data": "0x00000000000000000000000000000000000000000000000000000000009896800000000000000000000000000000000000000000000000000000000000007530",
          "blockHash": "0xba087052aa45fe72cd4884f46c0f7e7052e9669cfd84d034177c5036451363f3",
          "blockNumber": "0x2bd81e0",
          "blockTimestamp": "0x69cc0100",
          "transactionHash": "0x983692470e58b8f230b14f07d9c11ca7b5773749b904b84c0e031672ee958cd2",
          "transactionIndex": "0x2",
          "logIndex": "0x3",
          "removed": false
        }
      ],
      "logsBloom": "0x00000000000000000400000000000000000000000000000000000000000000000000000000000000000000000000000000000000040000000000000000240000000000000000000000000008000000000100000000002000000200000000000000000000000000000000000000000000000000020000000000000010000000000000000000000000000000000000000000800000000000000000400000000000020000000000000000000000000000000000000000000000000000000040000000000802000000000000000000000800000000000080000000000000000000000010000000000000000000000080001000000000000000000000000000000000",
      "type": "0x0",
      "transactionHash": "0x983692470e58b8f230b14f07d9c11ca7b5773749b904b84c0e031672ee958cd2",
      "transactionIndex": "0x2",
      "blockHash": "0xba087052aa45fe72cd4884f46c0f7e7052e9669cfd84d034177c5036451363f3",
      "blockNumber": "0x2bd81e0",
      "gasUsed": "0xdca0",
      "effectiveGasPrice": "0xf433c",
      "blobGasUsed": "0x9c40",
      "from": "0x492c0b9f298cc49fe2644a2ebc6ea8df848c72fb",
      "to": "0x95822416e61ad6b45fc45c7540947b6ef080d5a1",
      "contractAddress": null,
      "daFootprintGasScalar": "0x190",
      "l1BaseFeeScalar": "0xc3c9d",
      "l1BlobBaseFee": "0x1ce",
      "l1BlobBaseFeeScalar": "0x0",
      "l1Fee": "0xb66077",
      "l1GasPrice": "0x2463",
      "l1GasUsed": "0x640"
    },
    {
      "status": "0x1",
      "cumulativeGasUsed": "0x2ab84",
      "logs": [
        {
          "address": "0x6b57475467cd854d36be7fb614cada5207838943",
          "topics": [
            "0x8c5be1e5ebec7d5bd14f71427d1e84f3dd0314c0f7b2291e5b200ac8c7c3b925",
            "0x000000000000000000000000492c0b9f298cc49fe2644a2ebc6ea8df848c72fb",
            "0x0000000000000000000000001034259f355566fce4571f792d239a99bba1b9b4"
          ],
          "data": "0x0000000000000000000000000000000000000000000000000000000000e4e1c0",
          "blockHash": "0xba087052aa45fe72cd4884f46c0f7e7052e9669cfd84d034177c5036451363f3",
          "blockNumber": "0x2bd81e0",
          "blockTimestamp": "0x69cc0100",
          "transactionHash": "0x13319aad42ba433c2a1fb879adbe9b41fff023ff2c417dc66755ef6553cf5769",
          "transactionIndex": "0x3",
          "logIndex": "0x4",
          "removed": false
        }
      ],
      "logsBloom": "0x00000000000000000000020000100000000000000000000000000000000000000000000000000000000000000000000000000000000000000000000000240000000000000000000000000000000000000000000000000000000200000000000000000000000000000000000000000000000000020000000000000000000000000000000000000000000000000000000000800000000000000000400000000000020002000000000000000000000000000000000000000000000000000000000000000000000000000000000000000000000000000080000000000000000000000010000000000000000000000000000000000000000000000000000000000000",
      "type": "0x0",
      "transactionHash": "0x13319aad42ba433c2a1fb879adbe9b41fff023ff2c417dc66755ef6553cf5769",
      "transactionIndex": "0x3",
      "blockHash": "0xba087052aa45fe72cd4884f46c0f7e7052e9669cfd84d034177c5036451363f3",
      "blockNumber": "0x2bd81e0",
      "gasUsed": "0x667f",
      "effectiveGasPrice": "0xf433c",
      "blobGasUsed": "0x9c40",
      "from": "0x492c0b9f298cc49fe2644a2ebc6ea8df848c72fb",
      "to": "0x6b57475467cd854d36be7fb614cada5207838943",
      "contractAddress": null,
      "daFootprintGasScalar": "0x190",
      "l1BaseFeeScalar": "0xc3c9d",
      "l1BlobBaseFee": "0x1ce",
      "l1BlobBaseFeeScalar": "0x0",
      "l1Fee": "0xb66077",
      "l1GasPrice": "0x2463",
      "l1GasUsed": "0x640"
    },
    {
      "status": "0x1",
      "cumulativeGasUsed": "0x4ed68",
      "logs": [
        {
          "address": "0x6b57475467cd854d36be7fb614cada5207838943",
          "topics": [
            "0x8c5be1e5ebec7d5bd14f71427d1e84f3dd0314c0f7b2291e5b200ac8c7c3b925",
            "0x000000000000000000000000492c0b9f298cc49fe2644a2ebc6ea8df848c72fb",
            "0x0000000000000000000000001034259f355566fce4571f792d239a99bba1b9b4"
          ],
          "data": "0x0000000000000000000000000000000000000000000000000000000000000000",
          "blockHash": "0xba087052aa45fe72cd4884f46c0f7e7052e9669cfd84d034177c5036451363f3",
          "blockNumber": "0x2bd81e0",
          "blockTimestamp": "0x69cc0100",
          "transactionHash": "0x655349ce1901ea020d840ed312fc9004d603785a7039eb75a2f79c808d95314a",
          "transactionIndex": "0x4",
          "logIndex": "0x5",
          "removed": false
        },
        {
          "address": "0x6b57475467cd854d36be7fb614cada5207838943",
          "topics": [
            "0xddf252ad1be2c89b69c2b068fc378daa952ba7f163c4a11628f55a4df523b3ef",
            "0x000000000000000000000000492c0b9f298cc49fe2644a2ebc6ea8df848c72fb",
            "0x0000000000000000000000001034259f355566fce4571f792d239a99bba1b9b4"
          ],
          "data": "0x0000000000000000000000000000000000000000000000000000000000e4e1c0",
          "blockHash": "0xba087052aa45fe72cd4884f46c0f7e7052e9669cfd84d034177c5036451363f3",
          "blockNumber": "0x2bd81e0",
          "blockTimestamp": "0x69cc0100",
          "transactionHash": "0x655349ce1901ea020d840ed312fc9004d603785a7039eb75a2f79c808d95314a",
          "transactionIndex": "0x4",
          "logIndex": "0x6",
          "removed": false
        },
        {
          "address": "0x1034259f355566fce4571f792d239a99bba1b9b4",
          "topics": [
            "0xbbef0a9c761d4d25dede45445e9943583147e06a4079f801bad987c49b35ef5f",
            "0x000000000000000000000000492c0b9f298cc49fe2644a2ebc6ea8df848c72fb"
          ],
          "data": "0x0000000000000000000000000000000000000000000000000000000000e4e1c0ffffffffffffffffffffffffffffffffffffffffffffffffffffffffffffb1e0",
          "blockHash": "0xba087052aa45fe72cd4884f46c0f7e7052e9669cfd84d034177c5036451363f3",
          "blockNumber": "0x2bd81e0",
          "blockTimestamp": "0x69cc0100",
          "transactionHash": "0x655349ce1901ea020d840ed312fc9004d603785a7039eb75a2f79c808d95314a",
          "transactionIndex": "0x4",
          "logIndex": "0x7",
          "removed": false
        }
      ],
      "logsBloom": "0x00000000080000000000020000100000000000000000000000000000000000000000000000000000000000000000000000000000000000000000000000240000000000000000000000000008000000000000000000000000000200000000000000000000000000000000000000000000000000020000000000000030000000000000000000000000000000000000000000800000000000000000400000000000020002000000000000000000000000000000000000000000000000000000000000000802000000000000000000000800000000000080000000008000000000000010000000000000000000000080000000000000000000000000000000000000",
      "type": "0x0",
      "transactionHash": "0x655349ce1901ea020d840ed312fc9004d603785a7039eb75a2f79c808d95314a",
      "transactionIndex": "0x4",
      "blockHash": "0xba087052aa45fe72cd4884f46c0f7e7052e9669cfd84d034177c5036451363f3",
      "blockNumber": "0x2bd81e0",
      "gasUsed": "0x241e4",
      "effectiveGasPrice": "0xf433c",
      "blobGasUsed": "0x9c40",
      "from": "0x492c0b9f298cc49fe2644a2ebc6ea8df848c72fb",
      "to": "0x1034259f355566fce4571f792d239a99bba1b9b4",
      "contractAddress": null,
      "daFootprintGasScalar": "0x190",
      "l1BaseFeeScalar": "0xc3c9d",
      "l1BlobBaseFee": "0x1ce",
      "l1BlobBaseFeeScalar": "0x0",
      "l1Fee": "0xb66077",
      "l1GasPrice": "0x2463",
      "l1GasUsed": "0x640"
    },
    {
      "status": "0x1",
      "cumulativeGasUsed": "0x5b5d9",
      "logs": [
        {
          "address": "0x6b57475467cd854d36be7fb614cada5207838943",
          "topics": [
            "0xddf252ad1be2c89b69c2b068fc378daa952ba7f163c4a11628f55a4df523b3ef",
            "0x00000000000000000000000095822416e61ad6b45fc45c7540947b6ef080d5a1",
            "0x000000000000000000000000492c0b9f298cc49fe2644a2ebc6ea8df848c72fb"
          ],
          "data": "0x00000000000000000000000000000000000000000000000000000000004c4b40",
          "blockHash": "0xba087052aa45fe72cd4884f46c0f7e7052e9669cfd84d034177c5036451363f3",
          "blockNumber": "0x2bd81e0",
          "blockTimestamp": "0x69cc0100",
          "transactionHash": "0x031ca0d2ba3c52bed24033279427c4a9594a1be57cf4d766d8d7b2c716c2417b",
          "transactionIndex": "0x5",
          "logIndex": "0x8",
          "removed": false
        },
        {
          "address": "0x95822416e61ad6b45fc45c7540947b6ef080d5a1",
          "topics": [
            "0x884edad9ce6fa2440d8a54cc123490eb96d2768479d49ff9c7366125a9424364",
            "0x000000000000000000000000492c0b9f298cc49fe2644a2ebc6ea8df848c72fb"
          ],
          "data": "0x00000000000000000000000000000000000000000000000000000000004c4b40",
          "blockHash": "0xba087052aa45fe72cd4884f46c0f7e7052e9669cfd84d034177c5036451363f3",
          "blockNumber": "0x2bd81e0",
          "blockTimestamp": "0x69cc0100",
          "transactionHash": "0x031ca0d2ba3c52bed24033279427c4a9594a1be57cf4d766d8d7b2c716c2417b",
          "transactionIndex": "0x5",
          "logIndex": "0x9",
          "removed": false
        }
      ],
      "logsBloom": "0x00000000000000000400000000000000000000000000000000100000000000000000000000000000000000000000000000000000040000000000000000040000000000000000000000000008000000000100000000002000000200000000000000000000000000000000000000000000000000020000000000000010000004001000000000000000000000000000000000800000000000000000400000000000000000000000000000000000000000000000000000000000000000000040000000000002000000000000000000000000000000000080000000000000000000000000000000000000000000000000001000000000000000000000000000000000",
      "type": "0x0",
      "transactionHash": "0x031ca0d2ba3c52bed24033279427c4a9594a1be57cf4d766d8d7b2c716c2417b",
      "transactionIndex": "0x5",
      "blockHash": "0xba087052aa45fe72cd4884f46c0f7e7052e9669cfd84d034177c5036451363f3",
      "blockNumber": "0x2bd81e0",
      "gasUsed": "0xc871",
      "effectiveGasPrice": "0xf433c",
      "blobGasUsed": "0x9c40",
      "from": "0x492c0b9f298cc49fe2644a2ebc6ea8df848c72fb",
      "to": "0x95822416e61ad6b45fc45c7540947b6ef080d5a1",
      "contractAddress": null,
      "daFootprintGasScalar": "0x190",
      "l1BaseFeeScalar": "0xc3c9d",
      "l1BlobBaseFee": "0x1ce",
      "l1BlobBaseFeeScalar": "0x0",
      "l1Fee": "0xb66077",
      "l1GasPrice": "0x2463",
      "l1GasUsed": "0x640"
    },
    {
      "status": "0x1",
      "cumulativeGasUsed": "0x65fa9",
      "logs": [
        {
          "address": "0x6b57475467cd854d36be7fb614cada5207838943",
          "topics": [
            "0xddf252ad1be2c89b69c2b068fc378daa952ba7f163c4a11628f55a4df523b3ef",
            "0x0000000000000000000000001034259f355566fce4571f792d239a99bba1b9b4",
            "0x000000000000000000000000492c0b9f298cc49fe2644a2ebc6ea8df848c72fb"
          ],
          "data": "0x0000000000000000000000000000000000000000000000000000000000e4e1c0",
          "blockHash": "0xba087052aa45fe72cd4884f46c0f7e7052e9669cfd84d034177c5036451363f3",
          "blockNumber": "0x2bd81e0",
          "blockTimestamp": "0x69cc0100",
          "transactionHash": "0x123954a628ef01b403b472c1d6a13f54654824d28f3a5180b864850410631fdc",
          "transactionIndex": "0x6",
          "logIndex": "0xa",
          "removed": false
        },
        {
          "address": "0x1034259f355566fce4571f792d239a99bba1b9b4",
          "topics": [
            "0x884edad9ce6fa2440d8a54cc123490eb96d2768479d49ff9c7366125a9424364",
            "0x000000000000000000000000492c0b9f298cc49fe2644a2ebc6ea8df848c72fb"
          ],
          "data": "0x0000000000000000000000000000000000000000000000000000000000e4e1c0",
          "blockHash": "0xba087052aa45fe72cd4884f46c0f7e7052e9669cfd84d034177c5036451363f3",
          "blockNumber": "0x2bd81e0",
          "blockTimestamp": "0x69cc0100",
          "transactionHash": "0x123954a628ef01b403b472c1d6a13f54654824d28f3a5180b864850410631fdc",
          "transactionIndex": "0x6",
          "logIndex": "0xb",
          "removed": false
        }
      ],
      "logsBloom": "0x00000000080000000000020000100000000000000000000000100000000000000000000000000000000000000000000000000000000000000000000000040000000000000000000000000008000000000000000000000000000200000000000000000000000000000000000000000000000000020000000000000030000004001000000000000000000000000000000000800000000000000000400000000000000002000000000000000000000000000000000000000000000000000000000000000002000000000000000000000000000000000080000000008000000000000000000000000000000000000000000000000000000000000000000000000000",
      "type": "0x0",
      "transactionHash": "0x123954a628ef01b403b472c1d6a13f54654824d28f3a5180b864850410631fdc",
      "transactionIndex": "0x6",
      "blockHash": "0xba087052aa45fe72cd4884f46c0f7e7052e9669cfd84d034177c5036451363f3",
      "blockNumber": "0x2bd81e0",
      "gasUsed": "0xa9d0",
      "effectiveGasPrice": "0xf433c",
      "blobGasUsed": "0x9c40",
      "from": "0x492c0b9f298cc49fe2644a2ebc6ea8df848c72fb",
      "to": "0x1034259f355566fce4571f792d239a99bba1b9b4",
      "contractAddress": null,
      "daFootprintGasScalar": "0x190",
      "l1BaseFeeScalar": "0xc3c9d",
      "l1BlobBaseFee": "0x1ce",
      "l1BlobBaseFeeScalar": "0x0",
      "l1Fee": "0xb66077",
      "l1GasPrice": "0x2463",
      "l1GasUsed": "0x640"
    }
  ],
  "libraries": [],
  "pending": [],
  "returns": {},
  "timestamp": 1774977280129,
  "chain": 763373,
  "commit": "5b98b42"
}